:100000000C94A6000C94B8000C94B8000C94B800A2
:100010000C94B8000C94B8000C94B8000C94B80080
:100020000C94B8000C94B8000C94B8000C94B80070
:100030000C94B8000C94B8000C94B8000C94B80060
:100040000C94D2000C94B8000C94B8000C94B80036
:100050000C94B8000C94B8000C94B8000C94B80040
:100060000C94B8000C94B8000C94B8000C94B80030
:100070000C94B8000C94B8000C94B8000C94B80020
:100080000C94B8000C94B8000C94B8000000000A5E
:100090000B0C000000000000010405060000000039
:1000A0000000000000000000000000000000000050
:1000B0000000000000000000000000000000000040
:1000C00000010204081020408001020408102040B2
:1000D000800810010204081020408001020102047F
:1000E0000810204080048040201008040201010212
:1000F00004081020408005050505050505050202D8
:1001000002020202020207070404040404040404B5
:1001100007070303030303030303070101010101AD
:10012000010101060606060606060600003B003829
:10013000003500320023006200650000003A0037FD
:1001400000340031002200610064000011241FBE51
:10015000CFEFD0E1DEBFCDBF21E0A0E0B1E001C034
:100160001D92A930B207E1F70E944B020C94640281
:100170000C94000061E082E00C94E00161E082E018
:100180000E941C0268EE73E080E090E00E94420151
:1001900060E082E00E941C0268EE73E080E090E084
:1001A0000C9442011F920F920FB60F9211242F93BD
:1001B0003F938F939F93AF93BF9380910101909151
:1001C0000201A0910301B09104013091000126E0E9
:1001D000230F2D3758F50296A11DB11D2093000164
:1001E0008093010190930201A0930301B093040155
:1001F0008091050190910601A0910701B09108013D
:100200000196A11DB11D8093050190930601A09355
:100210000701B0930801BF91AF919F918F913F91DA
:100220002F910F900FBE0F901F90189529E8230F64
:100230000396A11DB11DD2CF3FB7F894809105015F
:1002400090910601A0910701B091080122B706B66E
:1002500000FE05C02F3F19F00196A11DB11D3FBF43
:10026000BA2FA92F982F8827BC01CD01620F711DCD
:10027000811D911D43E0660F771F881F991F4A95C6
:10028000D1F708958F929F92AF92BF92CF92DF9253
:10029000EF92FF926B017C010E941C014B015C01FB
:1002A000C114D104E104F104E9F00E945A020E9451
:1002B0001C01681979098A099B09683E7340810508
:1002C000910570F321E0C21AD108E108F10888EE27
:1002D000880E83E0981EA11CB11CC114D104E10456
:1002E000F10429F7FF90EF90DF90CF90BF90AF908F
:1002F0009F908F900895789483B7806483BF83B76D
:10030000886083BF83B7846083BF87B7816087BFFE
:100310001EBC8EB582608EBD8EB581608EBD8FB5E0
:1003200081608FBD85B5846085BD85B5806485BDE0
:10033000EAE8F0E080818260808380818160808350
:10034000EBE8F0E0808181608083329A319A3098C6
:10035000379A1AB8089581508C3048F5E82FF0E0AC
:10036000EC54FE4F0C945B02CE01CE01D701C001CC
:10037000C401C701CA01D701D701D201D801DC01EC
:100380008FB58F778FBD08958FB58F7DFBCF8FB5DC
:10039000877FF8CF85B58F7D85BD089583B78F7D25
:1003A00083BF089580918B008F7780938B00089591
:1003B00080918B008F7DF9CF80918B00877FF5CF67
:1003C000CF93DF9390E0FC01EF53FF4F24918A50CD
:1003D0009F4FFC0184918823C9F090E0880F991FFA
:1003E000FC01E55CFE4FA591B491FC01E55DFE4F7B
:1003F000C591D49161110DC09FB7F8948C9120954F
:1004000082238C938881282328839FBFDF91CF91FB
:100410000895623051F49FB7F8943C91822F8095F3
:1004200083238C93E8812E2BEFCF8FB7F894EC9138
:100430002E2B2C938FBFEACF1F93CF93DF93282FC0
:1004400030E0F901E457FF4F8491F901EF53FF4F7A
:10045000D491F901EA50FF4FC491CC23A9F0162F93
:1004600081110E94AB01EC2FF0E0EE0FFF1FE55D64
:10047000FE4FA591B4918FB7F894EC91111108C07B
:10048000D095DE23DC938FBFDF91CF911F9108952C
:10049000DE2BF8CF08950E947B010E944A020E9441
:1004A000BA00C0E0D0E00E94BE002097E1F30E94B5
:1004B0000000F9CF0895EE0FFF1F0024001C0BBEB3
:0C04C0000790F691E02D0994F894FFCF0E
:00000001FF
