:100000000C9446000C9458000C9458000C94580022
:100010000C9458000C9458000C9458000C94580000
:100020000C9458000C9458000C9458000C945800F0
:100030000C9458000C9458000C9458000C945800E0
:100040000C946E000C9458000C9458000C945800BA
:100050000C9458000C9458000C9458000C945800C0
:100060000C9458000C9458000C9458000C945800B0
:100070000C9458000C9458000C9458000C945800A0
:100080000C9458000C9458000C94580011241FBE76
:10009000CFEFD0E1DEBFCDBF21E0A0E0B1E001C0F5
:1000A0001D92A930B207E1F70E945F000C94E800AE
:1000B0000C940000BF9A0895C79A089508950E946D
:1000C000B8000E945E000E945A00C0E0D0E00E948A
:1000D0005C002097E1F30E940000F9CF1F920F927D
:1000E0000FB60F9211242F933F938F939F93AF934B
:1000F000BF938091010190910201A0910301B09101
:1001000004013091000126E0230F2D3758F50296A7
:10011000A11DB11D20930001809301019093020164
:10012000A0930301B0930401809105019091060111
:10013000A0910701B09108010196A11DB11D809306
:10014000050190930601A0930701B0930801BF91A8
:10015000AF919F918F913F912F910F900FBE0F9074
:100160001F90189529E8230F0396A11DB11DD2CF2A
:10017000789483B7806483BF83B7886083BF83B775
:10018000846083BF87B7816087BF1EBC8EB58260E5
:100190008EBD8EB581608EBD8FB581608FBD85B5FA
:1001A000846085BD85B5806485BDEAE8F0E0808126
:1001B00082608083808181608083EBE8F0E08081D1
:1001C00081608083329A319A3098379A1AB80895AC
:0401D000F894FFCFD1
:00000001FF
