:100000000C94A7000C94D1000C94D1000C94D10056
:100010000C94D1000C94D1000C94D1000C94D1001C
:100020000C94D1000C94D1000C94D1000C94D1000C
:100030000C94D1000C94D1000C94D1000C94D100FC
:100040000C94FA000C94D1000C949F030C94D503EB
:100050000C94D1000C94D1000C94D1000C94D100DC
:100060000C94D1000C94D1000C94D1000C94D100CC
:100070000C94D1000C94D1000C94D1000C94D100BC
:100080000C94D1000C94D1000C94D1000000000A13
:100090000B0C000000000000010405060000000039
:1000A0000000000000000000000000000000000050
:1000B0000000000000000000000000000000000040
:1000C00000010204081020408001020408102040B2
:1000D000800810010204081020408001020102047F
:1000E0000810204080048040201008040201010212
:1000F00004081020408005050505050505050202D8
:1001000002020202020207070404040404040404B5
:1001100007070303030303030303070101010101AD
:10012000010101060606060606060600003B003829
:10013000003500320023006200650000003A0037FD
:100140000034003100220061006400000904112421
:100150001FBECFEFD0E1DEBFCDBF11E0A0E0B1E028
:10016000E6E9F9E000E00BBF02C007900D92AA316A
:10017000B107D9F721E0AAE1B1E001C01D92A03C8E
:10018000B207E1F710E0C7EAD0E004C02197FE0112
:100190000E94C004C63AD107C9F70E948E040C948D
:1001A000C9040C94000061E082E00E94080226E08D
:1001B00040E855E260E070E083E291E00C94430394
:1001C00060E071E083E291E00E94760461E082E009
:1001D0000E94440268EE73E080E090E00E946A01B1
:1001E00060E082E00E94440268EE73E080E090E00C
:1001F0000C946A011F920F920FB60F9211242F9345
:100200003F938F939F93AF93BF9380911B019091E6
:100210001C01A0911D01B0911E0130911A0126E030
:10022000230F2D3758F50296A11DB11D20931A01F9
:1002300080931B0190931C01A0931D01B0931E019C
:1002400080911F0190912001A0912101B091220184
:100250000196A11DB11D80931F0190932001A093D1
:100260002101B0932201BF91AF919F918F913F9156
:100270002F910F900FBE0F901F90189529E8230F14
:100280000396A11DB11DD2CF3FB7F89480911F01F5
:1002900090912001A0912101B091220122B706B6D0
:1002A00000FE05C02F3F19F00196A11DB11D3FBFF3
:1002B000BA2FA92F982F8827BC01CD01620F711D7D
:1002C000811D911D43E0660F771F881F991F4A9576
:1002D000D1F708958F929F92AF92BF92CF92DF9203
:1002E000EF92FF926B017C010E9444014B015C0183
:1002F000C114D104E104F104E9F00E949D040E94BC
:100300004401681979098A099B09683E734081058F
:10031000910570F321E0C21AD108E108F10888EED6
:10032000880E83E0981EA11CB11CC114D104E10405
:10033000F10429F7FF90EF90DF90CF90BF90AF903E
:100340009F908F900895789483B7806483BF83B71C
:10035000886083BF83B7846083BF87B7816087BFAE
:100360001EBC8EB582608EBD8EB581608EBD8FB590
:1003700081608FBD85B5846085BD85B5806485BD90
:10038000EAE8F0E080818260808380818160808300
:10039000EBE8F0E0808181608083329A319A309876
:1003A000379A1AB8089581508C3048F5E82FF0E05C
:1003B000E452FE4F0C94C004F601F601FF01E8017F
:1003C000EC01EF01F201FF01FF01FA01000204025A
:1003D0008FB58F778FBD08958FB58F7DFBCF8FB58C
:1003E000877FF8CF85B58F7D85BD089583B78F7DD5
:1003F00083BF089580918B008F7780938B00089541
:1004000080918B008F7DF9CF80918B00877FF5CF16
:10041000CF93DF9390E0FC01EF53FF4F24918A507C
:100420009F4FFC0184918823C9F090E0880F991FA9
:10043000FC01E55CFE4FA591B491FC01E55DFE4F2A
:10044000C591D49161110DC09FB7F8948C912095FE
:1004500082238C938881282328839FBFDF91CF91AB
:100460000895623051F49FB7F8943C91822F8095A3
:1004700083238C93E8812E2BEFCF8FB7F894EC91E8
:100480002E2B2C938FBFEACF1F93CF93DF93282F70
:1004900030E0F901E457FF4F8491F901EF53FF4F2A
:1004A000D491F901EA50FF4FC491CC23A9F0162F43
:1004B00081110E94D301EC2FF0E0EE0FFF1FE55DEC
:1004C000FE4FA591B4918FB7F894EC91111108C02B
:1004D000D095DE23DC938FBFDF91CF911F910895DC
:1004E000DE2BF8CFFC01918D228D892F90E0805C6E
:1004F0009F4F821B91098F7399270895FC01918D5D
:10050000828D981731F0828DE80FF11D858D90E076
:1005100008958FEF9FEF0895FC01918D828D9817BC
:1005200061F0A28DAE0FBF2FB11D5D968C91928DA3
:100530009F5F9F73928F90E008958FEF9FEF0895D4
:100540008FEF93E0892B49F080E090E0892B29F030
:100550000E94FF0381110E94000080E090E0892B3F
:1005600049F080E090E0892B29F00E940000811181
:100570000C9400000895FC01A48DA80FB92FB11DA3
:10058000A35ABF4F2C91848D90E001968F739927C9
:10059000848FA689B7892C93A089B1898C918064B6
:1005A0008C93938D848D981306C00288F389E02D77
:1005B00080818F7D80830895CF93DF93EC01888DB8
:1005C0008823B9F0AA89BB89E889F9898C9185FDCE
:1005D00003C0808186FD0DC00FB607FCF7CF8C915C
:1005E00085FFF2CF808185FFEDCFCE010E94BB0257
:1005F000E9CFDF91CF910895EF92FF920F931F9370
:10060000CF93DF93EC0181E0888F9B8D8C8D9813C5
:1006100016C0E889F989808185FF11C0EE89FF89BC
:100620006083E889F98980818064808381E090E03B
:10063000DF91CF911F910F91FF90EF900895F62ECB
:100640000B8D10E00F5F1F4F0F731127E02E8C8D65
:100650008E110CC00FB607FCFACFE889F9898081AA
:1006600085FFF5CFCE010E94BB02F1CFEB8DEC0FE1
:10067000FD2FF11DE35AFF4FF0820B8FEA89FB89B2
:1006800080818062D2CFCF92DF92EF92FF921F9350
:10069000CF93DF93EC016A017B01122F60E874E8CD
:1006A0008EE190E0A70196010E949E04215031093D
:1006B000410951095695479537952795E889F98954
:1006C00082E08083211580E1380798F0E889F98974
:1006D000108260E472E48FE090E0A70196010E942E
:1006E0009E04215031094109510956954795379586
:1006F0002795EC85FD853083EE85FF852083188E58
:10070000EC89FD891083EA89FB898081806180837F
:10071000EA89FB89808188608083EA89FB898081FE
:1007200080688083EA89FB8980818F7D8083DF9167
:10073000CF911F91FF90EF90DF90CF9008951F927F
:100740000F920FB60F9211240BB60F922F938F9327
:100750009F93EF93FF93E0913301F09134018081F7
:10076000E0913901F0913A0182FD1DC090818091A4
:100770003C018F5F8F7320913D01821741F0E09122
:100780003C01F0E0ED5DFE4F958F80933C01FF91C1
:10079000EF919F918F912F910F900BBE0F900FBEF5
:1007A0000F901F9018958081F2CF1F920F920FB675
:1007B0000F9211240BB60F922F933F934F935F9399
:1007C0006F937F938F939F93AF93BF93EF93FF9319
:1007D00083E291E00E94BB02FF91EF91BF91AF9144
:1007E0009F918F917F916F915F914F913F912F9149
:1007F0000F900BBE0F900FBE0F901F90189583E2C5
:1008000091E00E94720221E0892B09F420E0822FFE
:100810000895E3E2F1E01382128288EE93E0A0E013
:10082000B0E084839583A683B7838AE091E09183C7
:10083000808380E990E09587848789E290E09787BC
:1008400086878BE290E0918B808B8AE290E0938B9D
:10085000828B85E990E0958B848B8CE290E0978B7E
:10086000868B118E128E138E148E0895AF92BF92C6
:10087000CF92DF92EF92FF920F931F93CF93DF936C
:100880006C017B018B01040F151FEB015E01AE189B
:10089000BF08C017D10759F06991D601ED91FC91BD
:1008A0000190F081E02DC6010995892B79F7C501EA
:1008B000DF91CF911F910F91FF90EF90DF90CF903C
:1008C000BF90AF900895FB0101900020E9F73197A8
:1008D000AF01461B570BDC01ED91FC910280F381C7
:1008E000E02D099466E171E00C9463040F931F936B
:1008F000CF93DF938C01D0E0C0E06115710519F052
:100900000E946304EC01C8010E9472048C0F9D1FB9
:10091000DF91CF911F910F91089508950E94A30137
:100920000E948D040E94D300C0EAD2E00E94E00041
:100930002097E1F30E94A002F9CF0895A1E21A2EB8
:10094000AA1BBB1BFD010DC0AA1FBB1FEE1FFF1F73
:10095000A217B307E407F50720F0A21BB30BE40BC3
:10096000F50B661F771F881F991F1A9469F760950A
:100970007095809590959B01AC01BD01CF010895C4
:10098000EE0FFF1F0024001C0BBE0790F691E02D18
:060990000994F894FFCF6A
:1009960048656C6C6F0000000000FC0236047202B1
:0A09A6008C027E02DC020D0A000044
:00000001FF
