:100000000C9494000C94BE000C94BE000C94BE00A2
:100010000C94BE000C94BE000C94BE000C94BE0068
:100020000C94BE000C94BE000C94BE000C94BE0058
:100030000C94BE000C94BE000C94BE000C94BE0048
:100040000C9454030C94BE000C941E030C94F40204
:100050000C94BE000C94BE000C94BE000C94BE0028
:100060000C94BE000C94BE000C94BE000C94BE0018
:100070000C94BE000C94BE000C94BE000C94BE0008
:100080000C94BE000C94BE000C94BE0000003B001B
:1000900038003500320023006200650000003A009D
:1000A0003700340031002200610064000000390094
:1000B00036003300300021002000630005050505EF
:1000C00005050505020202020202020207070404F6
:1000D00004040404040407070303030303030303E2
:1000E00007010101010101010106060606060606D7
:1000F000060102040810204080010204081020407C
:10010000800810010204081020408001020102044E
:1001100008102040800480402010080402010102E1
:100120000408102040809E0311241FBECFEFD0E1B1
:10013000DEBFCDBF11E0A0E0B1E0EAE1FFE000E00A
:100140000BBF02C007900D92A032B107D9F721E092
:10015000A0E2B1E001C01D92A43DB207E1F710E0BA
:10016000C4E9D0E004C02197FE010E948207C33990
:10017000D107C9F70E942F040C948B070C94000040
:100180008091C601E091C701F091C801F894918176
:10019000982B91832281382F309523232283A2E04C
:1001A000B0E01197F1F7918193239183A0E1B0E042
:1001B0001197F1F790817894E6E6F0E03197F1F746
:1001C000982381E009F480E00895CF92DF92EF92C6
:1001D000FF920F931F93CF93DF9328E030E041E02D
:1001E0006EE770E096E0C92ED12CC0E1D0E00AE6BF
:1001F00010E09091C601E091C701F091C801F92E7D
:10020000F094582F542389F1F89452815F2152833E
:100210005181592B5183DE011197F1F75281952BB2
:1002200092837894F8013197F1F7440F2150310906
:1002300001F7F894E091C701F091C8019181809194
:10024000C601809598239183E091C701F091C80180
:100250009281892382837894DF91CF911F910F91AE
:10026000FF90EF90DF90CF900895F89452815F2136
:1002700052835181592B5183DB011197F1F7528140
:10028000952B92837894F601CECFAF92BF92CF9206
:10029000DF92EF92FF920F931F93CF93DF936C0146
:1002A0007B018B01040F151FEB015E01AE18BF0827
:1002B000C017D10759F06991D601ED91FC910190D9
:1002C000F081E02DC6010995892B79F7C501DF91F1
:1002D000CF911F910F91FF90EF90DF90CF90BF9043
:1002E000AF900895FC01918D828D981761F0A28DD9
:1002F000AE0FBF2FB11D5D968C91928D9F5F9F7346
:10030000928F90E008958FEF9FEF0895FC01918DFB
:10031000828D981731F0828DE80FF11D858D90E068
:1003200008958FEF9FEF0895FC01918D228D892F05
:1003300090E0805C9F4F821B91098F7399270895ED
:1003400089E291E00E94940121E0892B09F420E0E8
:10035000822F0895FC01A48DA80FB92FB11DA35AB7
:10036000BF4F2C91848D90E001968F739927848FD5
:10037000A689B7892C93A089B1898C9180648C93CC
:10038000938D848D981306C00288F389E02D8081B7
:100390008F7D80830895EF92FF920F931F93CF93E9
:1003A000DF93EC0181E0888F9B8D8C8D981316C0B4
:1003B000E889F989808185FF11C0EE89FF89608312
:1003C000E889F98980818064808381E090E0DF9111
:1003D000CF911F910F91FF90EF900895F62E0B8D06
:1003E00010E00F5F1F4F0F731127E02E8C8D8E11C1
:1003F0000CC00FB607FCFACFE889F989808185FF28
:10040000F5CFCE010E94AA01F1CFEB8DEC0FFD2FAD
:10041000F11DE35AFF4FF0820B8FEA89FB8980813F
:100420008062D2CFCF93DF93EC01888D8823B9F01F
:10043000AA89BB89E889F9898C9185FD03C08081EF
:1004400086FD0DC00FB607FCF7CF8C9185FFF2CF6C
:10045000808185FFEDCFCE010E94AA01E9CFDF9117
:10046000CF91089580E090E0892B29F00E94A001AF
:1004700081110E94000080E090E0892B49F080E02B
:1004800090E0892B29F00E94000081110C9400005B
:1004900008953FB7F8948091250190912601A0918D
:1004A0002701B091280122B706B600FE05C02F3FF4
:1004B00019F00196A11DB11D3FBFBA2FA92F982F8A
:1004C0008827BC01CD01620F711D811D911D43E084
:1004D000660F771F881F991F4A95D1F70895FC0171
:1004E00001900020E9F73197AF01481B590BBC017F
:1004F00089E291E00C9445018F929F92AF92BF9256
:100500000F931F93CF93DF93CDB7DEB7A1970FB6AD
:10051000F894DEBF0FBECDBF19A2423008F44AE006
:100520008E010F5D1F4F842E912CB12CA12CA501A3
:1005300094010E946007E62FB901CA01EA30F4F481
:10054000E05DD801EE938D01232B242B252B79F729
:1005500090E080E0109719F0CD010E946F02A19603
:100560000FB6F894DEBF0FBECDBFDF91CF911F91C4
:100570000F91BF90AF909F908F900895E95CE1CF6D
:100580008091C601E091C701F091C801F894918172
:10059000282F20959223918378943DE7315011F1D3
:1005A00090819823D9F3F894928192239283918138
:1005B000982B91837894ACEBB3E01197F1F7F89412
:1005C000918192239183A8E8B0E01197F1F790818F
:1005D000982381E009F080E07894E0E3F3E031973C
:1005E000F1F7089580E008951F920F920FB60F92D1
:1005F00011240BB60F922F933F934F935F936F93FA
:100600007F938F939F93AF93BF93EF93FF9389E271
:1006100091E00E94AA01FF91EF91BF91AF919F914C
:100620008F917F916F915F914F913F912F910F909B
:100630000BBE0F900FBE0F901F9018951F920F9238
:100640000FB60F9211240BB60F922F938F939F9397
:10065000EF93FF93E0913901F0913A018081E091AD
:100660003F01F091400182FD1DC0908180914201C7
:100670008F5F8F7320914301821741F0E091420117
:10068000F0E0E75DFE4F958F80934201FF91EF917F
:100690009F918F912F910F900BBE0F900FBE0F90D7
:1006A0001F9018958081F2CF1F920F920FB60F9274
:1006B00011242F933F938F939F93AF93BF93809178
:1006C000210190912201A0912301B0912401309148
:1006D000200126E0230F2D3758F50296A11DB11DEC
:1006E000209320018093210190932201A093230164
:1006F000B09324018091250190912601A0912701BA
:10070000B09128010196A11DB11D80932501909300
:100710002601A0932701B0932801BF91AF919F912B
:100720008F913F912F910F900FBE0F901F901895B2
:1007300029E8230F0396A11DB11DD2CFCF93DF93DC
:1007400010922C0110922B0188EE93E0A0E0B0E013
:1007500080932D0190932E01A0932F01B09330012F
:1007600084E091E090932A018093290180E990E050
:10077000909336018093350189E290E0909338019F
:10078000809337018BE290E090933A018093390196
:100790008AE290E090933C0180933B0185E990E0F0
:1007A00090933E0180933D018CE290E09093400154
:1007B00080933F0110924201109243011092440134
:1007C0001092450148EF50E0FA01649183EC90E00B
:1007D000FC0124912223C1F030E0220F331FF901E4
:1007E000E456FF4FA591B491F901E457FF4FC5912D
:1007F000D4917FB7F8943C91262F209532233C93D7
:100800003881232328837FBFFA0144914093C60196
:10081000FC018491E82FF0E0EE0FFF1FE455FF4F3D
:10082000859194919093C8018093C7011092D10152
:100830001092D3011092D2011092D0011092CF01E8
:100840001092CE011092CD011092CC011092CB01EA
:100850001092CA011092C901DF91CF910895789446
:1008600083B7806483BF83B7886083BF83B78460A6
:1008700083BF87B7816087BF1EBC8EB582608EBD87
:100880008EB581608EBD8FB581608FBD85B584606A
:1008900085BD85B5806485BD80918A008260809326
:1008A0008A0080918A00816080938A0080918B0009
:1008B000816080938B00329A319A3098379A1AB8B7
:1008C000E0913901F0913A0182E08083E0913501B5
:1008D000F09136011082E0913701F091380187E6FE
:1008E000808310924101E0913D01F0913E0186E04C
:1008F0008083E0913B01F0913C01808180618083A5
:10090000E0913B01F0913C01808188608083E0911F
:100910003B01F0913C01808180688083E0913B0144
:10092000F0913C0180818F7D80830E94C0028CEC1D
:100930000E94E50084E40E94E5000E9449024B0108
:100940005C0188EEC82E83E0D82EE12CF12C0E94A9
:100950004902681979098A099B09683E7340810533
:100960009105A8F321E0C21AD108E108F10888EE48
:10097000880E83E0981EA11CB11CC114D104E104AF
:10098000F10429F70E94C0028CEC0E94E5008EEB76
:100990000E94E500C8E0D0E0E12C11E00E94C00018
:1009A0008111E12A110F2197C9F7C8E0D0E0F12C9D
:1009B00011E00E94C0008111F12A110F2197C9F79F
:1009C000B701072E000C880B990B0E94390620E016
:1009D00030E040E85DE30E94EE066B017C014B01D4
:1009E0005C01AC019B010E945B07882359F080E108
:1009F00091E00E946F028CE191E00E946F020E94E0
:100A0000320293CF26013701E89477F82FEF3FEFBA
:100A10004FE75FE7C301B2010E945B0781110DC080
:100A20002FEF3FEF4FE75FE7C301B2010E940306DC
:100A300018161CF484E191E0DCCF2FEF3FEF4FE775
:100A40005FE4C701B6010E94E90618161CF488E1AC
:100A500091E0CFCF2FEF3FEF4FE75FECC701B6013B
:100A60000E94030687FDF3CF20E030E0A901C70113
:100A7000B6010E94030687FF0BC06DE289E291E098
:100A80000E94CB0146015701B7FAB094B7F8B09471
:100A90002AE037ED43EA5BE3C501B4010E94970504
:100AA0004B015C010E9408066B017C010E94370625
:100AB0009B01AC01C501B4010E9496054B015C018C
:100AC0004AE0C701B6010E947C026EE289E291E031
:100AD0000E94CB0120E030E040E251E4C501B401C6
:100AE0000E94EE064B015C010E9408066B01F12C8E
:100AF000E12C4AE0C701B6010E947C02C701B601A1
:100B00000E9437069B01AC01C501B4010E94960505
:100B100020E030E040E251E40E94EE060E94080628
:100B200090E080E04AE00E947C0265CF5058BB27ED
:100B3000AA270E94AE050C94AF060E94A10638F0C9
:100B40000E94A80620F039F49F3F19F426F40C9473
:100B50009E060EF4E095E7FB0C949806E92F0E94A0
:100B6000C00658F3BA17620773078407950720F089
:100B700079F4A6F50C94E2060EF4E0950B2EBA2F4C
:100B8000A02D0B01B90190010C01CA01A001112493
:100B9000FF27591B99F0593F50F4503E68F11A163F
:100BA000F040A22F232F342F4427585FF3CF4695D0
:100BB00037952795A795F0405395C9F77EF41F16F2
:100BC000BA0B620B730B840BBAF09150A1F0FF0FBC
:100BD000BB1F661F771F881FC2F70EC0BA0F621FA8
:100BE000731F841F48F4879577956795B795F79598
:100BF0009E3F08F0B0CF9395880F08F09927EE0F2D
:100C00009795879508950E94740608F481E00895E9
:100C10000E94C80688F09F5798F0B92F9927B751BE
:100C2000B0F0E1F0660F771F881F991F1AF0BA9590
:100C3000C9F714C0B13091F00E94E206B1E0089506
:100C40000C94E206672F782F8827B85F39F0B93FF8
:100C5000CCF3869577956795B395D9F73EF4909543
:100C60008095709561957F4F8F4F9F4F0895E894C1
:100C700009C097FB3EF490958095709561957F4FE4
:100C80008F4F9F4F9923A9F0F92F96E9BB27939592
:100C9000F695879577956795B795F111F8CFFAF4A2
:100CA000BB0F11F460FF1BC06F5F7F4F8F4F9F4FD3
:100CB00016C0882311F096E911C0772321F09EE831
:100CC000872F762F05C0662371F096E8862F70E097
:100CD00060E02AF09A95660F771F881FDAF7880F71
:100CE0009695879597F90895990F0008550FAA0BC7
:100CF000E0E8FEEF16161706E807F907C0F012162F
:100D00001306E407F50798F0621B730B840B950B31
:100D100039F40A2661F0232B242B252B21F4089586
:100D20000A2609F4A140A6958FEF811D811D089523
:100D300097F99F6780E870E060E008959FEF80EC8E
:100D4000089500240A941616170618060906089531
:100D500000240A9412161306140605060895092E97
:100D60000394000C11F4882352F0BB0F40F4BF2B06
:100D700011F460FF04C06F5F7F4F8F4F9F4F089546
:100D800057FD9058440F551F59F05F3F71F047953C
:100D9000880F97FB991F61F09F3F79F08795089521
:100DA000121613061406551FF2CF4695F1DF08C040
:100DB000161617061806991FF1CF8695710561055D
:100DC00008940895E894BB2766277727CB0197F905
:100DD00008950E94740608F48FEF08950E94010799
:100DE0000C94AF060E94A10638F00E94A80620F0DD
:100DF000952311F00C9498060C949E0611240C94E3
:100E0000E3060E94C00670F3959FC1F3950F50E072
:100E1000551F629FF001729FBB27F00DB11D639FAC
:100E2000AA27F00DB11DAA1F649F6627B00DA11D52
:100E3000661F829F2227B00DA11D621F739FB00DF8
:100E4000A11D621F839FA00D611D221F749F332768
:100E5000A00D611D231F849F600D211D822F762F01
:100E60006A2F11249F5750409AF0F1F088234AF0DE
:100E7000EE0FFF1FBB1F661F771F881F915050404A
:100E8000A9F79E3F510580F00C9498060C94E30658
:100E90005F3FE4F3983ED4F3869577956795B795D1
:100EA000F795E7959F5FC1F7FE2B880F911D9695EB
:100EB000879597F908950E947406880B990B0895F9
:100EC000A1E21A2EAA1BBB1BFD010DC0AA1FBB1F4E
:100ED000EE1FFF1FA217B307E407F50720F0A21BC0
:100EE000B30BE40BF50B661F771F881F991F1A942D
:100EF00069F760957095809590959B01AC01BD0157
:100F0000CF010895EE0FFF1F0024001C0BBE0790B9
:0A0F1000F691E02D0994F894FFCF4C
:100F1A0000000000CB014501940172018601120212
:100F2A006E616E00696E66006F7666000D0A0000DB
:00000001FF
