:100000000C94A4000C94CE000C94CE000C94CE0062
:100010000C94CE000C94CE000C94CE000C94CE0028
:100020000C94CE000C94CE000C94CE000C94CE0018
:100030000C94CE000C94CE000C94CE000C94CE0008
:100040000C944B050C94CE000C9415050C94EB0409
:100050000C94CE000C94CE000C94CE000C94CE00E8
:100060000C94CE000C94CE000C94CE000C94CE00D8
:100070000C94CE000C94CE000C94CE000C94CE00C8
:100080000C94CE000C94CE000C94CE00005EBCE22A
:10009000613FDD83C29C7E20A3FD1F41009D23BEE6
:1000A00046DB65F88C11AF32CA57E97400003B009B
:1000B00038003500320023006200650000003A007D
:1000C0003700340031002200610064000000390074
:1000D00036003300300021002000630005050505CF
:1000E00005050505020202020202020207070404D6
:1000F00004040404040407070303030303030303C2
:1001000007010101010101010106060606060606B6
:10011000060102040810204080010204081020405B
:10012000800810010204081020408001020102042E
:1001300008102040800480402010080402010102C1
:10014000040810204080950511241FBECFEFD0E198
:10015000DEBFCDBF11E0A0E0B1E0ECE8FAE100E0E5
:100160000BBF02C007900D92A638B107D9F722E065
:10017000A6E8B1E001C01D92A535B207E1F710E095
:10018000C4EAD0E004C02197FE010E94160CC33AD5
:10019000D107C9F70E943E060C94440D0C94000050
:1001A0000895AF92BF92CF92DF92EF92FF920F939A
:1001B0001F93CF93DF936C017B018B01040F151FFD
:1001C000EB015E01AE18BF08C017D10759F0699165
:1001D000D601ED91FC910190F081E02DC6010995C9
:1001E000892B79F7C501DF91CF911F910F91FF9076
:1001F000EF90DF90CF90BF90AF900895FC01918D6C
:10020000828D981761F0A28DAE0FBF2FB11D5D9644
:100210008C91928D9F5F9F73928F90E008958FEFE6
:100220009FEF0895FC01918D828D981731F0828D9A
:10023000E80FF11D858D90E008958FEF9FEF0895F1
:10024000FC01918D228D892F90E0805C9F4F821B55
:1002500091098F739927089583E991E00E94200105
:1002600021E0892B09F420E0822F0895FC01A48D60
:10027000A80FB92FB11DA35ABF4F2C91848D90E0C8
:1002800001968F739927848FA689B7892C93A089AB
:10029000B1898C9180648C93938D848D981306C062
:1002A0000288F389E02D80818F7D80830895EF920D
:1002B000FF920F931F93CF93DF93EC0181E0888F20
:1002C0009B8D8C8D981316C0E889F989808185FFF4
:1002D00011C0EE89FF896083E889F9898081806493
:1002E000808381E090E0DF91CF911F910F91FF908B
:1002F000EF900895F62E0B8D10E00F5F1F4F0F73D8
:100300001127E02E8C8D8E110CC00FB607FCFACF92
:10031000E889F989808185FFF5CFCE010E943601F9
:10032000F1CFEB8DEC0FFD2FF11DE35AFF4FF08263
:100330000B8FEA89FB8980818062D2CFCF93DF93D4
:10034000EC01888D8823B9F0AA89BB89E889F989ED
:100350008C9185FD03C0808186FD0DC00FB607FC22
:10036000F7CF8C9185FFF2CF808185FFEDCFCE0155
:100370000E943601E9CFDF91CF91089580E090E0AF
:10038000892B29F00E942C0181110E94000080E03D
:1003900090E0892B49F080E090E0892B29F00E94C1
:1003A000000081110C94000008953FB7F8948091EB
:1003B000870190918801A0918901B0918A0122B7AB
:1003C00006B600FE05C02F3F19F00196A11DB11D14
:1003D0003FBFBA2FA92F982F8827BC01CD01620FEC
:1003E000711D811D911D43E0660F771F881F991FA6
:1003F0004A95D1F708958F929F92AF92BF92CF9274
:10040000DF92EF92FF926B017C010E94D5014B01BC
:100410005C01C114D104E104F104B9F00E94D501DA
:10042000681979098A099B09683E7340810591051D
:1004300080F321E0C21AD108E108F10888EE880EA5
:1004400083E0981EA11CB11CE4CFFF90EF90DF90D9
:10045000CF90BF90AF909F908F900895DC0180E087
:10046000615090F09D919827E92FEF70F0E0E457EC
:10047000FF4F2491E92FE295EF70F0E0E456FF4F33
:10048000E491822F8E27ECCF0895DC012C911196F8
:10049000ED91FC91F8948181822B81839281322F9E
:1004A00030959323928382E090E00197F1F7818168
:1004B0008323818380E190E00197F1F79081789424
:1004C000E6E6F0E03197F1F7922381E009F480E06D
:1004D0000895FC0190810180F281E02D292F209563
:1004E00060FF14C0F8948281822382838181892BEA
:1004F0008183A0E1B0E01197F1F78281982B92837C
:1005000078948AE690E00197F1F70895F894828153
:10051000822382838181892B8183AEE7B0E01197AA
:10052000F1F78281982B9283789486E090E0EBCF6C
:10053000DF92EF92FF920F931F93CF93DF93EC0123
:10054000D62EE42E08E010E0FF24F39461E08D2D18
:100550008F2109F460E0CE010E946902FF0C015076
:100560001109A1F7E11010C0F894E981FA81918195
:100570008881809589238183E981FA8192818881AC
:100580008095892382837894DF91CF911F910F9179
:10059000FF90EF90DF900895EF92FF920F931F93DB
:1005A000CF93DF938C017B0140E065E50E949802C8
:1005B000E70188E0E80EF11C699140E0C8010E9463
:1005C0009802CE15DF05C1F7DF91CF911F910F91F2
:1005D000FF90EF900895FC0101900020E9F731971A
:1005E000AF01481B590BBC0183E991E00C94D10089
:1005F0008F929F92AF92BF920F931F93CF93DF93EF
:10060000CDB7DEB7A1970FB6F894DEBF0FBECDBF52
:1006100019A2423008F44AE08E010F5D1F4F842E6C
:10062000912CB12CA12CA50194010E94E00BE62F86
:10063000B901CA01EA30F4F4E05DD801EE938D010E
:10064000232B242B252B79F790E080E0109719F0CD
:10065000CD010E94EB02A1960FB6F894DEBF0FBE4B
:10066000CDBFDF91CF911F910F91BF90AF909F9021
:100670008F900895E95CE1CF8CE191E00C94EB025E
:10068000CF92DF92EF92FF92CF93DF9397FF1BC041
:100690006B017C016DE283E991E00E945701EC015E
:1006A00066277727CB016C197D098E099F094AE0DF
:1006B0000E94F8028C0F9D1FDF91CF91FF90EF9069
:1006C000DF90CF9008954AE0DF91CF91FF90EF90B7
:1006D000DF90CF900C94F802FC0190810180F281B0
:1006E000E02DF8948181292F2095822381837894AD
:1006F0003DE7315011F180818923D9F3F89482814B
:10070000822382838181892B81837894ACEBB3E04F
:100710001197F1F7F894818182238183A8E8B0E0F2
:100720001197F1F78081982381E009F080E07894B7
:10073000E0E3F3E03197F1F7089580E008958F92B8
:100740009F92AF92BF92CF92DF92EF92FF920F9360
:100750001F93CF93DF938C01EB0180913502909131
:1007600036020E946C03811102C090E03EC0B801C5
:1007700080913502909136020E94CC0240E06EEBEF
:1007800080913502909136020E9498028E015E019E
:1007900089E0A80EB11C809035029090360288E066
:1007A000C82ED12CF12CEE24E394C4010E94450202
:1007B0008111FE28EE0CE1E0CE1AD108B1F7F80164
:1007C000F1928F01EA15FB0531F780913502909186
:1007D00036020E946C03813041F668E0CE010E942F
:1007E0002E0291E028852813C0CF892FDF91CF9169
:1007F0001F910F91FF90EF90DF90CF90BF90AF903F
:100800009F908F900895CF93DF93CDB7DEB7299750
:100810000FB6F894DEBF0FBECDBFFC0120812031A2
:1008200099F0BE016F5F7F4F0E949F03882331F0D4
:100830008D818F33A9F020F48F31A1F080E007C0C3
:100840008F3521F08F37D1F78CE001C08BE02996EE
:100850000FB6F894DEBF0FBECDBFDF91CF910895E4
:100860008AE0F5CF89E0F3CFBF92CF92DF92EF928B
:10087000FF920F931F93CF93DF93EC01B62EC72EF9
:100880008D85811105C0CE010E946C0381110EC0BF
:100890001B861D861C8680E0DF91CF911F910F91F2
:1008A000FF90EF90DF90CF90BF90089540E060EF11
:1008B000CE010E94980201E0E12CD12C11E0CE0182
:1008C0000E944502F82ECE010E94450291E0F912E5
:1008D00018C0813099F51134D8F2DB86D11002C0EE
:1008E00081E08D878B81882399F22396EB2DFC2D57
:1008F000CF01089629912193E817F907D9F781E0EC
:10090000CBCFEE2DF0E0F8120FC08B851817A0F4B6
:10091000DE01AE0FBF1F13968C91802379F4F12C6A
:10092000193008F41C87D12EEC0FFD1F8381902F06
:100930009095892383830AC08113F1CFFE01EE0DC8
:10094000F11D8381802B8383FF24F3946F2DCE01CF
:100950000E9469021F5F000F11F4E39401E087E039
:100960008E1508F0ACCFB7CFFF920F931F93CF93A4
:10097000DF938C01F62EE0913502F091360213865A
:1009800015861486128611861086178216821582A5
:1009900014821382C0E0B801809135029091360232
:1009A0000E943404D82F882329F0FC1629F0CF5F49
:1009B000FC1688F7D0E008C067E0C8010E942E024C
:1009C000F80197818913F3CF8D2FDF91CF911F917C
:1009D0000F91FF9008951F920F920FB60F9211245E
:1009E0000BB60F922F933F934F935F936F937F9329
:1009F0008F939F93AF93BF93EF93FF9383E991E01E
:100A00000E943601FF91EF91BF91AF919F918F911D
:100A10007F916F915F914F913F912F910F900BBEFE
:100A20000F900FBE0F901F9018951F920F920FB648
:100A30000F9211240BB60F922F938F939F93EF93E6
:100A4000FF93E091A301F091A4018081E091A901BD
:100A5000F091AA0182FD1DC090818091AC018F5F51
:100A60008F732091AD01821741F0E091AC01F0E06D
:100A7000ED56FE4F958F8093AC01FF91EF919F91C2
:100A80008F912F910F900BBE0F900FBE0F901F9064
:100A900018958081F2CF1F920F920FB60F921124FA
:100AA0002F933F938F939F93AF93BF9380918D012B
:100AB00090918E01A0918F01B091900130918601AB
:100AC00026E0230F2D3758F50296A11DB11D209366
:100AD000860180938D0190938E01A0938F01B09336
:100AE00090018091870190918801A0918901B09136
:100AF0008A010196A11DB11D809387019093880101
:100B0000A0938901B0938A01BF91AF919F918F917A
:100B10003F912F910F900FBE0F901F90189529E8CD
:100B2000230F0396A11DB11DD2CFCF93DF93109257
:100B300096011092950188EE93E0A0E0B0E08093DA
:100B4000970190939801A0939901B0939A0180E145
:100B500091E0909394018093930180E990E09093C9
:100B6000A00180939F0189E290E09093A20180937D
:100B7000A1018BE290E09093A4018093A3018AE20B
:100B800090E09093A6018093A50185E990E0909371
:100B9000A8018093A7018CE290E09093AA01809332
:100BA000A9011092AC011092AD011092AE01109209
:100BB000AF0148E151E0FA01649183EE90E0FC015D
:100BC00024912223C1F030E0220F331FF901E454B5
:100BD000FF4FA591B491F901E455FF4FC591D49110
:100BE0007FB7F8943C91262F209532233C9338818F
:100BF000232328837FBFFA01449140934302FC01E1
:100C00008491E82FF0E0EE0FFF1FE453FF4F859132
:100C10009491909345028093440210924E02109258
:100C2000500210924F0210924D0210924C021092FC
:100C30004B0210924A0210924902109248021092FE
:100C400047021092460280ED90E09093420280931A
:100C5000410283E492E09093360280933502109231
:100C600034021092300289E08093310281E0809357
:100C7000320280933302DF91CF910895CF93DF93B7
:100C8000CDB7DEB7E9970FB6F894DEBF0FBECDBF84
:100C9000789483B7806483BF83B7886083BF83B74A
:100CA000846083BF87B7816087BF1EBC8EB58260BA
:100CB0008EBD8EB581608EBD8FB581608FBD85B5CF
:100CC000846085BD85B5806485BD80918A00826021
:100CD00080938A0080918A00816080938A0080914D
:100CE0008B00816080938B00329A319A3098379ACA
:100CF0001AB8E091A301F091A40182E08083E09111
:100D00009F01F091A0011082E091A101F091A20158
:100D100087E680831092AB01E091A701F091A801D2
:100D200086E08083E091A501F091A6018081806139
:100D30008083E091A501F091A60180818860808385
:100D4000E091A501F091A601808180688083E09107
:100D5000A501F091A60180818F7D8083E09135020D
:100D6000F091360213861586148612861186108637
:100D7000178216821582148213821092340211E0B7
:100D8000BE016F5F7F4F80913502909136020E94C5
:100D90003404882309F44BC067E0CE0101960E9419
:100DA0002E0298858913ECCF80913002811128C0E2
:100DB00080913502909136020E946C03BE016F5FF4
:100DC0007F4F80913502909136020E94CC0240E024
:100DD00064EB80913502909136020E9498028091D6
:100DE0003502909136020E944502082F809135020B
:100DF000909136020E946C03011102C010933002E0
:100E000000913102CE0101960E940304801750F434
:100E10008091310280933102809134028F5F809300
:100E20003402AECFCE0101960E940304F3CF80912D
:100E3000340290E090939201809391018FE191E0D0
:100E40000E94EB026091910170919201072E000CBB
:100E5000880B990B0E9440030E943C0380919101F2
:100E600090919201811520E1920780F543E0880F6F
:100E7000991F4A95E1F70E941F0C90938C01809373
:100E80008B0180913002882321F18FE291E00E9452
:100E9000EB020E943C0310E000E0809191019091F0
:100EA000920108171907C4F4C80133E0880F991F8D
:100EB0003A95E1F720918B0130918C01602F820FE0
:100EC000931F0E94B4040F5F1F4FE7CF8FEF9FEF78
:100ED000D2CF86E491E0DBCFC12CD12C760180917A
:100EE000910190919201C816D906BCF58BE591E06D
:100EF0000E94EB02C701B6010E94400383E691E025
:100F00000E94EB0200918B0110918C01C60123E03D
:100F1000880F991F2A95E1F7080F191FB12CF801C6
:100F200081918F01803120F48EE691E00E94EB02E6
:100F3000F8013197608170E090E080E040E10E942C
:100F4000F802B394F8E0BF12EACF0E943C032FEFFF
:100F5000C21AD20AE20AF20AC2CF0E943C0310E08F
:100F600000E08FE7C82E9CE0D92E809191019091EE
:100F70009201081719070CF0C4C1E0908B01F090A2
:100F80008C01C801B3E0880F991FBA95E1F7E80E0C
:100F9000F91EC7010E9403048C3009F472C0BE011F
:100FA0006F5F7F4FC7010E949F03882309F469C0C8
:100FB000F7018081803109F464C0CD8280913502CF
:100FC000909136020E946C03B70180913502909196
:100FD00036020E94CC0240E06EE48091350290918E
:100FE00036020E94980240E06B8180913502909118
:100FF00036020E94980240E06C8180913502909107
:1010000036020E949802F7018081803141F040E071
:101010006D8180913502909136020E9498028091F4
:101020003502909136020E946C03B701809135021F
:10103000909136020E94CC024091300268E4809187
:101040003502909136020E94980264E170E080E0DF
:1010500090E00E94FB0180913002882331F06AE029
:1010600070E080E090E00E94FB0180913502909159
:1010700036020E946C0380913102D09231028D3091
:1010800018F40F5F1F4F71CFF12CE12C80913402C7
:101090008E151F04B1F3ACF36E2DCE0189960E941C
:1010A000B404B0903102CE0189960E9403048B15DE
:1010B00040F48091310280933102FFEFEF1AFF0A72
:1010C000E5CFCE0189960E940304F5CF072E000CD0
:1010D000880B990B0E94FB0172C1BE01675D7F4FB7
:1010E000CE01C2960E949F03882309F47DC16AA5A0
:1010F00070E0762F6627770F770F770F29A558E0D6
:10110000259F90011124262B372B8AA98031D1F4F9
:1011100068A970E08FA5FB01E81BF109CF01969546
:10112000982F8827979587950E94CC0BCB014097E5
:10113000B90153E0660F771F5A95E1F760789C017B
:10114000260F371F2138F4EE3F070CF44DC1B901CB
:10115000330F880B990B0E94A50A20E030E040E095
:101160005CE30E945A0B44C1812C912C5401809164
:10117000910190919201881699060CF0B8C08BE508
:1011800091E00E94EB02C501B4010E94400380E798
:1011900091E00E94EB02F801C190D190E190F190B2
:1011A0008F01A7019601C701B6010E94C70B8823D2
:1011B00061F08AE791E00E94EB020E943C03FFEF9E
:1011C0008F1A9F0AAF0ABF0AD2CF26013701E894CF
:1011D00077F82FEF3FEF4FE75FE7C301B2010E94BF
:1011E000C70B81110DC02FEF3FEF4FE75FE7C30142
:1011F000B2010E946F0A18161CF48EE791E0DBCF53
:101200002FEF3FEF4FE75FE4C701B6010E94550B98
:1012100018161CF482E891E0CECF2FEF3FEF4FE796
:101220005FECC701B6010E946F0A87FDF3CF20E093
:1012300030E0A901C701B6010E946F0A87FF09C00B
:101240006DE283E991E00E945701F7FAF094F7F814
:10125000F0942AE037ED43EA5BE3C701B6010E9450
:10126000030A2B013C010E94740A6B017C010E945D
:10127000A30A9B01AC01C301B2010E94020A2B0127
:101280003C014AE0C701B6010E94F8026EE283E920
:1012900091E00E94570120E030E040E251E4C301B8
:1012A000B2010E945A0B2B013C010E94740A6B018F
:1012B000F12CE12C4AE0C701B6010E94F802C701F7
:1012C000B6010E94A30A9B01AC01C301B2010E94B6
:1012D000020A20E030E040E251E40E945A0B0E94F2
:1012E000740A90E080E04AE00E94F80266CF0E9413
:1012F0003C0368EE73E080E090E00E94FB010E94F6
:10130000BE0180913502909136020E946C0340E04C
:101310006CEC80913502909136020E9498024091C7
:10132000300264E480913502909136020E94980266
:1013300080913202882309F442C0E0913102E950E1
:101340006EEE72E0E33038F4F0E0EE0FFF1FEA5F7C
:10135000FE4F6081718180913302882309F4B6CEFB
:10136000809130028111B2CE8FB7F89480908D01B8
:1013700090908E01A0908F01B09090018FBF6B0173
:10138000770FEE08FF0880913502909136020E9497
:1013900045028130A1F02FB7F89480918D01909192
:1013A0008E01A0918F01B09190012FBF8C199D09E2
:1013B000AE09BF0988159905AA05BB0520F38E0162
:1013C0000F5F1F4F6801F12CE12C809191019091EA
:1013D0009201E816F9060CF0C7CE6E2DCE01C2962A
:1013E0000E94B404811179CE60E070E08EEF92EC3F
:1013F000F60161937193819391936F01FFEFEF1A5F
:10140000FF0AE3CF5058BB27AA270E941A0A0C9460
:101410001B0B0E940D0B38F00E94140B20F039F4C6
:101420009F3F19F426F40C940A0B0EF4E095E7FBA9
:101430000C94040BE92F0E942C0B58F3BA17620787
:1014400073078407950720F079F4A6F50C944E0BEA
:101450000EF4E0950B2EBA2FA02D0B01B9019001CF
:101460000C01CA01A0011124FF27591B99F0593F13
:1014700050F4503E68F11A16F040A22F232F342F5B
:101480004427585FF3CF469537952795A795F040A9
:101490005395C9F77EF41F16BA0B620B730B840BBE
:1014A000BAF09150A1F0FF0FBB1F661F771F881F76
:1014B000C2F70EC0BA0F621F731F841F48F48795CE
:1014C00077956795B795F7959E3F08F0B0CF9395C0
:1014D000880F08F09927EE0F9795879508950E9439
:1014E000E00A08F481E008950E94340B88F09F57C9
:1014F00098F0B92F9927B751B0F0E1F0660F771F38
:10150000881F991F1AF0BA95C9F714C0B13091F02D
:101510000E944E0BB1E008950C944E0B672F782F6C
:101520008827B85F39F0B93FCCF3869577956795F2
:10153000B395D9F73EF490958095709561957F4F5E
:101540008F4F9F4F0895E89409C097FB3EF4909504
:101550008095709561957F4F8F4F9F4F9923A9F08C
:10156000F92F96E9BB279395F6958795779567951B
:10157000B795F111F8CFFAF4BB0F11F460FF1BC05F
:101580006F5F7F4F8F4F9F4F16C0882311F096E9F2
:1015900011C0772321F09EE8872F762F05C06623A0
:1015A00071F096E8862F70E060E02AF09A95660F59
:1015B000771F881FDAF7880F9695879597F9089512
:1015C000990F0008550FAA0BE0E8FEEF1616170654
:1015D000E807F907C0F012161306E407F50798F0BC
:1015E000621B730B840B950B39F40A2661F0232BD5
:1015F000242B252B21F408950A2609F4A140A69551
:101600008FEF811D811D089597F99F6780E870E035
:1016100060E008959FEF80EC089500240A94161668
:10162000170618060906089500240A9412161306D0
:10163000140605060895092E0394000C11F488235E
:1016400052F0BB0F40F4BF2B11F460FF04C06F5F7A
:101650007F4F8F4F9F4F089557FD9058440F551F50
:1016600059F05F3F71F04795880F97FB991F61F024
:101670009F3F79F087950895121613061406551F9B
:10168000F2CF4695F1DF08C0161617061806991F07
:10169000F1CF86957105610508940895E894BB27FC
:1016A00066277727CB0197F908950E94E00A08F48E
:1016B0008FEF08950E946D0B0C941B0B0E940D0B75
:1016C00038F00E94140B20F0952311F00C94040BB9
:1016D0000C940A0B11240C944F0B0E942C0B70F3EA
:1016E000959FC1F3950F50E0551F629FF001729FC7
:1016F000BB27F00DB11D639FAA27F00DB11DAA1FD6
:10170000649F6627B00DA11D661F829F2227B00D22
:10171000A11D621F739FB00DA11D621F839FA00DAD
:10172000611D221F749F3327A00D611D231F849FFD
:10173000600D211D822F762F6A2F11249F57504054
:101740009AF0F1F088234AF0EE0FFF1FBB1F661FCF
:10175000771F881F91505040A9F79E3F510580F098
:101760000C94040B0C944F0B5F3FE4F3983ED4F3BE
:10177000869577956795B795F795E7959F5FC1F73C
:10178000FE2B880F911D9695879597F908950E94D5
:10179000E00A880B990B089597FB072E16F4009426
:1017A00007D077FD09D00E94020C07FC05D03EF45B
:1017B000909581959F4F0895709561957F4F0895FD
:1017C000A1E21A2EAA1BBB1BFD010DC0AA1FBB1F45
:1017D000EE1FFF1FA217B307E407F50720F0A21BB7
:1017E000B30BE40BF50B661F771F881F991F1A9424
:1017F00069F760957095809590959B01AC01BD014E
:10180000CF010895AA1BBB1B51E107C0AA1FBB1F34
:10181000A617B70710F0A61BB70B881F991F5A957C
:10182000A9F780959095BC01CD010895EE0FFF1F9B
:101830000024001C0BBE0790F691E02D09940F9335
:101840001F93CF93DF938230910510F482E090E0F4
:10185000E0915302F091540230E020E0B0E0A0E0CB
:10186000309799F42115310509F44AC0281B390B2A
:1018700024303105D8F58A819B816115710589F184
:10188000FB0193838283FE0111C04081518102815B
:10189000138148175907E0F04817590799F4109732
:1018A00061F012960C93129713961C933296CF0107
:1018B000DF91CF911F910F910895009353021093E0
:1018C0005402F4CF2115310551F04217530738F077
:1018D000A901DB019A01BD01DF01F801C1CFEF01D0
:1018E000F9CF9093540280935302CDCFFE01E20FC3
:1018F000F31F819391932250310939832883D7CFE5
:101900002091510230915202232B41F42091020187
:101910003091030130935202209351022091000133
:10192000309101012115310541F42DB73EB74091A9
:10193000040150910501241B350BE0915102F091F7
:101940005202E217F307A0F42E1B3F0B28173907AA
:1019500078F0AC014E5F5F4F2417350748F04E0F0B
:101960005F1F5093520240935102819391939FCFF6
:10197000F0E0E0E09CCFCF93DF930097E9F0FC012B
:10198000329713821282A0915302B0915402ED015A
:1019900030E020E01097A1F420813181820F931F65
:1019A00020915102309152022817390709F061C085
:1019B000F0935202E0935102DF91CF910895EA0132
:1019C000CE17DF07E8F54A815B819E01411551057D
:1019D000B1F7E901FB83EA8349915991C40FD51FFF
:1019E000EC17FD0761F4808191810296840F951FA9
:1019F000E90199838883828193819B838A83F0E0C4
:101A0000E0E012968D919C9113970097B9F52D9176
:101A10003C911197CD010296820F931F20915102A4
:101A2000309152022817390739F6309751F5109244
:101A3000540210925302B0935202A0935102BCCFB1
:101A4000D383C28340815181840F951FC817D90762
:101A500061F44E5F5F4F88819981480F591F518310
:101A600040838A819B81938382832115310509F00C
:101A7000B0CFF0935402E09353029ECFFD01DC01FE
:0C1A8000C0CF13821282D7CFF894FFCFA2
:101A8C000000550280005E00BC00770100000000E1
:101A9C005701D1002001FE0012019E010D0A0046E3
:101AAC006F756E642073656E736F72733A20004DA0
:101ABC006F646520706F7765722069732050617256
:101ACC006173697465004D6F646520706F77657222
:101ADC00206973204E6F726D616C0044657669638A
:101AEC0065200020416464726573733A20003000F5
:101AFC002054656D7020433A20006E616E00696E53
:061B0C0066006F76660022
:00000001FF
