:100000000C9495000C94BF000C94BF000C94BF009E
:100010000C94BF000C94BF000C94BF000C94BF0064
:100020000C94BF000C94BF000C94BF000C94BF0054
:100030000C94BF000C94BF000C94BF000C94BF0044
:100040000C9437020C94BF000C9482040C94B804F6
:100050000C94BF000C94BF000C94BF000C94BF0024
:100060000C94BF000C94BF000C94BF000C94BF0014
:100070000C94BF000C94BF000C94BF000C94BF0004
:100080000C94BF000C94BF000C94BF000102040844
:100090001020408001020408102040800810010256
:1000A0000408102040800102010204081020408052
:1000B00004804020100804020101020408102040BE
:1000C000800505050505050505020202020202027A
:1000D00002070704040404040404040707030303D9
:1000E00003030303030701010101010101010606E6
:1000F000060606060606000039003600330030000A
:1001000021002000630000003B0038003500320071
:1001100023006200650000003A003700340031001F
:100120002200610064001101EC0411241FBECFEF16
:10013000D0E1DEBFCDBF11E0A0E0B1E0EEE5F2E13D
:1001400000E00BBF02C007900D92A032B107D9F7B3
:1001500021E0A0E2B1E001C01D92A43DB207E1F7A9
:1001600010E0C5E9D0E004C02197FE010E942409F7
:10017000C339D107C9F70E94B6060C942D090C9417
:10018000000026E040E855E260E070E087E391E09F
:100190000C942604CF9380E291E00E94160140E087
:1001A0006CEC80E291E00E94B70140E064E480E200
:1001B00091E00E94B70168EE73E080E090E00E9459
:1001C000A70280E291E00E94160140E06CEC80E220
:1001D00091E00E94B70140E06EEB80E291E00E9466
:1001E000B70180E291E00E94EB01C82F80E291E02C
:1001F0000E94EB01782F6C2F072E000C880B990BB7
:100200000E94DB0720E030E040E85DE30E949008B8
:10021000AB01BC0122E030E087E391E0CF910C9488
:10022000A3066FE080E291E00C941402FF920F931A
:100230001F93CF93DF93FC011081C181D281F89489
:100240008981012F00958023898378948DE7F82E8A
:10025000FA94FF2061F182E090E00E94E002888140
:100260008123B1F3F8948A8180238A838981812B49
:100270008983789480EE91E00E94E002F89489816D
:100280008023898386E490E00E94E002888118231D
:10029000C1E009F0C0E078948AE991E00E94E002B0
:1002A0008C2FDF91CF911F910F91FF900895C0E0A7
:1002B000F7CF1F93CF93DF93FC011081C181D281CF
:1002C000912F909560FF16C0F8948A8189238A83C4
:1002D0008981812B89838AE090E00E94E0028A81F3
:1002E000182B1A83789487E390E0DF91CF911F91C8
:1002F0000C94E002F8948A8189238A838981812B76
:10030000898381E490E00E94E0028A81182B1A839D
:10031000789485E090E0E9CF0F931F93CF93DF931C
:10032000FC011081C181D281F8948981812B89835C
:100330008A81012F009580238A8383E090E00E94C8
:10034000E0028981802389838AE090E00E94E002B4
:10035000C881789485E390E00E94E002C12381E0A7
:1003600009F480E0DF91CF911F910F910895DF9202
:10037000EF92FF920F931F93CF93DF93EC01D62E52
:10038000E42E08E010E0FF24F39461E08D2D8F212E
:1003900009F460E0CE010E945901FF0C01501109DF
:1003A000A1F7E11010C0F894E981FA819181888168
:1003B000809589238183E981FA8192818881809562
:1003C000892382837894DF91CF911F910F91FF90C1
:1003D000EF90DF900895EF92FF920F931F93CF93CA
:1003E000DF937C0108E010E0C0E0D1E0C7010E948B
:1003F0008C018111CD2BDD0F01501109B9F78C2F24
:10040000DF91CF911F910F91FF90EF900895FC0124
:100410001386158614861286118610861782168218
:1004200015821482138208951F93CF93DF93EC01FA
:10043000162F60E0812F0E941903612F70E0FB01ED
:10044000E457FF4FE491E883FB01EF53FF4FE49142
:10045000F0E0EE0FFF1FEA50FF4F859194919A83D1
:100460008983CE01DF91CF911F910C9407021F92D7
:100470000F920FB60F9211242F933F938F939F9358
:10048000AF93BF9380912F0190913001A0913101E2
:10049000B091320130912E0126E0230F2D3758F50F
:1004A0000296A11DB11D20932E0180932F019093E0
:1004B0003001A0933101B0933201809133019091CA
:1004C0003401A0913501B09136010196A11DB11DF5
:1004D0008093330190933401A0933501B09336019A
:1004E000BF91AF919F918F913F912F910F900FBE30
:1004F0000F901F90189529E8230F0396A11DB11D99
:10050000D2CF3FB7F8948091330190913401A091FC
:100510003501B091360122B706B600FE05C02F3F67
:1005200019F00196A11DB11D3FBFBA2FA92F982F19
:100530008827BC01CD01620F711D811D911D43E013
:10054000660F771F881F991F4A95D1F708958F92DC
:100550009F92AF92BF92CF92DF92EF92FF926B0188
:100560007C010E9481024B015C01C114D104E104B1
:10057000F104E9F00E94C5060E9481026819790918
:100580008A099B09683E73408105910570F321E05B
:10059000C21AD108E108F10888EE880E83E0981E9F
:1005A000A11CB11CC114D104E104F10429F7FF908E
:1005B000EF90DF90CF90BF90AF909F908F90089575
:1005C0008330910528F0880F991F04970197F1F760
:1005D0000895789483B7806483BF83B7886083BFAE
:1005E00083B7846083BF87B7816087BF1EBC8EB529
:1005F00082608EBD8EB581608EBD8FB581608FBDEE
:1006000085B5846085BD85B5806485BDEAE8F0E088
:10061000808182608083808181608083EBE8F0E06C
:10062000808181608083329A319A3098379A1AB8E3
:100630000895CF93DF9390E0FC01E457FF4F24919E
:100640008F539F4FFC0184918823C9F090E0880F5D
:10065000991FFC01EA5EFE4FA591B491FC01EA5F8F
:10066000FE4FC591D49161110DC09FB7F8948C9144
:10067000209582238C938881282328839FBFDF9134
:10068000CF910895623051F49FB7F8943C91822F36
:10069000809583238C93E8812E2BEFCF8FB7F8942E
:1006A000EC912E2B2C938FBFEACFFC01918D228DE4
:1006B000892F90E0805C9F4F821B91098F7399274F
:1006C0000895FC01918D828D981731F0828DE80F8D
:1006D000F11D858D90E008958FEF9FEF0895FC0147
:1006E000918D828D981761F0A28DAE0FBF2FB11D35
:1006F0005D968C91928D9F5F9F73928F90E008958D
:100700008FEF9FEF089582EE94E0892B49F080E00F
:1007100090E0892B29F00E94E20481110E940000E0
:1007200080E090E0892B49F080E090E0892B29F06F
:100730000E94000081110C9400000895FC01A48D1A
:10074000A80FB92FB11DA35ABF4F2C91848D90E0F3
:1007500001968F739927848FA689B7892C93A089D6
:10076000B1898C9180648C93938D848D981306C08D
:100770000288F389E02D80818F7D80830895CF9357
:10078000DF93EC01888D8823B9F0AA89BB89E889B9
:10079000F9898C9185FD03C0808186FD0DC00FB65F
:1007A00007FCF7CF8C9185FFF2CF808185FFEDCFDD
:1007B000CE010E949E03E9CFDF91CF910895EF9281
:1007C000FF920F931F93CF93DF93EC0181E0888F0B
:1007D0009B8D8C8D981316C0E889F989808185FFDF
:1007E00011C0EE89FF896083E889F989808180647E
:1007F000808381E090E0DF91CF911F910F91FF9076
:10080000EF900895F62E0B8D10E00F5F1F4F0F73C2
:100810001127E02E8C8D8E110CC00FB607FCFACF7D
:10082000E889F989808185FFF5CFCE010E949E037A
:10083000F1CFEB8DEC0FFD2FF11DE35AFF4FF0824E
:100840000B8FEA89FB8980818062D2CFCF92DF92C1
:10085000EF92FF921F93CF93DF93EC016A017B012C
:10086000122F60E874E88EE190E0A70196010E94E3
:10087000020921503109410951095695479537958B
:100880002795E889F98982E08083211580E138077E
:1008900098F0E889F989108260E472E48FE090E0D2
:1008A000A70196010E94020921503109410951090D
:1008B0005695479537952795EC85FD853083EE85D0
:1008C000FF852083188EEC89FD891083EA89FB89D6
:1008D000808180618083EA89FB8980818860808350
:1008E000EA89FB89808180688083EA89FB8980812D
:1008F0008F7D8083DF91CF911F91FF90EF90DF90EC
:10090000CF9008951F920F920FB60F9211240BB63D
:100910000F922F938F939F93EF93FF93E091470153
:10092000F09148018081E0914D01F0914E0182FDEE
:100930001DC09081809150018F5F8F732091510174
:10094000821741F0E0915001F0E0E95CFE4F958F95
:1009500080935001FF91EF919F918F912F910F9074
:100960000BBE0F900FBE0F901F9018958081F2CF95
:100970001F920F920FB60F9211240BB60F922F9366
:100980003F934F935F936F937F938F939F93AF9317
:10099000BF93EF93FF9387E391E00E949E03FF9143
:1009A000EF91BF91AF919F918F917F916F915F91E7
:1009B0004F913F912F910F900BBE0F900FBE0F9054
:1009C0001F90189587E391E00E94550321E0892B41
:1009D00009F420E0822F0895E7E3F1E01382128208
:1009E00088EE93E0A0E0B0E084839583A683B7838C
:1009F00084E091E09183808380E990E0958784870B
:100A000089E290E0978786878BE290E0918B808BDC
:100A10008AE290E0938B828B85E990E0958B848BC2
:100A20008CE290E0978B868B118E128E138E148E33
:100A30000895AF92BF92CF92DF92EF92FF920F9301
:100A40001F93CF93DF936C017B018B01040F151F64
:100A5000EB015E01AE18BF08C017D10759F06991CC
:100A6000D601ED91FC910190F081E02DC601099530
:100A7000892B79F7C501DF91CF911F910F91FF90DD
:100A8000EF90DF90CF90BF90AF900895FB01019061
:100A90000020E9F73197AF01461B570BDC01ED91C0
:100AA000FC910280F381E02D0994DC01ED91FC9131
:100AB0000190F081E02D099460E171E00C9446050D
:100AC0008F929F92AF92BF92EF92FF920F931F93DC
:100AD000CF93DF93CDB7DEB7A1970FB6F894DEBF03
:100AE0000FBECDBF7C01FA01CB0119A2223008F460
:100AF0002AE08E010F5D1F4F822E912CB12CA12C6C
:100B0000BF01A50194010E940209F901CA016A30DE
:100B10000CF5605DD8016E938D01232B242B252BC2
:100B200079F790E080E0109721F0BD01C7010E94A5
:100B30004605A1960FB6F894DEBF0FBECDBFDF917C
:100B4000CF911F910F91FF90EF90BF90AF909F902A
:100B50008F900895695CDECF2115310541F4DC01E9
:100B6000ED91FC910190F081E02D642F09940C949B
:100B700060059A01AB0170E060E00C94AC052F9227
:100B80003F924F925F926F927F928F929F92AF921D
:100B9000BF92CF92DF92EF92FF921F93CF93DF939A
:100BA000EC016A017B01722EAB019601CB01B6010B
:100BB0000E94FD0863E171E0811126C046015701E2
:100BC000E894B7F82FEF3FEF4FE75FE7C501B401B7
:100BD0000E94FD0881110CC02FEF3FEF4FE75FE748
:100BE000C501B4010E94330767E171E0181664F093
:100BF0002FEF3FEF4FE75FE4C701B6010E948B087C
:100C00001816B4F46BE171E0CE01DF91CF911F9122
:100C1000FF90EF90DF90CF90BF90AF909F908F901C
:100C20007F906F905F904F903F902F900C9446056F
:100C30002FEF3FEF4FE75FECC701B6010E9433078C
:100C400087FDE0CF20E030E0A901C701B6010E9496
:100C50003307312C212C87FF09C06DE2CE010E94A1
:100C600055051C01F7FAF094F7F8F09410E060E0F5
:100C700070E080E09FE3711641F020E030E040E258
:100C800051E40E9438071F5FF6CFA70196010E942A
:100C9000C7062B013C010E94AA074B015C012AE018
:100CA000BC01A401CE010E9460057C01E20CF31C92
:100CB0001123B1F1C501B4010E94D9079B01AC0118
:100CC000C301B2010E94C6064B015C016EE2CE0177
:100CD0000E945505E80EF91E115010F120E030E099
:100CE00040E251E4C501B4010E9490082B013C018F
:100CF0000E94AA074B014AE050E0CE010E94B905CC
:100D0000E80EF91EB40190E080E00E94D9079B0133
:100D1000AC01C301B2010E94C6064B015C01DCCFED
:100D2000C701DF91CF911F91FF90EF90DF90CF909F
:100D3000BF90AF909F908F907F906F905F904F90FB
:100D40003F902F9008950F931F93CF93DF93EC0163
:100D50000E94BF058C01CE010E945C05800F911F8F
:100D6000DF91CF911F910F91089508950E94E9029C
:100D70000E94B5060E94C100C3E8D3E00E94CA00E9
:100D80002097E1F30E948303F9CF08955058BB27C1
:100D9000AA270E94DE060C9451080E94430838F0EE
:100DA0000E944A0820F039F49F3F19F426F40C946D
:100DB00040080EF4E095E7FB0C943A08E92F0E94F6
:100DC000620858F3BA17620773078407950720F083
:100DD00079F4A6F50C9484080EF4E0950B2EBA2F46
:100DE000A02D0B01B90190010C01CA01A001112431
:100DF000FF27591B99F0593F50F4503E68F11A16DD
:100E0000F040A22F232F342F4427585FF3CF46956D
:100E100037952795A795F0405395C9F77EF41F168F
:100E2000BA0B620B730B840BBAF09150A1F0FF0F59
:100E3000BB1F661F771F881FC2F70EC0BA0F621F45
:100E4000731F841F48F4879577956795B795F79535
:100E50009E3F08F0B0CF9395880F08F09927EE0FCA
:100E60009795879508950E94160808F481E00895E3
:100E70000E944C070C9451080E944A0858F00E94A6
:100E8000430840F029F45F3F29F00C943A085111CF
:100E90000C9485080C9440080E94620868F399231A
:100EA000B1F3552391F3951B550BBB27AA27621766
:100EB0007307840738F09F5F5F4F220F331F441F73
:100EC000AA1FA9F335D00E2E3AF0E0E832D09150A7
:100ED0005040E695001CCAF72BD0FE2F29D0660F94
:100EE000771F881FBB1F261737074807AB07B0E8D7
:100EF00009F0BB0B802DBF01FF2793585F4F3AF0DD
:100F00009E3F510578F00C943A080C9485085F3F99
:100F1000E4F3983ED4F3869577956795B795F79562
:100F20009F5FC9F7880F911D9695879597F908954A
:100F3000E1E0660F771F881FBB1F621773078407E6
:100F4000BA0720F0621B730B840BBA0BEE1F88F7F5
:100F5000E09508950E946A0888F09F5798F0B92F8D
:100F60009927B751B0F0E1F0660F771F881F991FDE
:100F70001AF0BA95C9F714C0B13091F00E948408F4
:100F8000B1E008950C948408672F782F8827B85F04
:100F900039F0B93FCCF3869577956795B395D9F736
:100FA0003EF490958095709561957F4F8F4F9F4F40
:100FB0000895E89409C097FB3EF49095809570954C
:100FC00061957F4F8F4F9F4F9923A9F0F92F96E995
:100FD000BB279395F695879577956795B795F1110A
:100FE000F8CFFAF4BB0F11F460FF1BC06F5F7F4FA7
:100FF0008F4F9F4F16C0882311F096E911C07723B9
:1010000021F09EE8872F762F05C0662371F096E8C1
:10101000862F70E060E02AF09A95660F771F881F90
:10102000DAF7880F9695879597F90895990F000834
:10103000550FAA0BE0E8FEEF16161706E807F907AA
:10104000C0F012161306E407F50798F0621B730B45
:10105000840B950B39F40A2661F0232B242B252BC6
:1010600021F408950A2609F4A140A6958FEF811D69
:10107000811D089597F99F6780E870E060E008950A
:101080009FEF80EC089500240A94161617061806A0
:101090000906089500240A9412161306140605067C
:1010A0000895092E0394000C11F4882352F0BB0F0D
:1010B00040F4BF2B11F460FF04C06F5F7F4F8F4F70
:1010C0009F4F089557FD9058440F551F59F05F3FAB
:1010D00071F04795880F97FB991F61F09F3F79F05A
:1010E00087950895121613061406551FF2CF4695DC
:1010F000F1DF08C0161617061806991FF1CF86955E
:101100007105610508940895E894BB276627772741
:10111000CB0197F908950E94160808F48FEF0895FF
:101120000E94A3080C9451080E94430838F00E94C2
:101130004A0820F0952311F00C943A080C944008CA
:1011400011240C9485080E94620870F3959FC1F3E6
:10115000950F50E0551F629FF001729FBB27F00D65
:10116000B11D639FAA27F00DB11DAA1F649F6627BA
:10117000B00DA11D661F829F2227B00DA11D621F09
:10118000739FB00DA11D621F839FA00D611D221FC3
:10119000749F3327A00D611D231F849F600D211DA7
:1011A000822F762F6A2F11249F5750409AF0F1F02A
:1011B00088234AF0EE0FFF1FBB1F661F771F881F93
:1011C00091505040A9F79E3F510580F00C943A0889
:1011D0000C9485085F3FE4F3983ED4F386957795A9
:1011E0006795B795F795E7959F5FC1F7FE2B880F39
:1011F000911D9695879597F908950E941608880B7A
:10120000990B0895A1E21A2EAA1BBB1BFD010DC06C
:10121000AA1FBB1FEE1FFF1FA217B307E407F507A6
:1012200020F0A21BB30BE40BF50B661F771F881F82
:10123000991F1A9469F760957095809590959B0118
:10124000AC01BD01CF010895EE0FFF1F0024001C6B
:0E1250000BBE0790F691E02D0994F894FFCFA5
:10125E0000000000DF03190555036F036103BF0390
:10126E000D0A006E616E00696E66006F7666000094
:0200000002C03C
:00000001FF