:100000000C94E5000C940F010C940F010C940F015B
:100010000C940F010C940F010C940F010C940F0120
:100020000C940F010C940F010C940F010C940F0110
:100030000C940F010C940F010C940F010C940F0100
:100040000C9441080C940F010C94E8090C941E0ABE
:100050000C940F010C940F010C940F010C940F01E0
:100060000C940F010C940F010C940F010C940F01D0
:100070000C940F010C940F010C947F0A0C94B50A98
:100080000C940F010C940F010C940F014E414E493A
:100090004E495459494E46CDCCCC3D0AD7233C1746
:1000A000B7D13877CC2B329595E6241FB14F0A0093
:1000B0000020410000C84200401C4620BCBE4CCA83
:1000C0001B0E5AAEC59D7400407A10F35A00A07200
:1000D0004E18090010A5D4E80000E8764817000083
:1000E000E40B54020000CA9A3B000000E1F5050051
:1000F0000080969800000040420F000000A086019A
:10010000000000102700000000E803000000006469
:1001100000000000000A00000000000100000000D4
:10012000002C76D888DC674F0823DFC1DFAE59E1A9
:10013000B1B796E5E3E453C63AE651997696E8E618
:10014000C28426EB898C9B62ED407C6FFCEFBC9CEB
:100150009F40F2BAA56FA5F490055A2AF75C936BFD
:100160006CF9676DC11BFCE0E40D47FEF520E6B5B8
:1001700000D0ED902E0300943577050080841E0892
:100180000000204E0A000000C80C333333330F98B0
:100190006E12831141EF8D2114893BE65516CFFE77
:1001A000E6DB18D1844B381BF77C1D901DA4BBE403
:1001B00024203284725E228100C9F124ECA1E53D45
:1001C00027003A01520AE90A400111241FBECFEF6D
:1001D000D0E1DEBFCDBF11E0A0E0B1E0ECE6FAE295
:1001E00000E00BBF02C007900D92AE3EB107D9F7F9
:1001F00023E0AEEEB1E001C01D92A73DB207E1F7EA
:1002000010E0C4EED0E004C02197FE010E94A40FCC
:10021000C13ED107C9F70E94350D0C9429150C94E5
:10022000000028EB31E0FC01318320830C940B08A3
:10023000CF93DF93EC010E941101CE01DF91CF91AA
:100240000C94440D26E040E052EC61E070E084E361
:1002500093E00E948C0966E071E084E393E00E94E1
:10026000520B26E040E052EC61E070E087E992E05A
:100270000C948C0967E972E08EE292E00C945802CB
:100280008EE292E00C9411018EE292E00E946402F0
:10029000892B09F401C168E171E084E393E00E94D5
:1002A000650B87E992E00E94D5084AE050E0BC0166
:1002B00084E393E00E94170C8EE292E00E94E9032F
:1002C00080913302823009F4EDC0833009F4EDC02F
:1002D000813009F0E1C066E271E084E393E00E94BE
:1002E000650B60E371E084E393E00E94650B40E1FD
:1002F00050E06EEF71E08EE292E00E94E70740E18D
:1003000050E06EEE71E08EE292E00E94EE0762E451
:1003100071E084E393E00E94520B6EEF71E084E39E
:1003200093E00E94520B6CE471E084E393E00E943E
:10033000520B4091440250914502609146027091E7
:10034000470226E030E084E393E00E94200D6FE452
:1003500071E084E393E00E94520B6EEE71E084E35F
:1003600093E00E94520B6CE471E084E393E00E94FE
:10037000520B409148025091490260914A0270919B
:100380004B0226E030E084E393E00E94200D6AE512
:1003900071E084E393E00E94520B60913402062ED8
:1003A000000C770B4AE050E084E393E00E94170CC6
:1003B00060E671E084E393E00E94520B26E53EE0A4
:1003C0004DEE5FE360913C0270913D0280913E02F0
:1003D00090913F020E94100FAB01BC0122E030E07F
:1003E00084E393E00E94200D68E671E084E393E0EB
:1003F0000E94520B40914002509141026091420292
:100400007091430222E030E084E393E00E94200DEB
:1004100063E771E084E393E00E94520B40E150E017
:100420006EE172E08EE292E00E94F50740E150E05A
:100430006EE072E08EE292E00E94FC074EE152E034
:10044000FA0101900020E9F7AF014F5152406EE1EF
:1004500072E084E393E00E94160B84E393E00E9431
:10046000610B6AE771E084E393E00E94520B4EE077
:1004700052E0FA0101900020E9F7AF014F505240DD
:100480006EE072E084E393E00E94160B65E171E098
:1004900084E393E00E94650B60EB71E084E393E0FA
:1004A0000C94650B61E871E0F3CF60E971E0F0CF87
:1004B000CF93DF93EC010E94030888EB91E09983CE
:1004C0008883DF91CF9108950C940C08CF93DF932C
:1004D000FB018081843209F055C03196CF01861B23
:1004E000970BA191AC32D1F7FB01E80FF91FE08126
:1004F000EC3291F40196DB01A80FB91F8D91FD013B
:10050000E61BF70B8E32D1F7E60FF71FCF01861BE4
:10051000970BA191AC32D1F7FB01E80FF91FE081F5
:10052000EC3251F40196FB01E80FF91FCF01861B55
:10053000970BA191AC32D1F7DC011296FB01EA0FC7
:10054000FB1FE081EC3251F40396FB01E80FF91F29
:10055000DF01A61BB70B81918C32D1F7FD013496D8
:10056000EB01CE0FDF1F88818C3281F41596A60F28
:10057000B71FEA01FD01E61BF70B8D918C3229F0C4
:100580008993F8CF90E080E0AFCF1882DB01AE0F07
:10059000BF1F8C918C3251F4DF011196A60FB71F4B
:1005A000FD01E61BF70B8D918C32D1F7DB01AE0F0D
:1005B000BF1F8C918C3251F43196E60FF71FD90191
:1005C00081918C3211F08D93FBCF1C92DF91CF91F2
:1005D0000895AF92BF92CF92DF92EF92FF920F9366
:1005E0001F93CF93DF93FB0180818432D1F4319646
:1005F000CF01861B970BA191AC32D1F7FB01E80F1D
:10060000F91FE081EC32C9F40196EB01C80FD91F44
:10061000D9018991FE01E61BF70B8E3229F08D93EB
:10062000F8CF90E080E0EACF1C92E60FF71FCF01F1
:10063000861B970B21912C32D1F7FB01E80FF91F94
:1006400020812C3221F42181FA0120830296FB01C2
:10065000E80FF91F20812C32F9F40196EB01C80F45
:10066000D91FC701FC01EE19FF092991DE01A61B64
:10067000B70B2C3261F4A60FB71FEE0DFF1DCD0195
:10068000861B970B2D912C3231F02193F8CFFC0172
:100690002193CF01E7CF1082FB01E80FF91F2081E2
:1006A0002C32F1F40196EB01C80FD91FF6019F011E
:1006B0002C193D098991DE01A61BB70B8C3269F418
:1006C000A60FB71FF601E20FF31FCD01861B970B94
:1006D0002D912C3221F02193F8CF8193E8CF108215
:1006E000FB01E80FF91F20812C3271F40196DB0128
:1006F000A80FB91FF501CD01861B970B2D912C3248
:1007000011F02193F8CF1082FB01E80FF91F20812F
:100710002C3251F40196FB01E80FF91FCF01861B23
:10072000970B21912C32D1F7FB01E80FF91F2081A3
:100730002C3259F40196FB01E80FF91FD801819181
:100740008C3211F08D93FBCF1C92DF91CF911F91D2
:100750000F91FF90EF90DF90CF90BF90AF900895F2
:10076000FA01D90180819AEF980F933088F18111B5
:1007700006C08C9186132BC081E080830895813060
:1007800031F411968C91861322C082E0F6CF82302C
:1007900031F412968C9186131AC083E0EECF833029
:1007A00031F413968C91861312C084E0E6CF843026
:1007B00031F414968C9186130AC085E0DECF853023
:1007C00031F415968C91861302C086E0D6CF108244
:1007D00008952F923F924F925F926F927F928F92E5
:1007E0009F92AF92BF92CF92DF92EF92FF920F93C0
:1007F0001F93CF93DF93CDB7DEB7C95FD1090FB693
:10080000F894DEBF0FBECDBF4C011C018EE5280E53
:10081000311CD1011C92F401E15AFF4FCB50DF4F44
:10082000F983E883C55FD0401082C4010E94170895
:10083000712C612CCE0101962C01D1018C91883054
:1008400051F4CB50DF4FE881F981C55FD040808102
:10085000883009F4CEC0C4010E940C08892B69F3CA
:10086000C4010E942C08C750DF4F8883C95FD04065
:10087000D1018C918630B1F440E650E0B201C40160
:100880000E9437086CEB71E0C2010E941711F2015F
:1008900001900020E9F731973F016418750887E05F
:1008A000F1018083CB50DF4FA881B981C55FD04073
:1008B0008C918630D9F440E650E0B201C4010E9428
:1008C000370863EC71E0C2010E941711F201019038
:1008D0000020E9F731973F016418750887E0CB5095
:1008E000DF4FE881F981C55FD0408083D1018C91D1
:1008F000873071F4C750DF4FB881C95FD040F20133
:10090000E60DF71DBA30B9F1B083F30131963F011E
:10091000CB50DF4FA881B981C55FD0408C91873023
:1009200071F4C750DF4FB881C95FD040F201E60DC6
:10093000F71DBA30A9F1B083F30131963F012CEBDA
:1009400031E0A101C750DF4F6881C95FD040C401C9
:100950000E94B00323EC31E0CB50DF4F4881598136
:10096000C55FD040C750DF4F6881C95FD040C40128
:100970000E94B00362CF10829E012F513F4FAE0103
:1009800047525F4FB201C4010E94660240E650E048
:10099000B201C4010E943708E8E0D101EC93B8CF5E
:1009A0001082CE0187519F4F5C01DE01AF57BF4FD0
:1009B0006D01FE01EF56FF4F7F018E010F551F4F56
:1009C0009E012F543F4FAE014F505F4FB201C40103
:1009D0000E94E90240E650E0B201C4010E943708DB
:1009E000E8E0CB50DF4FA881B981C55FD040EC93E0
:1009F000A6CFCF50DF4F8881C15FD040813401F155
:100A000083E0D40115968C9383E090E0C750DF4FCC
:100A10000FB6F894DEBF0FBECDBFDF91CF911F910F
:100A20000F91FF90EF90DF90CF90BF90AF909F908D
:100A30008F907F906F905F904F903F902F90089590
:100A4000CF54DF4F6881C15BD040F40166AFCE5414
:100A5000DF4F3881C25BD04037AF8AE3E05CFF4FA5
:100A60008083CD54DF4F5881C35BD0403196508393
:100A7000CC54DF4F9881C45BD0403196908331963F
:100A80008083CB54DF4F4881C55BD0403196408393
:100A9000CA54DF4F8881C65BD0403196808331963F
:100AA000108260532AE03D52629F300D1124D40120
:100AB00019963C93199750539053529F900D1124BF
:100AC00018969C93189740538053429F800D112491
:100AD00017968C93CF55DF4F5881C15AD040389626
:100AE0005083CE55DF4F3881C25AD0403196308383
:100AF0008EE231968083CD55DF4F4881C35AD04076
:100B000031964083CC55DF4F9881C45AD0403196FE
:100B100090833196808382E33196808380E331969F
:100B20008083CB55DF4F8881C55AD0403196808372
:100B3000CA55DF4F6881C65AD040319660833196DE
:100B4000108250533053529F300D1124F4013287DC
:100B500040539053429F900D11249387082E000C10
:100B6000990BC097289FA001299F500D1124CA01FD
:100B7000860F911D67FD9A958056984F95878487BB
:100B8000CE0187529F4F0E94F910D40116968C9384
:100B9000CE0187519F4F0E94F510F4016687778739
:100BA000808B918BCE018F519F4F0E94F510D40105
:100BB00052966D937D938D939C9355972E01B1E939
:100BC0004B0E511CA2014E5F5F4FCE018F589F4FBD
:100BD000DC01BD01681B790BFA012191AF012223D1
:100BE00011F02D93F6CFFB01E80FF91F10820E9440
:100BF000F5106B017C01D2018C91082E000C990B31
:100C0000C0972AE0289FB001299F700D1124072E5C
:100C1000000C880B990B0E945B0ECB50DF4F688352
:100C200079838A839B83C55FD04020E030E048EC25
:100C300052E4C701B6010E94100F20E030E040E707
:100C400052E40E94B80D20E030E048EC52E40E94EB
:100C5000B80D9B01AC01CB50DF4F688179818A814F
:100C60009B81C55FD0400E94470D6B017C01F20162
:100C70006181062E000C770B60537109072E000C62
:100C8000880B990B0E945B0E9B01AC01C701B6015A
:100C90000E94470DD40156966D937D938D939C933E
:100CA0005997F20101900020E9F73297208123350E
:100CB00031F49058F401668B778B808F918F3E01D1
:100CC000F1E86F0E711CA3014D5F5F4FCE018F598C
:100CD0009F4FDC01BD01681B790BFA012191AF0127
:100CE000222311F02D93F6CFFB01E80FF91F10829C
:100CF0000E94F5106B017C01D3018C91082E000C31
:100D0000990BC09724E6289FB001299F700D1124EC
:100D1000072E000C880B990B0E945B0ECB50DF4F07
:100D2000688379838A839B83C55FD04020E030E06D
:100D300048EC52E4C701B6010E94100F20E030E0F9
:100D400040E752E40E94B80D20E030E048EC52E465
:100D50000E94B80D9B01AC01CB50DF4F68817981B7
:100D60008A819B81C55FD0400E94470D6B017C0149
:100D7000F3018181082E000C990BC0972AE0289F6F
:100D8000B001299F700D1124072E000C880B990BC0
:100D90000E945B0E9B01AC01C701B6010E94470D8A
:100DA0006B017C01D30112966C91062E000C770B1F
:100DB00060537109072E000C880B990B0E945B0E83
:100DC0009B01AC01C701B6010E94470DF401628F7F
:100DD000738F848F958FF30101900020E9F732978C
:100DE0002081273541F49058D4015A966D937D9314
:100DF0008D939C935D97F2018081D4015E968C93D4
:100E00005E9781815F968C935F978AE290968C9330
:100E10009097828191968C939197838192968C93EF
:100E2000929787E293968C9392012B5F3F4F7E01BE
:100E3000BDECEB0EF11CD701AD014E195F09F901B4
:100E400081919F01882311F08D93F6CFFA01EE0D69
:100E5000FF1D1082C7010E94F51020E030E040E73E
:100E600052E40E94100F20E030E048EC52E40E946F
:100E7000B80D20E030E44CE156E40E94B80D870143
:100E800024E046E00E94AD0FC4018496A6E0B0E0E5
:100E9000F70141917F019D012F5F3F4F442329F0CE
:100EA000DC014D93CD01D901F3CFA80DB91D82E22C
:100EB0005E968C935E97F20101900020E9F7280D71
:100EC000391D32978081F901868F90961C92D3014B
:100ED0008C91512C412C813329F4F40186A74424B0
:100EE0004394512CD30111968C911197F401E40D88
:100EF000F51D86A712968C91129787A78AE280AB80
:100F000013968C91139781AB14968C9182AB7201DE
:100F1000B6E0EB0EF11C87E283AB93012A5F3F4FF3
:100F20001E01E1EC2E0E311CD101AD014219530915
:100F3000F90181919F01882311F08D93F6CFFA0179
:100F4000E20DF31D1082C1010E94F51020E030E097
:100F500040E752E40E94100F20E030E048EC52E4F9
:100F60000E94B80D20E030E44CE156E40E94B80D38
:100F7000810124E046E00E94AD0FF4E34F0E511CC6
:100F8000F401E40DF51DD1012D911D01C70101965C
:100F9000222319F021937C01F6CFD401AE0DBF1DA1
:100FA00022E29E962C939E97F30101900020E9F790
:100FB000880D991D32972081FC0126A7D0961C929E
:100FC00081E0D40115968C9381E090E01FCD9B01C8
:100FD000BC01625E7F4FC9010C9422119B01BC01D0
:100FE000625D7F4FC9010C9422119B01BC01625CC0
:100FF0007F4FC9010C9422119B01BC01625B7F4FA2
:10100000C9010C9422112EEC31E0FC0131832083C4
:101010007383628308950895DC0112968D919C91EB
:10102000DC01ED91FC910480F581E02D0994CF93D2
:10103000DF93EC01CE010E940C08892B51F08A81CC
:101040009B81DC01ED91FC910680F781E02D0995F3
:10105000F1CFDF91CF910895DC0112968D919C9193
:10106000DC01ED91FC910680F781E02D0994FB01F4
:10107000CF01861B970B8417950714F41192F8CFB4
:1010800008951F920F920FB60F9211242F933F9342
:101090008F939F93AF93BF9380918F029091900213
:1010A000A0919102B091920230918E0226E0230F1E
:1010B0002D3758F50296A11DB11D20938E02809305
:1010C0008F0290939002A0939102B093920280912C
:1010D000930290919402A0919502B091960201968C
:1010E000A11DB11D8093930290939402A093950249
:1010F000B0939602BF91AF919F918F913F912F91A5
:101100000F900FBE0F901F90189529E8230F03969C
:10111000A11DB11DD2CF789483B7806483BF83B7FC
:10112000886083BF83B7846083BF87B7816087BFD0
:101130001EBC8EB582608EBD8EB581608EBD8FB5B2
:1011400081608FBD85B5846085BD85B5806485BDB2
:10115000EAE8F0E080818260808380818160808322
:10116000EBE8F0E0808181608083329A319A309898
:10117000379A1AB80895FC01918D228D892F90E03D
:10118000805C9F4F821B91098F7399270895FC0102
:10119000918D828D981731F0828DE80FF11D858D2C
:1011A00090E008958FEF9FEF0895FC01918D828D5F
:1011B000981761F0A28DAE0FBF2FB11D5D968C9177
:1011C000928D9F5F9F73928F90E008958FEF9FEFB6
:1011D000089588E49AE0892B49F080E090E0892B1B
:1011E00029F00E94480A81110E9400008FED9AE0C8
:1011F000892B49F080E090E0892B29F00E94DF0ADA
:1012000081110C9400000895FC01A48DA80FB92F42
:10121000B11DA35ABF4F2C91848D90E001968F731E
:101220009927848FA689B7892C93A089B1898C913D
:1012300080648C93938D848D981306C00288F38903
:10124000E02D80818F7D80830895CF93DF93EC0123
:10125000888D8823B9F0AA89BB89E889F9898C919E
:1012600085FD03C0808186FD0DC00FB607FCF7CF5A
:101270008C9185FFF2CF808185FFEDCFCE010E945A
:101280000409E9CFDF91CF910895EF92FF920F9378
:101290001F93CF93DF93EC0181E0888F9B8D8C8D22
:1012A000981316C0E889F989808185FF11C0EE89FD
:1012B000FF896083E889F98980818064808381E087
:1012C00090E0DF91CF911F910F91FF90EF900895E3
:1012D000F62E0B8D10E00F5F1F4F0F731127E02EBE
:1012E0008C8D8E110CC00FB607FCFACFE889F989F6
:1012F000808185FFF5CFCE010E940409F1CFEB8DEF
:10130000EC0FFD2FF11DE35AFF4FF0820B8FEA899E
:10131000FB8980818062D2CFCF92DF92EF92FF92E1
:101320001F93CF93DF93EC016A017B01122F60E8DA
:1013300074E88EE190E0A70196010E94820F21508F
:101340003109410951095695479537952795E889FF
:10135000F98982E08083211580E1380798F0E889D7
:10136000F989108260E472E48FE090E0A7019601B1
:101370000E94820F21503109410951095695479524
:1013800037952795EC85FD853083EE85FF85208395
:10139000188EEC89FD891083EA89FB898081806140
:1013A0008083EA89FB89808188608083EA89FB8960
:1013B000808180688083EA89FB8980818F7D80833A
:1013C000DF91CF911F91FF90EF90DF90CF90089524
:1013D0001F920F920FB60F9211240BB60F922F93FC
:1013E0008F939F93EF93FF93E091A702F091A80250
:1013F0008081E091AD02F091AE0282FD1DC090812E
:101400008091B0028F5F8F732091B102821741F0FB
:10141000E091B002F0E0E956FD4F958F8093B00265
:10142000FF91EF919F918F912F910F900BBE0F9095
:101430000FBE0F901F9018958081F2CF1F920F92D0
:101440000FB60F9211240BB60F922F933F934F9329
:101450005F936F937F938F939F93AF93BF93EF931C
:10146000FF9387E992E00E940409FF91EF91BF91F9
:10147000AF919F918F917F916F915F914F913F912C
:101480002F910F900BBE0F900FBE0F901F901895CD
:1014900087E992E00E94BB0821E0892B09F420E053
:1014A000822F0895E7E9F2E01382128288EE93E03A
:1014B000A0E0B0E084839583A683B78386ED91E0B6
:1014C0009183808380E990E09587848789E290E02A
:1014D000978786878BE290E0918B808B8AE290E001
:1014E000938B828B85E990E0958B848B8CE290E0E6
:1014F000978B868B118E128E138E148E08951F92E9
:101500000F920FB60F9211240BB60F922F938F9359
:101510009F93EF93FF93E0914403F0914503808103
:10152000E0914A03F0914B0382FD1DC090818091B0
:101530004D038F5F8F7320914E03821741F0E0912E
:101540004D03F0E0EC5CFC4F958F80934D03FF91D1
:10155000EF919F918F912F910F900BBE0F900FBE27
:101560000F901F9018958081F2CF1F920F920FB6A7
:101570000F9211240BB60F922F933F934F935F93CB
:101580006F937F938F939F93AF93BF93EF93FF934B
:1015900084E393E00E940409FF91EF91BF91AF9122
:1015A0009F918F917F916F915F914F913F912F917B
:1015B0000F900BBE0F900FBE0F901F90189584E3F5
:1015C00093E00E94BB0821E0892B09F420E0822FE0
:1015D0000895E4E3F3E01382128288EE93E0A0E042
:1015E000B0E084839583A683B78386ED91E09183F1
:1015F000808388E990E09587848789E990E09787E0
:1016000086878BE990E0918B808B8AE990E0938BC1
:10161000828B8DE990E0958B848B8CE990E0978BA1
:10162000868B118E128E138E148E0895AF92BF92F8
:10163000CF92DF92EF92FF920F931F93CF93DF939E
:101640006C017B018B01040F151FEB015E01AE18CD
:10165000BF08C017D10759F06991D601ED91FC91EF
:101660000190F081E02DC6010995892B79F7C5011C
:10167000DF91CF911F910F91FF90EF90DF90CF906E
:10168000BF90AF900895FB0101900020E9F73197DA
:10169000AF01461B570BDC01ED91FC910280F381F9
:1016A000E02D09946115710511F00C94430B90E045
:1016B00080E00895DC01ED91FC910190F081E02D36
:1016C000099465E171E00C94430B0F931F93CF9342
:1016D000DF938C01D0E0C0E06115710519F00E9424
:1016E000430BEC01C8010E94610B8C0F9D1FDF9121
:1016F000CF911F910F9108958F929F92AF92BF92B9
:10170000EF92FF920F931F93CF93DF93CDB7DEB786
:10171000A1970FB6F894DEBF0FBECDBF7C01FA01D2
:10172000CB0119A2223008F42AE08E010F5D1F4F71
:10173000822E912CB12CA12CBF01A50194010E94F5
:10174000820FF901CA016A300CF5605DD8016E9311
:101750008D01232B242B252B79F790E080E0109727
:1017600021F0BD01C7010E94430BA1960FB6F8946A
:10177000DEBF0FBECDBFDF91CF911F910F91FF90C4
:10178000EF90BF90AF909F908F900895695CDECFEF
:10179000CF92DF92EF92FF920F931F93CF93DF933D
:1017A0002115310581F4DC01ED91FC910190F0816E
:1017B000E02D642FDF91CF911F910F91FF90EF905B
:1017C000DF90CF9009942A30310501F52AE077FFA8
:1017D0001DC06A017B01EC016DE20E945A0B8C0175
:1017E00044275527BA014C195D096E097F092AE083
:1017F000CE010E947C0B800F911FDF91CF911F9132
:101800000F91FF90EF90DF90CF900895DF91CF91EF
:101810001F910F91FF90EF90DF90CF900C947C0B75
:101820009A01AB01770F660B770B0C94C80B0F93E3
:101830001F93CF93DF93EC010E94100C8C01CE011B
:101840000E94610B800F911FDF91CF911F910F912B
:1018500008952115310541F4DC01ED91FC910190D1
:10186000F081E02D642F09940C947C0B9A01AB015C
:1018700070E060E00C94290C2F923F924F925F929F
:101880006F927F928F929F92AF92BF92CF92DF9290
:10189000EF92FF921F93CF93DF93EC016A017B01DC
:1018A000722EAB019601CB01B6010E947D0F62EE54
:1018B00071E0811126C046015701E894B7F82FEF77
:1018C0003FEF4FE75FE7C501B4010E947D0F811133
:1018D0000CC02FEF3FEF4FE75FE7C501B4010E9457
:1018E000B30D66EE71E0181664F02FEF3FEF4FE78F
:1018F0005FE4C701B6010E940B0F1816B4F46AEE3C
:1019000071E0CE01DF91CF911F91FF90EF90DF90BA
:10191000CF90BF90AF909F908F907F906F905F908F
:101920004F903F902F900C94430B2FEF3FEF4FE7DA
:101930005FECC701B6010E94B30D87FDE0CF20E048
:1019400030E0A901C701B6010E94B30D312C212C52
:1019500087FF09C06DE2CE010E945A0B1C01F7FA05
:10196000F094F7F8F09410E060E070E080E09FE31E
:10197000711641F020E030E040E251E40E94B80DE1
:101980001F5FF6CFA70196010E94470D2B013C0176
:101990000E942A0E4B015C012AE0BC01A401CE0189
:1019A0000E947C0B7C01E20CF31C1123B1F1C501F8
:1019B000B4010E94590E9B01AC01C301B2010E9407
:1019C000460D4B015C016EE2CE010E945A0BE80EFF
:1019D000F91E115010F120E030E040E251E4C50161
:1019E000B4010E94100F2B013C010E942A0E4B01F2
:1019F0004AE050E0CE010E94360CE80EF91EB40118
:101A000090E080E00E94590E9B01AC01C301B2013D
:101A10000E94460D4B015C01DCCFC701DF91CF91E5
:101A20001F91FF90EF90DF90CF90BF90AF909F906D
:101A30008F907F906F905F904F903F902F90089580
:101A40000F931F93CF93DF93EC010E943C0C8C010A
:101A5000CE010E94610B800F911FDF91CF911F91EA
:101A60000F9108950E94F01008950E948B080E9423
:101A7000340D0E942201C9EED8E00E944401209753
:101A8000E1F30E94E908F9CF0C9467105058BB2786
:101A9000AA270E945E0D0C94D10E0E94C30E38F04E
:101AA0000E94CA0E20F039F49F3F19F426F40C94DA
:101AB000C00E0EF4E095E7FB0C94BA0EE92F0E94DD
:101AC000E20E58F3BA17620773078407950720F0F0
:101AD00079F4A6F50C94040F0EF4E0950B2EBA2FB2
:101AE000A02D0B01B90190010C01CA01A001112424
:101AF000FF27591B99F0593F50F4503E68F11A16D0
:101B0000F040A22F232F342F4427585FF3CF469560
:101B100037952795A795F0405395C9F77EF41F1682
:101B2000BA0B620B730B840BBAF09150A1F0FF0F4C
:101B3000BB1F661F771F881FC2F70EC0BA0F621F38
:101B4000731F841F48F4879577956795B795F79528
:101B50009E3F08F0B0CF9395880F08F09927EE0FBD
:101B60009795879508950E94960E08F481E0089550
:101B70000E94CC0D0C94D10E0E94CA0E58F00E9407
:101B8000C30E40F029F45F3F29F00C94BA0E5111B6
:101B90000C94050F0C94C00E0E94E20E68F399237A
:101BA000B1F3552391F3951B550BBB27AA27621759
:101BB0007307840738F09F5F5F4F220F331F441F66
:101BC000AA1FA9F335D00E2E3AF0E0E832D091509A
:101BD0005040E695001CCAF72BD0FE2F29D0660F87
:101BE000771F881FBB1F261737074807AB07B0E8CA
:101BF00009F0BB0B802DBF01FF2793585F4F3AF0D0
:101C00009E3F510578F00C94BA0E0C94050F5F3F7F
:101C1000E4F3983ED4F3869577956795B795F79555
:101C20009F5FC9F7880F911D9695879597F908953D
:101C3000E1E0660F771F881FBB1F621773078407D9
:101C4000BA0720F0621B730B840BBA0BEE1F88F7E8
:101C5000E09508950E94EA0E88F09F5798F0B92FFA
:101C60009927B751B0F0E1F0660F771F881F991FD1
:101C70001AF0BA95C9F714C0B13091F00E94040F60
:101C8000B1E008950C94040F672F782F8827B85F70
:101C900039F0B93FCCF3869577956795B395D9F729
:101CA0003EF490958095709561957F4F8F4F9F4F33
:101CB0000895E89409C097FB3EF49095809570953F
:101CC00061957F4F8F4F9F4F9923A9F0F92F96E988
:101CD000BB279395F695879577956795B795F111FD
:101CE000F8CFFAF4BB0F11F460FF1BC06F5F7F4F9A
:101CF0008F4F9F4F16C0882311F096E911C07723AC
:101D000021F09EE8872F762F05C0662371F096E8B4
:101D1000862F70E060E02AF09A95660F771F881F83
:101D2000DAF7880F9695879597F90895990F000827
:101D3000550FAA0BE0E8FEEF16161706E807F9079D
:101D4000C0F012161306E407F50798F0621B730B38
:101D5000840B950B39F40A2661F0232B242B252BB9
:101D600021F408950A2609F4A140A6958FEF811D5C
:101D7000811D089597F99F6780E870E060E00895FD
:101D80009FEF80EC089500240A9416161706180693
:101D90000906089500240A9412161306140605066F
:101DA0000895092E0394000C11F4882352F0BB0F00
:101DB00040F4BF2B11F460FF04C06F5F7F4F8F4F63
:101DC0009F4F089557FD9058440F551F59F05F3F9E
:101DD00071F04795880F97FB991F61F09F3F79F04D
:101DE00087950895121613061406551FF2CF4695CF
:101DF000F1DF08C0161617061806991FF1CF869551
:101E00007105610508940895E894BB276627772734
:101E1000CB0197F908950E94960E08F48FEF08956C
:101E20000E94230F0C94D10E0E94C30E38F00E9422
:101E3000CA0E20F0952311F00C94BA0E0C94C00E2B
:101E400011240C94050F0E94E20E70F3959FC1F3CC
:101E5000950F50E0551F629FF001729FBB27F00D58
:101E6000B11D639FAA27F00DB11DAA1F649F6627AD
:101E7000B00DA11D661F829F2227B00DA11D621FFC
:101E8000739FB00DA11D621F839FA00D611D221FB6
:101E9000749F3327A00D611D231F849F600D211D9A
:101EA000822F762F6A2F11249F5750409AF0F1F01D
:101EB00088234AF0EE0FFF1FBB1F661F771F881F86
:101EC00091505040A9F79E3F510580F00C94BA0EF6
:101ED0000C94050F5F3FE4F3983ED4F38695779515
:101EE0006795B795F795E7959F5FC1F7FE2B880F2C
:101EF000911D9695879597F908950E94960E880BE7
:101F0000990B0895A1E21A2EAA1BBB1BFD010DC05F
:101F1000AA1FBB1FEE1FFF1FA217B307E407F50799
:101F200020F0A21BB30BE40BF50B661F771F881F75
:101F3000991F1A9469F760957095809590959B010B
:101F4000AC01BD01CF010895EE0FFF1F0024001C5E
:101F50000BBE0790F691E02D0994EF920F931F931B
:101F6000CF93DF93E80134E047FD34E1042E000C09
:101F7000550B57FF03C0519541955109E32E022F90
:101F8000242FAE010E943911CE01DF91CF911F9114
:101F90000F91EF9008950F931F93CF93DF938230AB
:101FA000910510F482E090E0E091D303F091D40326
:101FB00030E020E0B0E0A0E0309799F42115310541
:101FC00009F44AC0281B390B24303105D8F58A8121
:101FD0009B816115710589F1FB0193838283FE0169
:101FE00011C0408151810281138148175907E0F0E7
:101FF0004817590799F4109761F012960C931297AD
:1020000013961C933296CF01DF91CF911F910F91C0
:1020100008950093D3031093D403F4CF2115310511
:1020200051F04217530738F0A901DB019A01BD01B5
:10203000DF01F801C1CFEF01F9CF9093D403809372
:10204000D303CDCFFE01E20FF31F81939193225072
:10205000310939832883D7CF2091D1033091D2031E
:10206000232B41F420910201309103013093D203DC
:102070002093D103209100013091010121153105F8
:1020800041F42DB73EB74091040150910501241B46
:10209000350BE091D103F091D203E217F307A0F4DE
:1020A0002E1B3F0B2817390778F0AC014E5F5F4FAE
:1020B0002417350748F04E0F5F1F5093D20340930B
:1020C000D103819391939FCFF0E0E0E09CCFCF9339
:1020D000DF930097E9F0FC01329713821282A091FE
:1020E000D303B091D403ED0130E020E01097A1F4C8
:1020F00020813181820F931F2091D1033091D2032F
:102100002817390709F061C0F093D203E093D10397
:10211000DF91CF910895EA01CE17DF07E8F54A81F4
:102120005B819E0141155105B1F7E901FB83EA830B
:1021300049915991C40FD51FEC17FD0761F48081B7
:1021400091810296840F951FE9019983888382818A
:1021500093819B838A83F0E0E0E012968D919C91BD
:1021600013970097B9F52D913C911197CD010296E7
:10217000820F931F2091D1033091D2032817390782
:1021800039F6309751F51092D4031092D303B093DF
:10219000D203A093D103BCCFD383C28340815181AA
:1021A000840F951FC817D90761F44E5F5F4F888170
:1021B0009981480F591F518340838A819B81938362
:1021C00082832115310509F0B0CFF093D403E09359
:1021D000D3039ECFFD01DC01C0CF13821282D7CF83
:1021E00081E090E0F8940C942915662777270C94E9
:1021F000B512FC0188279927E89421912032E9F350
:10220000293010F02E30C8F32B3241F02D3239F442
:10221000689404C00E943111820F911D21912053B6
:102220002A30C0F31EF4909581959F4F0895FB01CD
:10223000DC010D900020E9F7119701900D9200202C
:10224000E1F70895FB01DC014150504048F0019056
:102250000D920020C9F701C01D9241505040E0F797
:1022600008957AE0979F902D879F802D910D1124DE
:1022700008958F929F92AF92BF92CF92DF92EF928A
:10228000FF920F931F93CF93DF93CDB7DEB72997BC
:102290000FB6F894DEBF0FBECDBF6A01F22EB02E8E
:1022A000102FFBE3AF2EA01608F41BE31F5F012FD6
:1022B00027E0AE014F5F5F4F0E941314BC0189817C
:1022C000982F9970913009F44EC09BE2E1FC04C054
:1022D0009E2D9170E0FC49C05E2D5071E82FE87092
:1022E00083FF55C084E0911101C083E0EF2DE81B0E
:1022F0008F1508F0E0E0D6018E2F20E25523C9F1BA
:10230000992329F0D6019C93C60101966C01960190
:102310002D5F3F4FE2FE33C08EE4D6018C9391E4F3
:1023200011969C93119712968C93D9018E2F90E25F
:1023300081112AC0E20FF32FF11D10828EEF9FEF63
:1023400029960FB6F894DEBF0FBECDBFDF91CF91B7
:102350001F910F91FF90EF90DF90CF90BF90AF90C3
:102360009F908F9008959DE2B7CF90E2B5CF2D93C7
:1023700081508111FCCFCE0ED11CE0E0C1CF8EE6A2
:10238000D6018C9391E6CCCF9D938150D1CF482F2D
:10239000447082FF3DC084E0911101C083E08F153D
:1023A00010F4EF2DE81BD6018E2F20E2552309F102
:1023B000992329F0D6019C93C60101966C019601E0
:1023C0002D5F3F4FE2FE1BC089E4D6018C938EE463
:1023D00011968C93119786E412968C93D9018E2FC7
:1023E00090E2882309F4A6CF9D938150FACF2D93D4
:1023F00081508111FCCFCE0ED11CE0E0D9CF89E60F
:10240000D6018C938EE611968C93119786E6E4CFD5
:102410009B0177FF02C030E020E0A1E0B0E0911125
:1024200002C0B0E0A0E0F9013196AE0FBF1F8B2CC7
:10243000912CBB2009F461C05401EFEFAE1ABE0A23
:10244000AA0DBB1DFA161B0619F014F04F2D4A1BDE
:10245000511188C0E3FC59C07601A42FB0E2A1114C
:102460004FC0C40ED11C992309F45BC040E0D601D3
:102470001196F60190836D01552309F448C0012F90
:10248000060F9A81582F507184FF03C0913309F4CD
:10249000015010160CF047C0093008F008E0EEE2D9
:1024A000FE2E5B01A01AB1088501919481949108D8
:1024B0002F3F320729F4D601FC92F60131966F01C5
:1024C0006217730794F1021713077CF5DB01A21B57
:1024D000B30BAA24A394B12CAC0EBD1EAA0DBB1D38
:1024E00011968C9121503109D60111962815390584
:1024F000F4F0F60180836D01DBCFB12CA12CA0CFCD
:10250000F701B1937F01A150AACF9111B0CFD601AD
:10251000942F50E302C05D9391509111FCCFC40EF3
:10252000D11C40E0ACCF01E0BACF80E3DBCF621733
:10253000730731F4963388F4953311F4552369F019
:10254000F6018083FD01842F90E2811108C0A40F61
:10255000B11D1C9290E080E0F3CE81E3F1CF919326
:102560008150F3CF911183CF8ACF8F929F92AF92F8
:10257000BF92CF92DF92EF92FF920F931F93CF9370
:10258000DF935C017B016115710519F0DB018D930F
:102590009C9385010F5F1F4FF501D0818D2F90E037
:1025A0000E94EB146C01892BB9F5DD32B9F50F5F90
:1025B0001F4FD5011196DC91C1E05801F1E0AF1A2F
:1025C000B10843E050E064E970E0C5010E94F414F2
:1025D000892B69F5680182E0C80ED11C45E050E006
:1025E0006FE870E0C6010E94F414892B21F46801A1
:1025F00097E0C90ED11CE114F10419F0D701CD9276
:10260000DC9260E070E080E89FEFC111FFC060E005
:1026100070E080E89FE7FAC05801BBCFDB3229F4B5
:1026200085010E5F1F4FF501D181C0E0C6CF43E0A9
:1026300050E06CE870E0C5010E94F414892BE9F0C9
:10264000F80110E000E020E030E0A9015F01B0ED0A
:102650008B2E8D0E89E08815C8F19C2E689491F818
:102660008C2F8870C2FF16C0811102C00F5F1F4FF0
:102670003196D501DC91C92DE9CFE114F10429F09F
:102680000E5F1F4FF7011183008360E070E080EC64
:102690009FE7BCC0882311F001501109A5E0B0E00C
:1026A0000E940F159B01AC01220F331F441F551FC1
:1026B000280D311D411D511D283999E93907490758
:1026C00099E15907A8F2C6609C2ED2CFAEEF8A12CC
:1026D00006C0C3FD3CC09C2E689493F8C9CFDF7D33
:1026E000D534A9F580818D3239F4C061DF011296AD
:1026F000818162E070E006C0DF018B32C1F3119688
:1027000061E070E080535D01A61AB70A8A30F8F4E0
:10271000E0E8CE16ECE0DE065CF4B601660F771F4B
:10272000660F771FC60ED71ECC0CDD1CC80ED11C41
:102730005D01FFEFAF1ABF0A8C9180538A30A8F178
:10274000C4FF03C0D194C194D1080C0D1D1DC1FF5D
:1027500009C0E114F10431F081E0A81AB108D701F1
:10276000AD92BC92CA01B9010E94590EC370C33028
:1027700009F490584B015C0120E030E0A9010E946F
:10278000B30D882309F440C0C3ECD0E017FF05C0A7
:10279000119501951109CBEAD0E06E01B8E1CB1A91
:1027A000D10880E2E82EF12C0FC0D501B1CFFE0197
:1027B00025913591459154910E191F09C501B40118
:1027C0000E94100F4B015C01D501C4010E151F05BD
:1027D00074F72497F594E794CC16DD06A9F78A2FB1
:1027E000880F8B2F881F8F3F49F020E030E0A90130
:1027F000C501B4010E94B30D811106C082E290E0D0
:102800009093D6038093D503C501B401DF91CF9196
:102810001F910F91FF90EF90DF90CF90BF90AF90FE
:102820009F908F900895283008F027E03327DA0131
:10283000990F311D87FD916000966105710539F48E
:1028400032602E5F3D9330E32A95E1F708959F3F74
:1028500030F080387105610509F03C5F3C5F3D93C5
:10286000913008F08068911DDF93CF931F930F93F1
:10287000FF92EF92192F987F9695E92F969596954E
:10288000E90FFF27EF5DFE4F99273327EE24FF2442
:10289000A701E70105900894079428F4360FE71E76
:1028A000F81E491F511D660F771F881F991F069438
:1028B000A1F70590079428F4E70EF81E491F561F4C
:1028C000C11D770F881F991F661F0694A1F70590F9
:1028D000079428F4F80E491F561FC71FD11D880FF3
:1028E000991F661F771F0694A1F70590079420F49F
:1028F000490F561FC71FD81F990F661F771F881FC4
:102900000694A9F784911095177041F0D695C79554
:1029100057954795F794E7941A95C1F7E7ECF0E0DF
:1029200068941590159135916591959105907FE288
:102930007395E118F10A430B560BC90BD009C0F788
:10294000E10CF11E431F561FC91FD01D7EF47033CA
:1029500011F48A95E6CFE894015030F0080F0AF49C
:102960000027021708F4202F2395022F7A3328F02E
:1029700079E37D932A95E9F710C07D932A9589F62E
:10298000069497956795379517951794E118F10A6E
:10299000430B560BC90BD00998F023957E91739584
:1029A0007A3308F070E37C932013B8F77E9170615E
:1029B0007D9330F0839571E37D9370E32A95E1F781
:1029C0001124EF90FF900F911F91CF91DF919927E4
:1029D00087FD9095089591110C940C15803219F093
:1029E00089508550C8F70895FB01DC0141505040E3
:1029F00088F08D9181341CF08B350CF4805E6591EC
:102A000061341CF06B350CF4605E861B611171F350
:102A1000990B0895881BFCCF9927882708950E9459
:102A20001A15A59F900DB49F900DA49F800D911D28
:102A300011240895A29FB001B39FC001A39F700D00
:102A4000811D1124911DB29F700D811D1124911DB6
:102A5000089510E0C4EED0E004C0FE010E94A40F6F
:0C2A60002196C53ED107C9F7F894FFCFBE
:102A6C000000D703800053657269616C3120696E78
:102A7C006974204F4B0D0A00475053206176616CEE
:102A8C0069626C652100475053206973204F4B00DD
:102A9C0047505320436F6F7264696E617465733A6B
:102AAC0020004C6174697475646509000909004C57
:102ABC006F6E67697475646509005361743A200020
:102ACC0053706565643A2000416C74697475646573
:102ADC003A200054696D653A2000446174653A20CF
:102AEC0000475053206572726F72206461746100EC
:102AFC00475053206E6F20636F6E6E656374207445
:102B0C006F20736174656C6C69746573212121008D
:102B1C0045727200000000001101180124474E4755
:102B2C0047410024474E524D430000000000320D37
:102B3C00320D000000004509160BBB08D508C7086C
:0E2B4C0025096E616E00696E66006F76660088
:00000001FF
