:100000000C947B010C94A5010C94A5010C94A50102
:100010000C94A5010C94A5010C94A5010C94A501C8
:100020000C94A5010C94A5010C94A5010C94A501B8
:100030000C94A5010C94A5010C94A5010C94A501A8
:100040000C94D2060C94A5010C9480090C94B6096A
:100050000C94A5010C94A5010C94A5010C94A50188
:100060000C94A5010C94A5010C94A5010C94A50178
:100070000C94A5010C94A5010C94A5010C94A50168
:100080000C94A5010C94A5010C94A5010A0D5246EF
:1000900032342F6578616D706C65732F7363616E98
:1000A0006E65722F00000102030405504120506F5D
:1000B00077657209203D2025530D0A0043524320E5
:1000C0004C656E67746809203D2025530D0A004D6C
:1000D0006F64656C0909203D2025530D0A004461B9
:1000E0007461205261746509203D2025530D0A007A
:1000F00044594E50442F4645415455524500434FB4
:100100004E464947090052465F53455455500052E8
:10011000465F43480900454E5F52584144445200EF
:10012000454E5F4141090052585F50575F50302D96
:10013000360054585F41444452090052585F4144CC
:1001400044525F50322D350052585F414444525F53
:1001500050302D310073016C0164015D0150415F2D
:100160004D41580050415F484947480050415F4C5D
:100170004F570050415F4D494E008F01880180016B
:1001800031362062697473003820626974730044E8
:10019000697361626C656400A6019C016E5246320F
:1001A000344C30312B006E524632344C303100C367
:1001B00001BD01B5013235304B42505300324D4242
:1001C000505300314D425053000D0A002530327813
:1001D0000020307800255309203D000D0A00203012
:1001E000782530327800255309203D00535441547E
:1001F00055530909203D2030782530327820525857
:100200005F44523D25782054585F44533D25782063
:100210004D41585F52543D25782052585F505F4EF3
:100220004F3D25782054585F46554C4C3D25780D60
:100230000A000000000A0B0C00000000000001048E
:1002400005060000000000000000000000000000A3
:10025000000000000000000000000000000000009E
:10026000000000000000000102040810204080018E
:1002700002040810204080081001020408102040E9
:1002800080010201020408102040800480402010F8
:10029000080402010102040810204080050505053C
:1002A0000505050502020202020202020707040414
:1002B0000404040404040707030303030303030300
:1002C00007010101010101010106060606060606F5
:1002D0000600003B00380035003200230062006554
:1002E0000000003A00370034003100220061006451
:1002F00000006802EA0911241FBECFEFD0E1DEBF83
:10030000CDBF11E0A0E0B1E0E0E8FEE100E00BBF0E
:1003100002C007900D92AC31B107D9F722E0ACE1F1
:10032000B1E001C01D92A336B207E1F711E0CBE7BF
:10033000D1E004C02197FE010E94C00AC937D1074D
:10034000C9F70E948E0A0C943E0F0C94000070E0D6
:1003500060E080E792E00C94C90A0F931F93CF935B
:10036000DF9326E040E052EC61E070E08CEB91E03E
:100370000E9424090E94A7016CE870E08CEB91E0D8
:100380000E947B0A8AE991E00E948C0560E08AE97C
:1003900091E00E943E058AE991E00E94F8048AE912
:1003A00091E00E948D048AE991E00E943106D0E03C
:1003B000C0E006E011E0CE0124E0959587952A95EE
:1003C000E1F79F938F931F930F930E94140B219635
:1003D0000F900F900F900F90CE37D10561F78CEBF7
:1003E00091E00E94770AD0E0C0E006E011E0CE0183
:1003F0008F7099279F938F931F930F930E94140BD5
:1004000021960F900F900F900F90CE37D10579F76E
:100410008CEB91E0DF91CF911F910F910C94770AB3
:10042000EF92FF920F931F93CF93DF93ECE1F1E0F4
:100430008EE7DF011D928A95E9F795E6E92EF12C0A
:10044000B1E0EB1AF10809F1C9E9D1E01DE7612F2C
:100450008AE991E00E9486048AE991E00E94F8040A
:1004600080E890E00E947B078AE991E00E948D0479
:100470008AE991E00E944505882319F088818F5F01
:1004800088832197115018F7DBCFCCE1D1E08AE9BE
:10049000E82E81E0F82E06E011E08991803108F025
:1004A0008FE01F928F931F930F930E94140B0F9056
:1004B0000F900F900F90EC16FD0679F78CEB91E002
:1004C000DF91CF911F910F91FF90EF900C94770ADD
:1004D00043E050E062E070E08AE991E00C9471043E
:1004E000CF93C82F682F8CEB91E00E94DD088C2FF2
:1004F000CC0F990BCF910895CF93CFB7F8948091FB
:10050000B201811123C0E4EAF2E08491EFE6F2E067
:100510009491E82FF0E0EE0FFF1FEF51FD4FA591F2
:10052000B491EC91E92321F461E088E00E94250870
:1005300061E088E00E94E9076C9A6E9A61E089E0C8
:100540000E94E90761E08AE00E94E9078091B20118
:100550008F5F8093B201CFBFCF9108958FB9000014
:10056000779BFECF8FB10895CF93DF93EC016D9809
:100570008DB1837F8DB98DB18C7F8DB9709A8A8151
:100580000E9425088C899D89DF91CF910C947B076F
:10059000FC0120813181828193812817390719F06C
:1005A000822F0C942508089560E00C94B40261E059
:1005B0000C94B402CF92DF92EF92FF920F931F93AD
:1005C000CF93DF937C01C62F6A01122F0E94D402C1
:1005D0008C2F8F710E94AE02082FE601115028F077
:1005E0008FEF0E94AE028993F9CFC7010E94D70214
:1005F000802FDF91CF911F910F91FF90EF90DF90AF
:10060000CF9008951F93CF93DF93EC01162F0E9494
:10061000D402812F8F710E94AE028FEF0E94AE0232
:10062000182FCE010E94D702812FDF91CF911F9109
:100630000895CF92DF92EF92FF920F931F93CF9383
:10064000DF937C01C62F6A01122F0E94D4028C2FE7
:100650008F7180620E94AE02082FE601115020F0D7
:1006600089910E94AE02FACFC7010E94D702802F63
:10067000DF91CF911F910F91FF90EF90DF90CF907E
:1006800008950F931F93CF93DF938C01C62FD42F20
:100690000E94D4028C2F8F7180620E94AE02C82FFC
:1006A0008D2F0E94AE02C8010E94D7028C2FDF91CD
:1006B000CF911F910F9108951F93CF93DF93EC017A
:1006C000162F0E94D402812F0E94AE02182FCE0155
:1006D0000E94D702812FDF91CF911F91089562EE82
:1006E0000C945C0361EE0C945C036FEF0C945C0360
:1006F000862F90E0262F21701F922F939C01359515
:100700002795277033273F932F9364FB992790F900
:100710001F929F9365FB992790F91F929F9366FB09
:10072000882780F91F928F931F926F938CEE91E030
:100730009F938F930E94280B8DB79EB70E960FB68E
:10074000F8949EBF0FBE8DBF0895CF92DF92FF92A7
:100750000F931F93CF93DF936C01C42FD22F7F93FE
:100760006F9386EE91E09F938F930E94280BDC0F8E
:100770000F900F900F900F900EED11E0CD1799F0A4
:10078000FF24F394FC0E6C2FC6010E9402031F92FB
:100790008F931F930F930E94280B0F900F900F9031
:1007A0000F90CF2DEBCF8BED91E09F938F930E9415
:1007B000280B0F900F90DF91CF911F910F91FF9019
:1007C000DF90CF9008952F923F924F925F926F9259
:1007D0007F928F929F92AF92BF92CF92DF92EF92D1
:1007E000FF920F931F93CF93DF931F92CDB7DEB786
:1007F0006C01242E322E4DB65EB67F936F9385ED3D
:1008000091E09F938F930E94280B320C0F900F90D2
:100810000F900F9081EDA82E81E0B82E9CEC892ED0
:1008200091E0992E2314E1F16DB67EB6F60126858E
:10083000022F10E08DB79EB7801B910B0FB6F89476
:100840009EBF0FBE8DBFEDB7FEB731967F01F1E0C1
:10085000F20DF983A701622DC6010E94DA02BF9250
:10086000AF920E94280B0E0D1F1D0F900F9001508C
:1008700011090E151F0568F0F80180811F928F93F2
:100880009F928F920E94280B0F900F900F900F90C5
:10089000EECF0FB6F8947EBE0FBE6DBE2980C2CFDC
:1008A00089EC91E09F938F930E94280B0F900F90FB
:1008B0000FB6F8945EBE0FBE4DBE0F90DF91CF9184
:1008C0001F910F91FF90EF90DF90CF90BF90AF906E
:1008D0009F908F907F906F905F904F903F902F9060
:1008E0000895FC017183608353834283168280E202
:1008F0008783108685E0868785E090E0A0E0B0E001
:10090000848B958BA68BB78B11860895462F6D37F8
:1009100008F04DE765E00C944103CF93DF93EC01C1
:1009200060E00E94C802888999890E947B076DE176
:10093000CE010E94020381FF07C0888999890E9425
:100940007B07CE010E94720360E0CE010E94020389
:10095000482F4E7F60E0CE010E94410362E0CE014D
:100960000E940203E5EAF0E0E49141E050E001C0BA
:10097000440FEA95EAF7482B62E0CE01DF91CF9170
:100980000C944103CF93DF93EC0160E00E940203DB
:1009900081FD0EC0482F426060E0CE010E944103FD
:1009A00065E070E080E090E0DF91CF910C94420729
:1009B000DF91CF9108951F93CF93DF93EC01162F12
:1009C00062E00E940203E12FF0E0EB55FF4FE4915B
:1009D00021E030E001C0220FEA95EAF72095422F8E
:1009E000482362E0CE01DF91CF911F910C94410327
:1009F000CF93DF93EC010E94C20460E0CE010E941D
:100A00000203482F416060E0CE010E94410340E7AD
:100A100067E0CE010E94410361E0CE010E94C8025E
:100A20008985882399F02E85AE01475F5F4F6AE084
:100A3000CE010E9419036DE1CE010E94020381FFE5
:100A40000AC0CE01DF91CF910C94720360E0CE0119
:100A50000E94DB04F0CFDF91CF910895CF93DF9315
:100A6000EC010E94D40280E50E94AE0283E70E945E
:100A7000AE02CE01DF91CF910C94D7024FE361110A
:100A800001C040E061E00C94410369E00E94020370
:100A90008170089566E00E94020390E09595879525
:100AA00083700895EF92FF920F931F93CF938C0161
:100AB0007B0166E00E940203C82FC77D82E0E81632
:100AC000F104E9F4C0628BE990E0A0E0B0E0F80145
:100AD000808B918BA28BB38B4C2F66E0C8010E9458
:100AE000410366E0C8010E94020391E08C1390E08C
:100AF000892FCF911F910F91FF90EF90089585E579
:100B000090E0A0E0B0E0EA94EF2809F7C86081E443
:100B100090E0A0E0B0E0DBCF1F93CF93DF93EC0138
:100B2000888199812A813B818217930719F061E0BE
:100B30000E94E9078A819B8128813981281739071A
:100B400019F061E00E94E9070E947C0260E0CE019A
:100B50000E94C80261E0CE010E94B40265E070E02C
:100B600080E090E00E9442074CE060E0CE010E94ED
:100B700041034FE564E0CE010E94410362E070E072
:100B8000CE010E945205882311F081E08E8366E039
:100B9000CE010E940203182F70E060E0CE010E9497
:100BA0005205CE010E942E0540E06DE1CE010E946B
:100BB000410340E06CE1CE010E944103188640E70A
:100BC00067E0CE010E9441036CE4CE010E948604DE
:100BD000CE010E946F03CE010E947203CE010E94DB
:100BE000C20460E0CE010E940203482F4E7F60E005
:100BF000CE010E944103115081E01E3F08F080E0C9
:100C0000DF91CF911F91089566E00E940203282F83
:100C10002872203231F081E090E0283021F080E02D
:100C2000089582E090E008950F931F93CF938C0175
:100C300060E00E940203C82F61E0C8010E94020325
:100C4000C3FD02C0882339F081E090E0C2FF05C0F7
:100C500082E090E002C090E080E0CF911F910F9180
:100C60000895CF93DF93EC010E947503682FCE01A6
:100C70000E94780322E04AE068E471E0CE010E941D
:100C8000E30324E04CE06BE371E0CE010E94A50396
:100C900021E040E162E371E0CE010E94E30326E03F
:100CA00041E167E271E0CE010E94A50321E041E04D
:100CB00060E271E0CE010E94A50321E042E066E11E
:100CC00071E0CE010E94A50321E045E06FE071E0F4
:100CD000CE010E94A50321E046E066E071E0CE016E
:100CE0000E94A50321E040E06EEF70E0CE010E947B
:100CF000A50322E04CE160EF70E0CE010E94A50365
:100D0000CE010E940406FC01EE0FFF1FE155FE4FCD
:100D1000859194919F938F938EED90E09F938F9305
:100D20000E94280BEE81F0E0EE0FFF1FE856FE4F09
:100D3000859194919F938F938FEC90E09F938F93E5
:100D40000E94280BCE010E941406FC01EE0FFF1F2B
:100D5000E658FE4F859194919F938F938CEB90E092
:100D60009F938F930E94280BCE010E944A05E82F83
:100D7000F0E0EE0FFF1FEB5AFE4F859194919F9389
:100D80008F938BEA90E09F938F930E94280B8DB7EF
:100D90009EB740960FB6F8949EBF0FBE8DBFDF91F1
:100DA000CF9108951F920F920FB60F9211242F9397
:100DB0003F938F939F93AF93BF938091B401909192
:100DC000B501A091B601B091B7013091B30126E011
:100DD000230F2D3758F50296A11DB11D2093B301A5
:100DE0008093B4019093B501A093B601B093B7017D
:100DF0008091B8019091B901A091BA01B091BB0165
:100E00000196A11DB11D8093B8019093B901A093E3
:100E1000BA01B093BB01BF91AF919F918F913F9168
:100E20002F910F900FBE0F901F90189529E8230F58
:100E30000396A11DB11DD2CF3FB7F8948091B801A0
:100E40009091B901A091BA01B091BB0122B706B649
:100E500000FE05C02F3F19F00196A11DB11D3FBF37
:100E6000BA2FA92F982F8827BC01CD01620F711DC1
:100E7000811D911D43E0660F771F881F991F4A95BA
:100E8000D1F708958F929F92AF92BF92CF92DF9247
:100E9000EF92FF926B017C010E941C074B015C01E9
:100EA000C114D104E104F104E9F00E949D0A0E94FA
:100EB0001C07681979098A099B09683E73408105F6
:100EC000910570F321E0C21AD108E108F10888EE1B
:100ED000880E83E0981EA11CB11CC114D104E1044A
:100EE000F10429F7FF90EF90DF90CF90BF90AF9083
:100EF0009F908F9008958330910528F0880F991F57
:100F000004970197F1F70895789483B7806483BFBD
:100F100083B7886083BF83B7846083BF87B78160EE
:100F200087BF1EBC8EB582608EBD8EB581608EBDC2
:100F30008FB581608FBD85B5846085BD85B58064C2
:100F400085BDEAE8F0E080818260808380818160F5
:100F50008083EBE8F0E0808181608083329A319A6F
:100F60003098379A1AB8089581508C3048F5E82F98
:100F7000F0E0E354F84F0C94C00AD707D707E00716
:100F8000C907CD07D007D307E007E007DB07E10774
:100F9000E5078FB58F778FBD08958FB58F7DFBCF18
:100FA0008FB5877FF8CF85B58F7D85BD089583B7D1
:100FB0008F7D83BF089580918B008F7780938B0006
:100FC000089580918B008F7DF9CF80918B00877F72
:100FD000F5CFCF93DF9390E0FC01E959FD4F2491C9
:100FE00084569D4FFC0184918823C9F090E0880FBE
:100FF000991FFC01EF51FD4FA591B491FC01EF52F7
:10100000FD4FC591D49161110DC09FB7F8948C919B
:10101000209582238C938881282328839FBFDF918A
:10102000CF910895623051F49FB7F8943C91822F8C
:10103000809583238C93E8812E2BEFCF8FB7F89484
:10104000EC912E2B2C938FBFEACF1F93CF93DF937E
:10105000282F30E0F901EE5CFD4F8491F901E95948
:10106000FD4FD491F901E456FD4FC491CC23A9F072
:10107000162F81110E94B407EC2FF0E0EE0FFF1F36
:10108000EF52FD4FA591B4918FB7F894EC911111E7
:1010900008C0D095DE23DC938FBFDF91CF911F91E5
:1010A0000895DE2BF8CFFC01918D228D892F90E0E1
:1010B000805C9F4F821B91098F7399270895FC01D3
:1010C000918D828D981731F0828DE80FF11D858DFD
:1010D00090E008958FEF9FEF0895FC01918D828D30
:1010E000981761F0A28DAE0FBF2FB11D5D968C9148
:1010F000928D9F5F9F73928F90E008958FEF9FEF87
:10110000089580EE99E0892B49F080E090E0892BEA
:1011100029F00E94E00981110E94000080E090E027
:10112000892B49F080E090E0892B29F00E94000093
:1011300081110C9400000895FC01A48DA80FB92F13
:10114000B11DA35ABF4F2C91848D90E001968F73EF
:101150009927848FA689B7892C93A089B1898C910E
:1011600080648C93938D848D981306C00288F389D4
:10117000E02D80818F7D80830895CF93DF93EC01F4
:10118000888D8823B9F0AA89BB89E889F9898C916F
:1011900085FD03C0808186FD0DC00FB607FCF7CF2B
:1011A0008C9185FFF2CF808185FFEDCFCE010E942B
:1011B0009C08E9CFDF91CF910895EF92FF920F93B2
:1011C0001F93CF93DF93EC0181E0888F9B8D8C8DF3
:1011D000981316C0E889F989808185FF11C0EE89CE
:1011E000FF896083E889F98980818064808381E058
:1011F00090E0DF91CF911F910F91FF90EF900895B4
:10120000F62E0B8D10E00F5F1F4F0F731127E02E8E
:101210008C8D8E110CC00FB607FCFACFE889F989C6
:10122000808185FFF5CFCE010E949C08F1CFEB8D28
:10123000EC0FFD2FF11DE35AFF4FF0820B8FEA896F
:10124000FB8980818062D2CFCF92DF92EF92FF92B2
:101250001F93CF93DF93EC016A017B01122F60E8AB
:1012600074E88EE190E0A70196010E949E0A215049
:101270003109410951095695479537952795E889D0
:10128000F98982E08083211580E1380798F0E889A8
:10129000F989108260E472E48FE090E0A701960182
:1012A0000E949E0A215031094109510956954795DE
:1012B00037952795EC85FD853083EE85FF85208366
:1012C000188EEC89FD891083EA89FB898081806111
:1012D0008083EA89FB89808188608083EA89FB8931
:1012E000808180688083EA89FB8980818F7D80830B
:1012F000DF91CF911F91FF90EF90DF90CF900895F5
:101300001F920F920FB60F9211240BB60F922F93CC
:101310008F939F93EF93FF93E091CC01F091CD01D8
:101320008081E091D201F091D30182FD1DC09081B6
:101330008091D5018F5F8F732091D601821741F084
:10134000E091D501F0E0E454FE4F958F8093D501F4
:10135000FF91EF919F918F912F910F900BBE0F9066
:101360000FBE0F901F9018958081F2CF1F920F92A1
:101370000FB60F9211240BB60F922F933F934F93FA
:101380005F936F937F938F939F93AF93BF93EF93ED
:10139000FF938CEB91E00E949C08FF91EF91BF912D
:1013A000AF919F918F917F916F915F914F913F91FD
:1013B0002F910F900BBE0F900FBE0F901F9018959E
:1013C0008CEB91E00E94530821E0892B09F420E086
:1013D000822F0895ECEBF1E01382128288EE93E005
:1013E000A0E0B0E084839583A683B7838DE091E08D
:1013F0009183808380E990E09587848789E290E0FB
:10140000978786878BE290E0918B808B8AE290E0D1
:10141000938B828B85E990E0958B848B8CE290E0B6
:10142000978B868B118E128E138E148E0895AF9229
:10143000BF92CF92DF92EF92FF920F931F93CF93C1
:10144000DF936C017B018B01040F151FEB015E0123
:10145000AE18BF08C017D10759F06991D601ED91B8
:10146000FC910190F081E02DC6010995892B79F757
:10147000C501DF91CF911F910F91FF90EF90DF9009
:10148000CF90BF90AF900895FB0101900020E9F745
:101490003197AF01461B570BDC01ED91FC910280A7
:1014A000F381E02D0994EF92FF920F931F93CF9356
:1014B000DF938C017B01D0E0C0E0F701EC0FFD1F52
:1014C0006491662361F0D801ED91FC910190F08167
:1014D000E02DC8010995892B11F02196EECFCE01A0
:1014E000DF91CF911F910F91FF90EF90089569E1E7
:1014F00071E00C94440A0F931F93CF93DF93EC0198
:101500000E94530A8C01CE010E94770A800F911F1E
:10151000DF91CF911F910F91089508950E94840744
:101520000E948D0A0E94AD01C1E8D8E00E9410021D
:101530002097E1F30E948108F9CF0895A1E21A2EC5
:10154000AA1BBB1BFD010DC0AA1FBB1FEE1FFF1F67
:10155000A217B307E407F50720F0A21BB30BE40BB7
:10156000F50B661F771F881F991F1A9469F76095FE
:101570007095809590959B01AC01BD01CF010895B8
:10158000EE0FFF1F0024001C0BBE0790F691E02D0C
:1015900009940F931F93CF93DF93009759F461152C
:1015A000710541F4F0E0E0E0CF01DF91CF911F91B0
:1015B0000F9108958B01EC016EE070E081E090E006
:1015C0000E94520DFC01892B69F380E88383011589
:1015D000110571F01387028781E883838091590296
:1015E00090915A02892B21F4F0935A02E093590208
:1015F0002097D1F2D187C0878381826083838091D5
:101600005B0290915C02892B79F6F0935C02E09387
:101610005B0280915D0290915E02892B29F6F09326
:101620005E02E0935D02C0CFCF93DF93CDB7DEB70C
:10163000AE014B5F5F4FFA0161917191AF018091F3
:101640005B0290915C020E944F0BDF91CF91089555
:101650000F931F93CF93DF93CDB7DEB7AE01495FF2
:101660005F4FDA016D917D91AD0109E512E0F8015E
:1016700082819381DC0113962C9113972860139635
:101680002C930E944F0BD8011296ED91FC9123816F
:10169000277F2383DF91CF911F910F9108952F9280
:1016A0003F924F925F926F927F928F929F92AF92F2
:1016B000BF92CF92DF92EF92FF920F931F93CF933F
:1016C000DF93CDB7DEB72B970FB6F894DEBF0FBE12
:1016D000CDBF7C013B018A01FC0117821682838108
:1016E00081FFDDC1CE0101965C01F7019381F30119
:1016F00093FD859193FF81913F01882309F453C1A4
:10170000853239F493FD859193FF81913F018532B4
:1017100029F4B70190E00E94B00EE7CF912C212C64
:10172000312CFFE1F31538F08B3211F190F4803257
:1017300009F1833229F137FC3CC020ED280F2A3013
:1017400050F536FE20C08AE0989E200D1124922E7E
:1017500006C08D3291F0803371F7689430F8F30150
:1017600093FD859193FF81913F018111DACF21C0D3
:10177000689431F8689432F8F2CF689433F8EFCF78
:10178000689434F8ECCFEAE02E9E200D1124222E2E
:10179000689435F8E4CF8E3229F436FC04C168949D
:1017A00036F8DDCF8C3619F4689437F8D8CF883600
:1017B000B1F2982F9F7D95549330E0F08336A1F1DC
:1017C0008337C1F1833509F063C02801F2E04F0E81
:1017D000511CF801C080D180692D70E036FC02C038
:1017E0006FEF7FEFC6010E94930E4C01689437F8AB
:1017F00082010AC00C5F1F4FFFE3F98388248394A2
:10180000912C6501E89437F833FE2DC0522C8114D9
:10181000910471F5552009F468CFB70180E290E09A
:101820000E94B00E5A94F6CFF801808189830E5F32
:101830001F4FE4CF2801F2E04F0E511CF801C08089
:10184000D180692D70E036FC02C06FEF7FEFC601DA
:101850000E94A50E4C018201D5CFB70180E290E035
:101860000E94B00E2A942814190409F0B0F7CECFC4
:10187000F60137FC859137FE81916F01B70190E049
:101880000E94B00E51105A94F1E08F1A9108BFCF08
:10189000843619F0893609F077C0F80137FE6BC03D
:1018A00060817181828193810C5F1F4FF32DFF76E0
:1018B0003F2E97FF09C090958095709561957F4F59
:1018C0008F4F9F4F689437F82AE030E0A5010E94BF
:1018D000E00EC82ECA188C2C432C36FE0CC0E8949F
:1018E00040F8C91440F434FE05C032FC03C0F32DA7
:1018F000FE7E4F2E892C44FEAAC0FE01EC0DF11D88
:101900008081803309F09CC0242D297E422E842DB5
:101910008870582E43FCAAC040FEA4C09C2C8214A0
:1019200018F42C0C922C981844FEA6C0B70180E342
:1019300090E00E94B00E42FE09C088E790E041FEB0
:1019400002C088E590E0B7010E94B00EC91408F407
:101950009FC0CA94D12C9FEFC91AD90ACA0CDB1CAC
:10196000F60182916F01B70190E00E94B00EAC14B5
:10197000BD04B1F74FCF60817181072E000C880B39
:10198000990B0E5F1F4F92CFD32CE894D4F82AE026
:1019900030E08537E1F1232D297FD22E8F36A9F152
:1019A000F0F4883551F1F701868197812B960FB6B7
:1019B000F894DEBF0FBECDBFDF91CF911F910F9185
:1019C000FF90EF90DF90CF90BF90AF909F908F905F
:1019D0007F906F905F904F903F902F900895803749
:1019E00049F0883701F7D4FE02C06894D2F820E1AC
:1019F00030E00DC06894D4F8F6CF34FE03C0822FD7
:101A00008660D82E20E132E002C028E030E0F80104
:101A1000D7FE0FC060817181828193810C5F1F4F5F
:101A2000A5010E94E00EC82ECA183D2CE89437F894
:101A300052CF6081718190E080E00E5F1F4FF0CF48
:101A400042FC02C0839463CF8394839460CF842D3F
:101A5000867809F45CCFF6CFB70180E290E00E946F
:101A6000B00E83948214C0F3512C5ECF522C5818C0
:101A7000821408F459CFF8CF842D867809F466CF04
:101A80008BE241FE80E247FC8DE2B70190E05CCF43
:101A9000B70180E390E00E94B00E9A9457CF8FEF89
:101AA0009FEF84CF0F931F93CF93DF93869F800187
:101AB000879F100D969F100D1124C8010E946E0D76
:101AC000EC01009729F0A80170E060E00E949E0EF2
:101AD000CE01DF91CF911F910F9108950F931F9326
:101AE000CF93DF938230910510F482E090E0E09193
:101AF0006102F091620230E020E0B0E0A0E03097B7
:101B000099F42115310509F44AC0281B390B2430FA
:101B10003105D8F58A819B816115710589F1FB0139
:101B200093838283FE0111C0408151810281138120
:101B300048175907E0F04817590799F4109761F0D2
:101B400012960C93129713961C933296CF01DF9145
:101B5000CF911F910F91089500936102109362023B
:101B6000F4CF2115310551F04217530738F0A90180
:101B7000DB019A01BD01DF01F801C1CFEF01F9CF0F
:101B80009093620280936102CDCFFE01E20FF31FBA
:101B9000819391932250310939832883D7CF2091A3
:101BA0005F0230916002232B41F4209102013091B9
:101BB00003013093600220935F0220910001309175
:101BC00001012115310541F42DB73EB740910401C3
:101BD00050910501241B350BE0915F02F0916002EA
:101BE000E217F307A0F42E1B3F0B2817390778F0F4
:101BF000AC014E5F5F4F2417350748F04E0F5F1F53
:101C00005093600240935F02819391939FCFF0E0E5
:101C1000E0E09CCFCF93DF930097E9F0FC0132978F
:101C200013821282A0916102B0916202ED0130E054
:101C300020E01097A1F420813181820F931F209121
:101C40005F02309160022817390709F061C0F093F4
:101C50006002E0935F02DF91CF910895EA01CE1711
:101C6000DF07E8F54A815B819E0141155105B1F717
:101C7000E901FB83EA8349915991C40FD51FEC1701
:101C8000FD0761F4808191810296840F951FE9011F
:101C900099838883828193819B838A83F0E0E0E04B
:101CA00012968D919C9113970097B9F52D913C91C7
:101CB0001197CD010296820F931F20915F02309100
:101CC00060022817390739F6309751F510926202F1
:101CD00010926102B0936002A0935F02BCCFD383E5
:101CE000C28340815181840F951FC817D90761F4C1
:101CF0004E5F5F4F88819981480F591F5183408300
:101D00008A819B81938382832115310509F0B0CFAD
:101D1000F0936202E09361029ECFFD01DC01C0CF2F
:101D200013821282D7CFFC010590615070400110E0
:101D3000D8F7809590958E0F9F1F0895DC0101C004
:101D40006D9341505040E0F70895FC0161507040A0
:101D500001900110D8F7809590958E0F9F1F0895E0
:101D60000F931F93CF93DF93182F092FEB018B81D4
:101D700081FD09C01FEF0FEF812F902FDF91CF91D1
:101D80001F910F91089582FF14C02E813F818C8195
:101D90009D81281739073CF4E881F981CF0101962C
:101DA0009983888310838E819F8101969F838E8380
:101DB000E3CFE885F985812F0995892BA1F3DACF47
:101DC000FA01AA27283051F1203181F1E8946F936C
:101DD0006E7F6E5F7F4F8F4F9F4FAF4FB1E03ED012
:101DE000B4E03CD0670F781F891F9A1FA11D680FB0
:101DF000791F8A1F911DA11D6A0F711D811D911DE3
:101E0000A11D20D009F468943F912AE0269F112457
:101E10003019305D3193DEF6CF010895462F4770BB
:101E2000405D4193B3E00FD0C9F7F6CF462F4F7016
:101E3000405D4A3318F0495D31FD4052419302D074
:101E4000A9F7EACFB4E0A69597958795779567951A
:101E5000BA95C9F700976105710508959B01AC011A
:101E60000A2E06945795479537952795BA95C9F741
:101E7000620F731F841F951FA01D0895F894FFCF54
:101E800000006302800025780000000000DD0817D4
:0C1E90000A53086D085F08BD080D0A0029
:00000001FF
