:100000000C94A6000C94B8000C94B8000C94B800A2
:100010000C94B8000C94B8000C94B8000C94B80080
:100020000C94B8000C94B8000C94B8000C94B80070
:100030000C94B8000C94B8000C94B8000C94B80060
:100040000C946B010C94B8000C94B8000C94B8009C
:100050000C94B8000C94B8000C94B8000C94B80040
:100060000C94B8000C94B8000C94B8000C94B80030
:100070000C94B8000C94B8000C94B8000C94B80020
:100080000C94B8000C94B8000C94B80000003A002E
:1000900037003400310022006100640000003B00A2
:1000A00038003500320023006200650005050505B3
:1000B0000505050502020202020202020707040406
:1000C00004040404040407070303030303030303F2
:1000D00007010101010101010106060606060606E7
:1000E000060102040810204080010204081020408C
:1000F000800810010204081020408001020102045F
:1001000008102040800480402010080402010102F1
:100110000408102040800000000A0B0C00000000C2
:1001200000000104050600000000000000000000BF
:1001300000000000000000000000000000000000BF
:1001400000000000000000000000000011241FBE9D
:10015000CFEFD0E1DEBFCDBF21E0A0E0B1E001C034
:100160001D92A930B207E1F70E94B5010C941B0261
:100170000C940000E9E1F1E02491E4EEF0E0349128
:10018000EFEAF0E09491992359F12223C1F0215034
:100190002C30A8F4E22FF0E0E053FF4F0C94120251
:1001A000FB00FB00DF00DC00F100F400F700DF00E3
:1001B000DF00FF00050109012FB52F772FBDE92FC3
:1001C000F0E0EE0FFF1FE456FF4FA591B4919FB7EB
:1001D000F894EC91811121C030953E233C939FBF50
:1001E00008952FB52F7DEACF2FB5277FE7CF25B50F
:1001F0002F7D25BDE4CF23B72F7D23BFE0CF2091F6
:100200008B002F7720938B00DACF20918B002F7DEE
:10021000F9CF20918B00277FF5CF3E2BDFCF3FB763
:10022000F8948091050190910601A0910701B09189
:10023000080122B706B600FE05C02F3F19F001964F
:10024000A11DB11D3FBFBA2FA92F982F8827BC0130
:10025000CD01620F711D811D911D43E0660F771F57
:10026000881F991F4A95D1F708958F929F92AF9258
:10027000BF92CF92DF92EF92FF920E940F014B014B
:100280005C0188EEC82E83E0D82EE12CF12C0E9470
:100290000F01681979098A099B09683E7340810535
:1002A0009105A8F321E0C21AD108E108F10888EE0F
:1002B000880E83E0981EA11CB11CC114D104E10476
:1002C000F10429F7FF90EF90DF90CF90BF90AF90AF
:1002D0009F908F9008951F920F920FB60F92112446
:1002E0002F933F938F939F93AF93BF93809101017F
:1002F00090910201A0910301B0910401309100019D
:1003000026E0230F2D3758F50296A11DB11D20932D
:1003100000018093010190930201A0930301B09327
:1003200004018091050190910601A0910701B0910F
:1003300008010196A11DB11D80930501909306014E
:10034000A0930701B0930801BF91AF919F918F9146
:100350003F912F910F900FBE0F901F90189529E895
:10036000230F0396A11DB11DD2CF789483B780646B
:1003700083BF83B7886083BF83B7846083BF87B739
:10038000816087BF1EBC8EB582608EBD8EB58160D8
:100390008EBD8FB581608FBD85B5846085BD85B507
:1003A000806485BD80918A00826080938A008091FC
:1003B0008A00816080938A0080918B0081608093A5
:1003C0008B00329A319A3098379A1AB8E4EEF0E0FE
:1003D0002491EFEAF0E08491882399F090E0880F6F
:1003E000991FFC01E457FF4FA591B491FC01E4561D
:1003F000FF4F859194918FB7F894EC91E22BEC9399
:100400008FBFC0E0D0E081E00E94BA000E943501B9
:1004100080E00E94BA000E9435012097A1F30E945B
:100420000000F1CFEE0FFF1F0024001C0BBE079051
:0A043000F691E02D0994F894FFCF37
:00000001FF
