:100000000C9447000C9471000C9471000C947100D6
:100010000C9471000C9471000C9471000C9471009C
:100020000C9471000C9471000C9471000C9471008C
:100030000C9471000C9471000C9471000C9471007C
:100040000C9488000C9471000C948E020C94C402E1
:100050000C9471000C9471000C9471000C9471005C
:100060000C9471000C9471000C9471000C9471004C
:100070000C9471000C9471000C9471000C9471003C
:100080000C9471000C9471000C947100F80211240E
:100090001FBECFEFD0E1DEBFCDBF11E0A0E0B1E0E9
:1000A000E4E7F7E000E00BBF02C007900D92A0323A
:1000B000B107D9F721E0A0E2B1E001C01D92A63C52
:1000C000B207E1F710E0C7E4D0E004C02197FE01D9
:1000D0000E94AF03C634D107C9F70E947D030C9478
:1000E000B8030C94000026E040E855E260E070E0C0
:1000F00089E291E00C94320260E071E089E291E0E3
:100100000E94650368EE73E080E090E00C94F800D4
:100110001F920F920FB60F9211242F933F938F933C
:100120009F93AF93BF938091210190912201A09161
:100130002301B09124013091200126E0230F2D37B7
:1001400058F50296A11DB11D209320018093210135
:1001500090932201A0932301B09324018091250163
:1001600090912601A0912701B09128010196A11D2F
:10017000B11D8093250190932601A0932701B09390
:100180002801BF91AF919F918F913F912F910F9037
:100190000FBE0F901F90189529E8230F0396A11DFD
:1001A000B11DD2CF3FB7F8948091250190912601DF
:1001B000A0912701B091280122B706B600FE05C024
:1001C0002F3F19F00196A11DB11D3FBFBA2FA92FD6
:1001D000982F8827BC01CD01620F711D811D911DD3
:1001E00043E0660F771F881F991F4A95D1F708953E
:1001F0008F929F92AF92BF92CF92DF92EF92FF9237
:100200006B017C010E94D2004B015C01C114D1043E
:10021000E104F104E9F00E948C030E94D200681905
:1002200079098A099B09683E73408105910570F33D
:1002300021E0C21AD108E108F10888EE880E83E0B7
:10024000981EA11CB11CC114D104E104F10429F7CA
:10025000FF90EF90DF90CF90BF90AF909F908F90E6
:100260000895789483B7806483BF83B7886083BF21
:1002700083B7846083BF87B7816087BF1EBC8EB59C
:1002800082608EBD8EB581608EBD8FB581608FBD61
:1002900085B5846085BD85B5806485BDEAE8F0E0FC
:1002A000808182608083808181608083EBE8F0E0E0
:1002B000808181608083329A319A3098379A1AB857
:1002C0000895FC01918D228D892F90E0805C9F4FD5
:1002D000821B91098F7399270895FC01918D828D5E
:1002E000981731F0828DE80FF11D858D90E008950B
:1002F0008FEF9FEF0895FC01918D828D981761F02B
:10030000A28DAE0FBF2FB11D5D968C91928D9F5F18
:100310009F73928F90E008958FEF9FEF08958EEE78
:1003200092E0892B49F080E090E0892B29F00E942F
:10033000EE0281110E94000080E090E0892B49F0DC
:1003400080E090E0892B29F00E94000081110C943C
:1003500000000895FC01A48DA80FB92FB11DA35A68
:10036000BF4F2C91848D90E001968F739927848FD5
:10037000A689B7892C93A089B1898C9180648C93CC
:10038000938D848D981306C00288F389E02D8081B7
:100390008F7D80830895CF93DF93EC01888D882330
:1003A000B9F0AA89BB89E889F9898C9185FD03C0D8
:1003B000808186FD0DC00FB607FCF7CF8C9185FFBD
:1003C000F2CF808185FFEDCFCE010E94AA01E9CF57
:1003D000DF91CF910895EF92FF920F931F93CF93E8
:1003E000DF93EC0181E0888F9B8D8C8D981316C074
:1003F000E889F989808185FF11C0EE89FF896083D2
:10040000E889F98980818064808381E090E0DF91D0
:10041000CF911F910F91FF90EF900895F62E0B8DC5
:1004200010E00F5F1F4F0F731127E02E8C8D8E1180
:100430000CC00FB607FCFACFE889F989808185FFE7
:10044000F5CFCE010E94AA01F1CFEB8DEC0FFD2F6D
:10045000F11DE35AFF4FF0820B8FEA89FB898081FF
:100460008062D2CFCF92DF92EF92FF921F93CF9311
:10047000DF93EC016A017B01122F60E874E88EE1E2
:1004800090E0A70196010E948D0321503109410996
:1004900051095695479537952795E889F98982E05E
:1004A0008083211580E1380798F0E889F989108266
:1004B00060E472E48FE090E0A70196010E948D0352
:1004C000215031094109510956954795379527958E
:1004D000EC85FD853083EE85FF852083188EEC89C1
:1004E000FD891083EA89FB89808180618083EA89A4
:1004F000FB89808188608083EA89FB8980818068AC
:100500008083EA89FB8980818F7D8083DF91CF9111
:100510001F91FF90EF90DF90CF9008951F920F9260
:100520000FB60F9211240BB60F922F938F939F93B8
:10053000EF93FF93E0913901F0913A018081E091CE
:100540003F01F091400182FD1DC0908180914201E8
:100550008F5F8F7320914301821741F0E091420138
:10056000F0E0E75DFE4F958F80934201FF91EF91A0
:100570009F918F912F910F900BBE0F900FBE0F90F8
:100580001F9018958081F2CF1F920F920FB60F9295
:1005900011240BB60F922F933F934F935F936F935A
:1005A0007F938F939F93AF93BF93EF93FF9389E2D2
:1005B00091E00E94AA01FF91EF91BF91AF919F91AD
:1005C0008F917F916F915F914F913F912F910F90FC
:1005D0000BBE0F900FBE0F901F90189589E291E00F
:1005E0000E94610121E0892B09F420E0822F089507
:1005F000E9E2F1E01382128288EE93E0A0E0B0E03D
:1006000084839583A683B78380E191E0918380837F
:1006100080E990E09587848789E290E097878687D4
:100620008BE290E0918B808B8AE290E0938B828BBF
:1006300085E990E0958B848B8CE290E0978B868B9C
:10064000118E128E138E148E0895AF92BF92CF9298
:10065000DF92EF92FF920F931F93CF93DF936C0182
:100660007B018B01040F151FEB015E01AE18BF0863
:10067000C017D10759F06991D601ED91FC91019015
:10068000F081E02DC6010995892B79F7C501DF912D
:10069000CF911F910F91FF90EF90DF90CF90BF907F
:1006A000AF900895FB0101900020E9F73197AF0169
:1006B000461B570BDC01ED91FC910280F381E02D8C
:1006C00009946CE171E00C9452030F931F93CF9344
:1006D000DF938C01D0E0C0E06115710519F00E9434
:1006E0005203EC01C8010E9461038C0F9D1FDF9132
:1006F000CF911F910F91089508950E9431010E949A
:100700007C030E947300CFE8D1E00E947C00209718
:10071000E1F30E948F01F9CF0895A1E21A2EAA1BDE
:10072000BB1BFD010DC0AA1FBB1FEE1FFF1FA217A1
:10073000B307E407F50720F0A21BB30BE40BF50B9E
:10074000661F771F881F991F1A9469F76095709527
:10075000809590959B01AC01BD01CF010895EE0FEE
:10076000FF1F0024001C0BBE0790F691E02D09949A
:04077000F894FFCF2B
:1007740048656C6C6F20776F726C64000000000039
:10078400EB01250361017B016D01CB010D0A000022
:00000001FF
