:100000000C94AD000C94D7000C94D7000C94D7003E
:100010000C94D7000C94D7000C94D7000C94D70004
:100020000C94D7000C94D7000C94D7000C94D700F4
:100030000C94D7000C94D7000C94D7000C94D700E4
:100040000C9444040C94D7000C94F2060C942807EA
:100050000C94D7000C94D7000C94D7000C94D700C4
:100060000C94D7000C94D7000C94D7000C94D700B4
:100070000C94D7000C94D7000C9489070C94BF07FC
:100080000C94D7000C94D7000C94D7000001020305
:1000900004050000000A0B0C000000000000010431
:1000A0000506000000000000000000000000000045
:1000B0000000000000000000000000000000000040
:1000C0000000000000000001020408102040800130
:1000D000020408102040800810010204081020408B
:1000E000800102010204081020408004804020109A
:1000F00008040201010204081020408005050505DE
:1001000005050505020202020202020207070404B5
:1001100004040404040407070303030303030303A1
:100120000701010101010101010606060606060696
:100130000600003B003800350032002300620065F5
:100140000000003A003700340031002200610064F2
:10015000000050015C07F3075E0111241FBECFEFC2
:10016000D0E1DEBFCDBF11E0A0E0B1E0E6EBF3E10E
:1001700000E00BBF02C007900D92AE33B107D9F774
:1001800023E0AEE3B1E001C01D92AE31B207E1F76A
:1001900010E0CCEAD0E004C02197FE010E949B0849
:1001A000C93AD107C9F70E9467080C94CE090C948C
:1001B000000022E231E0FC01318320830C944304EF
:1001C000CF93DF93EC010E94D900CE01DF91CF9154
:1001D0000C9476080F931F938EE591E00E94B7036D
:1001E00001E11DED2CEC3BEB4AEA50E060E070E0F1
:1001F0008EE591E00E941A036CE38EE591E00E9487
:10020000880263E08EE591E00E94650362E070E0A1
:100210008EE591E00E947D038EE591E00E94C4028C
:100220008EE591E00E948F0226E040E052EC61E012
:1002300070E08DE792E00E94960666E071E08DE73F
:1002400092E00E945C0826E040E052EC61E070E041
:1002500080EE91E00E949606EEE3F1E080E090E00F
:10026000A0E8BFE381939193A193B19321E0EE3590
:10027000F207C1F71F910F91089540E26EE371E01C
:100280008EE591E00E94170368EE73E080E090E055
:100290000E94B40468E171E08DE792E00C945C0880
:1002A00060EE71E086E791E00E942F0442E050E0AA
:1002B00063E070E08EE591E00C94730286E791E0D4
:1002C0000C94D900CF93CFB7F8948091D6018111C7
:1002D00023C0E4E0F1E08491EFECF0E09491E82FAA
:1002E000F0E0EE0FFF1FEF5BFE4FA591B491EC9194
:1002F000E92321F461E088E00E94970561E088E04D
:100300000E945B056C9A6E9A61E089E00E945B0531
:1003100061E08AE00E945B058091D6018F5F809347
:10032000D601CFBFCF9108958FB90000779BFECF44
:100330008FB10895CF93DF93EC016D988DB1837FDA
:100340008DB98DB18C7F8DB9709A8A810E94970585
:100350008C899D89DF91CF910C94ED04FC01208163
:100360003181828193812817390719F0822F0C94EB
:100370009705089560E00C949A0161E00C949A014D
:100380001F93CF93DF93EC01162F0E94BA01812FA8
:100390008F710E9494018FEF0E949401182FCE015B
:1003A0000E94BD01812FDF91CF911F910895CF92BF
:1003B000DF92EF92FF920F931F93CF93DF937C0115
:1003C000C62F6A01122F0E94BA018C2F8F71806292
:1003D0000E949401082FE601115020F089910E949B
:1003E0009401FACFC7010E94BD01802FDF91CF9108
:1003F0001F910F91FF90EF90DF90CF9008950F9392
:100400001F93CF93DF938C01C62FD42F0E94BA0184
:100410008C2F8F7180620E949401C82F8D2F0E94B3
:100420009401C8010E94BD018C2FDF91CF911F91D3
:100430000F910895BF92CF92DF92EF92FF920F93A8
:100440001F93CF93DF938C01B62EC72EF22EFC01A3
:10045000C781DC2F4C1708F4D42FF8018085CD1B01
:100460008111C0E0C8010E94BA018F2D0E94940141
:10047000D82EEB2CFC2CD15030F0F70181917F016C
:100480000E949401F8CFC15020F080E00E949401B6
:10049000FACFC8010E94BD018D2DDF91CF911F9130
:1004A0000F91FF90EF90DF90CF90BF9008951F9332
:1004B000CF93DF93EC01162F0E94BA01812F0E9487
:1004C0009401182FCE010E94BD01812FDF91CF91A1
:1004D0001F91089562EE0C94570261EE0C9457023E
:1004E0006FEF0C945702FC01718360835383428346
:1004F000168280E28783108685E0868785E090E01B
:10050000A0E0B0E0848B958BA68BB78B1186089505
:10051000462F6D3708F04DE765E00C94FF01CF934F
:10052000DF93EC0160E00E94AE01888999890E9406
:10053000ED046DE1CE010E94C00181FF07C08889F2
:1005400099890E94ED04CE010E946D0260E0CE0107
:100550000E94C001482F4E7F60E0CE010E94FF0143
:1005600062E0CE010E94C001ECE8F0E0E49141E0DD
:1005700050E001C0440FEA95EAF7482B62E0CE0153
:10058000DF91CF910C94FF01CF93DF93EC0160E0FA
:100590000E94C00181FD0EC0482F426060E0CE0184
:1005A0000E94FF0165E070E080E090E0DF91CF9174
:1005B0000C94B404DF91CF9108950F93CF93DF9300
:1005C000EC0121110DC020EACE010E941A02002385
:1005D00049F061E0CE01DF91CF910F910C94AE0113
:1005E00020EBF2CFDF91CF910F9108950F93CF932E
:1005F000DF93EC0101E00E94DD02CE010E94700257
:100600008073D9F360E0CE010E94AE0140E767E05D
:10061000CE010E94FF0184FF08C0CE010E946D023E
:1006200080E0DF91CF910F91089581E0FACF20E033
:100630000C94F602EF92FF920F931F93CF93DF93E8
:10064000CDB7DEB728970FB6F894DEBF0FBECDBF8B
:100650007C0109831A832B833C834D835E836F83E4
:100660007887FC012685AE014F5F5F4F6AE00E94EC
:10067000D701F7012685AE014F5F5F4F60E1C701EB
:100680000E94D701F701478161E1C7010E94FF0184
:1006900028960FB6F894DEBF0FBECDBFDF91CF9185
:1006A0001F910F91FF90EF900895CF93DF93EC018E
:1006B0000E94BA0180E50E94940183E70E949401A0
:1006C000CE01DF91CF910C94BD010F931F93CF9377
:1006D0008C01C62F66E00E94C001887FC43058F4A8
:1006E000CC0FCF5F4C2F482B66E0C801CF911F91F4
:1006F0000F910C94FF01C7E0F5CFEF92FF920F939B
:100700001F93CF938C017B0166E00E94C001C82F2C
:10071000C77D82E0E816F104E9F4C0628BE990E05D
:10072000A0E0B0E0F801808B918BA28BB38B4C2FB3
:1007300066E0C8010E94FF0166E0C8010E94C00196
:1007400091E08C1390E0892FCF911F910F91FF9032
:10075000EF90089585E590E0A0E0B0E0EA94EF28FE
:1007600009F7C86081E490E0A0E0B0E0DBCF1F9320
:10077000CF93DF93EC01888199812A813B81821795
:10078000930719F061E00E945B058A819B812881B3
:1007900039812817390719F061E00E945B050E9432
:1007A000620160E0CE010E94AE0161E0CE010E94D4
:1007B0009A0165E070E080E090E00E94B4044CE0B3
:1007C00060E0CE010E94FF014FE564E0CE010E948F
:1007D000FF0162E070E0CE010E947D03882311F0EA
:1007E00081E08E8366E0CE010E94C001182F70E088
:1007F00060E0CE010E947D03CE010E94550340E0DF
:100800006DE1CE010E94FF0140E06CE1CE010E944B
:10081000FF01188640E767E0CE010E94FF016CE40B
:10082000CE010E948802CE010E946A02CE010E947F
:100830006D02CE010E94C40260E0CE010E94C001A0
:10084000482F4E7F60E0CE010E94FF01115081E0F1
:100850001E3F08F080E0DF91CF911F910895CF9364
:10086000DF93EC010E943B0482E291E0998388834C
:10087000DF91CF9108952AE231E0FC01318320839A
:1008800073836283089508951F920F920FB60F929B
:1008900011242F933F938F939F93AF93BF93809196
:1008A000D8019091D901A091DA01B091DB0130918A
:1008B000D70126E0230F2D3758F50296A11DB11D53
:1008C0002093D7018093D8019093D901A093DA01A6
:1008D000B093DB018091DC019091DD01A091DE01FC
:1008E000B091DF010196A11DB11D8093DC019093B1
:1008F000DD01A093DE01B093DF01BF91AF919F9125
:100900008F913F912F910F900FBE0F901F901895D0
:1009100029E8230F0396A11DB11DD2CF3FB7F8944C
:100920008091DC019091DD01A091DE01B091DF01A9
:1009300022B706B600FE05C02F3F19F00196A11D93
:10094000B11D3FBFBA2FA92F982F8827BC01CD0119
:10095000620F711D811D911D43E0660F771F881F77
:10096000991F4A95D1F708958F929F92AF92BF92A7
:10097000CF92DF92EF92FF926B017C010E948E0476
:100980004B015C01C114D104E104F104E9F00E94BF
:1009900078080E948E04681979098A099B09683EC3
:1009A00073408105910570F321E0C21AD108E10876
:1009B000F10888EE880E83E0981EA11CB11CC114BA
:1009C000D104E104F10429F7FF90EF90DF90CF907C
:1009D000BF90AF909F908F9008958330910528F03D
:1009E000880F991F04970197F1F70895789483B7BA
:1009F000806483BF83B7886083BF83B7846083BF0D
:100A000087B7816087BF1EBC8EB582608EBD8EB5F4
:100A100081608EBD8FB581608FBD85B5846085BDD9
:100A200085B5806485BDEAE8F0E0808182608083DE
:100A3000808181608083EBE8F0E080818160808349
:100A4000329A319A3098379A1AB8089581508C307A
:100A500048F5E82FF0E0E15DFA4F0C949B0849055A
:100A6000490552053B053F0542054505520552051E
:100A70004D05530557058FB58F778FBD08958FB5F9
:100A80008F7DFBCF8FB5877FF8CF85B58F7D85BDF7
:100A9000089583B78F7D83BF089580918B008F77F2
:100AA00080938B00089580918B008F7DF9CF80918A
:100AB0008B00877FF5CFCF93DF9390E0FC01E95364
:100AC000FF4F249184509F4FFC0184918823C9F0EB
:100AD00090E0880F991FFC01EF5BFE4FA591B49148
:100AE000FC01EF5CFE4FC591D49161110DC09FB721
:100AF000F8948C91209582238C93888128232883D5
:100B00009FBFDF91CF910895623051F49FB7F89461
:100B10003C91822F809583238C93E8812E2BEFCFFD
:100B20008FB7F894EC912E2B2C938FBFEACF1F93A5
:100B3000CF93DF93282F30E0F901EE56FF4F8491D9
:100B4000F901E953FF4FD491F901E450FF4FC491EB
:100B5000CC23A9F0162F81110E942605EC2FF0E07E
:100B6000EE0FFF1FEF5CFE4FA591B4918FB7F89485
:100B7000EC91111108C0D095DE23DC938FBFDF917B
:100B8000CF911F910895DE2BF8CFFC01918D228D1E
:100B9000892F90E0805C9F4F821B91098F7399276A
:100BA0000895FC01918D828D981731F0828DE80FA8
:100BB000F11D858D90E008958FEF9FEF0895FC0162
:100BC000918D828D981761F0A28DAE0FBF2FB11D50
:100BD0005D968C91928D9F5F9F73928F90E00895A8
:100BE0008FEF9FEF089582E597E0892B49F080E031
:100BF00090E0892B29F00E94520781110E94000089
:100C000089EE97E0892B49F080E090E0892B29F06C
:100C10000E94E90781110C9400000895FC01A48D45
:100C2000A80FB92FB11DA35ABF4F2C91848D90E00E
:100C300001968F739927848FA689B7892C93A089F1
:100C4000B1898C9180648C93938D848D981306C0A8
:100C50000288F389E02D80818F7D80830895CF9372
:100C6000DF93EC01888D8823B9F0AA89BB89E889D4
:100C7000F9898C9185FD03C0808186FD0DC00FB67A
:100C800007FCF7CF8C9185FFF2CF808185FFEDCFF8
:100C9000CE010E940E06E9CFDF91CF910895EF9229
:100CA000FF920F931F93CF93DF93EC0181E0888F26
:100CB0009B8D8C8D981316C0E889F989808185FFFA
:100CC00011C0EE89FF896083E889F9898081806499
:100CD000808381E090E0DF91CF911F910F91FF9091
:100CE000EF900895F62E0B8D10E00F5F1F4F0F73DE
:100CF0001127E02E8C8D8E110CC00FB607FCFACF99
:100D0000E889F989808185FFF5CFCE010E940E0622
:100D1000F1CFEB8DEC0FFD2FF11DE35AFF4FF08269
:100D20000B8FEA89FB8980818062D2CFCF92DF92DC
:100D3000EF92FF921F93CF93DF93EC016A017B0147
:100D4000122F60E874E88EE190E0A70196010E94FE
:100D50007908215031094109510956954795379530
:100D60002795E889F98982E08083211580E1380799
:100D700098F0E889F989108260E472E48FE090E0ED
:100D8000A70196010E9479082150310941095109B2
:100D90005695479537952795EC85FD853083EE85EB
:100DA000FF852083188EEC89FD891083EA89FB89F1
:100DB000808180618083EA89FB898081886080836B
:100DC000EA89FB89808180688083EA89FB89808148
:100DD0008F7D8083DF91CF911F91FF90EF90DF9007
:100DE000CF9008951F920F920FB60F9211240BB659
:100DF0000F922F938F939F93EF93FF93E091F001C6
:100E0000F091F1018081E091F601F091F70182FD0E
:100E10001DC090818091F9018F5F8F732091FA013D
:100E2000821741F0E091F901F0E0E052FE4F958F1A
:100E30008093F901FF91EF919F918F912F910F90E6
:100E40000BBE0F900FBE0F901F9018958081F2CFB0
:100E50001F920F920FB60F9211240BB60F922F9381
:100E60003F934F935F936F937F938F939F93AF9332
:100E7000BF93EF93FF9380EE91E00E940E06FF91E7
:100E8000EF91BF91AF919F918F917F916F915F9102
:100E90004F913F912F910F900BBE0F900FBE0F906F
:100EA0001F90189580EE91E00E94C50521E0892BE6
:100EB00009F420E0822F0895E0EEF1E0138212821F
:100EC00088EE93E0A0E0B0E084839583A683B783A7
:100ED00082E391E09183808380E990E09587848725
:100EE00089E290E0978786878BE290E0918B808BF8
:100EF0008AE290E0938B828B85E990E0958B848BDE
:100F00008CE290E0978B868B118E128E138E148E4E
:100F100008951F920F920FB60F9211240BB60F92E5
:100F20002F938F939F93EF93FF93E0918D02F09116
:100F30008E028081E0919302F091940282FD1DC0A7
:100F40009081809196028F5F8F7320919702821714
:100F500041F0E0919602F0E0E358FD4F958F8093C9
:100F60009602FF91EF919F918F912F910F900BBE61
:100F70000F900FBE0F901F9018958081F2CF1F9297
:100F80000F920FB60F9211240BB60F922F933F932F
:100F90004F935F936F937F938F939F93AF93BF9381
:100FA000EF93FF938DE792E00E940E06FF91EF9181
:100FB000BF91AF919F918F917F916F915F914F9171
:100FC0003F912F910F900BBE0F900FBE0F901F906F
:100FD00018958DE792E00E94C50521E0892B09F460
:100FE00020E0822F0895EDE7F2E01382128288EE6E
:100FF00093E0A0E0B0E084839583A683B78382E387
:1010000091E09183808388E990E09587848789E9DE
:1010100090E0978786878BE990E0918B808B8AE9B7
:1010200090E0938B828B8DE990E0958B848B8CE99B
:1010300090E0978B868B118E128E138E148E0895EE
:10104000AF92BF92CF92DF92EF92FF920F931F93D6
:10105000CF93DF936C017B018B01040F151FEB0114
:101060005E01AE18BF08C017D10759F06991D601CB
:10107000ED91FC910190F081E02DC6010995892B3D
:1010800079F7C501DF91CF911F910F91FF90EF90FC
:10109000DF90CF90BF90AF900895FB0101900020AA
:1010A000E9F73197AF01461B570BDC01ED91FC913D
:1010B0000280F381E02D09946115710511F00C9403
:1010C0004D0890E080E008950E94C90908950E94AB
:1010D000F6040E9466080E94EA00C3EFD5E00E9471
:1010E0003D012097E1F30E94F305F9CF0C944009EC
:1010F0000895A1E21A2EAA1BBB1BFD010DC0AA1F59
:10110000BB1FEE1FFF1FA217B307E407F50720F070
:10111000A21BB30BE40BF50B661F771F881F991FEB
:101120001A9469F760957095809590959B01AC0134
:10113000BD01CF010895EE0FFF1F0024001C0BBE60
:101140000790F691E02D09940F931F93CF93DF93AF
:101150008230910510F482E090E0E0911C03F09160
:101160001D0330E020E0B0E0A0E0309799F42115B5
:10117000310509F44AC0281B390B24303105D8F554
:101180008A819B816115710589F1FB0193838283BB
:10119000FE0111C040815181028113814817590716
:1011A000E0F04817590799F4109761F012960C93E4
:1011B000129713961C933296CF01DF91CF911F9116
:1011C0000F91089500931C0310931D03F4CF211574
:1011D000310551F04217530738F0A901DB019A019C
:1011E000BD01DF01F801C1CFEF01F9CF90931D03DD
:1011F00080931C03CDCFFE01E20FF31F81939193E7
:101200002250310939832883D7CF20911A03309196
:101210001B03232B41F420910201309103013093F1
:101220001B0320931A032091000130910101211525
:10123000310541F42DB73EB74091040150910501AD
:10124000241B350BE0911A03F0911B03E217F307FF
:10125000A0F42E1B3F0B2817390778F0AC014E5F26
:101260005F4F2417350748F04E0F5F1F50931B0345
:1012700040931A03819391939FCFF0E0E0E09CCFDD
:10128000CF93DF930097E9F0FC013297138212822B
:10129000A0911C03B0911D03ED0130E020E01097F8
:1012A000A1F420813181820F931F20911A03309184
:1012B0001B032817390709F061C0F0931B03E09363
:1012C0001A03DF91CF910895EA01CE17DF07E8F501
:1012D0004A815B819E0141155105B1F7E901FB830C
:1012E000EA8349915991C40FD51FEC17FD0761F4AA
:1012F000808191810296840F951FE90199838883EB
:10130000828193819B838A83F0E0E0E012968D9145
:101310009C9113970097B9F52D913C911197CD01B0
:101320000296820F931F20911A0330911B032817F6
:10133000390739F6309751F510921D0310921C03AE
:10134000B0931B03A0931A03BCCFD383C283408105
:101350005181840F951FC817D90761F44E5F5F4F05
:1013600088819981480F591F518340838A819B81CD
:10137000938382832115310509F0B0CFF0931D03CB
:10138000E0931C039ECFFD01DC01C0CF13821282CB
:10139000D7CF81E090E0F8940C94CE0910E0CCEA2D
:1013A000D0E004C0FE010E949B082196CD3AD107EF
:0613B000C9F7F894FFCF1D
:1013B60000001E03800053657269616C3120696EFE
:1013C6006974204F4B0D0A0048656C6C6F00000075
:1013D6000000D900E0000000000064086408000076
:0E13E60000004F062008C505DF05D1052F06C3
:00000001FF
