:100000000C94AD000C94D7000C94D7000C94D7003E
:100010000C94D7000C94D7000C94D7000C94D70004
:100020000C94D7000C94D7000C94D7000C94D700F4
:100030000C94D7000C94D7000C94D7000C94D700E4
:100040000C944C040C94D7000C94FA060C943007D2
:100050000C94D7000C94D7000C94D7000C94D700C4
:100060000C94D7000C94D7000C94D7000C94D700B4
:100070000C94D7000C94D7000C9491070C94C707EC
:100080000C94D7000C94D7000C94D7000001020305
:1000900004050000000A0B0C000000000000010431
:1000A0000506000000000000000000000000000045
:1000B0000000000000000000000000000000000040
:1000C0000000000000000001020408102040800130
:1000D000020408102040800810010204081020408B
:1000E000800102010204081020408004804020109A
:1000F00008040201010204081020408005050505DE
:1001000005050505020202020202020207070404B5
:1001100004040404040407070303030303030303A1
:100120000701010101010101010606060606060696
:100130000600003B003800350032002300620065F5
:100140000000003A003700340031002200610064F2
:10015000000058016407FB07660111241FBECFEFA2
:10016000D0E1DEBFCDBF11E0A0E0B1E0ECEFF3E104
:1001700000E00BBF02C007900D92AE33B107D9F774
:1001800023E0AEE3B1E001C01D92AE30B207E1F76B
:1001900010E0CCEAD0E004C02197FE010E94BE0826
:1001A000C93AD107C9F70E948A080C94F1090C9446
:1001B000000022E231E0FC01318320830C944B04E7
:1001C000CF93DF93EC010E94D900CE01DF91CF9154
:1001D0000C9499080F931F938EE491E00E94BF0343
:1001E00001E11DED2CEC3BEB4AEA50E060E070E0F1
:1001F0008EE491E00E9422036CE38EE491E00E9481
:10020000900263E08EE491E00E946D0362E070E092
:100210008EE491E00E9485038EE491E00E94CC027E
:100220008EE491E00E94970226E040E052EC61E00B
:1002300070E08DE692E00E949E0666E071E08DE639
:1002400092E00E94640826E040E052EC61E070E039
:1002500080ED91E00E949E06EEE3F1E080E090E008
:10026000A0E8BFE380839183A283B38384839583D3
:10027000A683B78380879187A287B3878487958772
:10028000A687B7871F910F91089568E171E08DE609
:1002900092E00E94700840E16EE371E08EE491E02C
:1002A0000E941F0368EE73E080E090E00C94BC04B1
:1002B00060ED71E086E691E00E94370442E050E094
:1002C00063E070E08EE491E00C947B0286E691E0BE
:1002D0000C94D900CF93CFB7F8948091C6018111C7
:1002E00023C0E4E0F1E08491EFECF0E09491E82F9A
:1002F000F0E0EE0FFF1FEF5BFE4FA591B491EC9184
:10030000E92321F461E088E00E949F0561E088E034
:100310000E9463056C9A6E9A61E089E00E94630511
:1003200061E08AE00E9463058091C6018F5F80933F
:10033000C601CFBFCF9108958FB90000779BFECF44
:100340008FB10895CF93DF93EC016D988DB1837FCA
:100350008DB98DB18C7F8DB9709A8A810E949F056D
:100360008C899D89DF91CF910C94F504FC0120814B
:100370003181828193812817390719F0822F0C94DB
:100380009F05089560E00C94A20161E00C94A20125
:100390001F93CF93DF93EC01162F0E94C201812F90
:1003A0008F710E949C018FEF0E949C01182FCE013B
:1003B0000E94C501812FDF91CF911F910895CF92A7
:1003C000DF92EF92FF920F931F93CF93DF937C0105
:1003D000C62F6A01122F0E94C2018C2F8F7180627A
:1003E0000E949C01082FE601115020F089910E9483
:1003F0009C01FACFC7010E94C501802FDF91CF91E8
:100400001F910F91FF90EF90DF90CF9008950F9381
:100410001F93CF93DF938C01C62FD42F0E94C2016C
:100420008C2F8F7180620E949C01C82F8D2F0E949B
:100430009C01C8010E94C5018C2FDF91CF911F91B3
:100440000F910895BF92CF92DF92EF92FF920F9398
:100450001F93CF93DF938C01B62EC72EF22EFC0193
:10046000C781DC2F4C1708F4D42FF8018085CD1BF1
:100470008111C0E0C8010E94C2018F2D0E949C0121
:10048000D82EEB2CFC2CD15030F0F70181917F015C
:100490000E949C01F8CFC15020F080E00E949C0196
:1004A000FACFC8010E94C5018D2DDF91CF911F9118
:1004B0000F91FF90EF90DF90CF90BF9008951F9322
:1004C000CF93DF93EC01162F0E94C201812F0E946F
:1004D0009C01182FCE010E94C501812FDF91CF9181
:1004E0001F91089562EE0C945F0261EE0C945F021E
:1004F0006FEF0C945F02FC0171836083538342832E
:10050000168280E28783108685E0868785E090E00A
:10051000A0E0B0E0848B958BA68BB78B11860895F5
:10052000462F6D3708F04DE765E00C940702CF9336
:10053000DF93EC0160E00E94B601888999890E94EE
:10054000F5046DE1CE010E94C80181FF07C08889D2
:1005500099890E94F504CE010E94750260E0CE01E7
:100560000E94C801482F4E7F60E0CE010E94070222
:1005700062E0CE010E94C801ECE8F0E0E49141E0C5
:1005800050E001C0440FEA95EAF7482B62E0CE0143
:10059000DF91CF910C940702CF93DF93EC0160E0E1
:1005A0000E94C80181FD0EC0482F426060E0CE016C
:1005B0000E94070265E070E080E090E0DF91CF915B
:1005C0000C94BC04DF91CF9108950F93CF93DF93E8
:1005D000EC0121110DC020EACE010E94220200236D
:1005E00049F061E0CE01DF91CF910F910C94B601FB
:1005F00020EBF2CFDF91CF910F9108950F93CF931E
:10060000DF93EC0101E00E94E502CE010E94780236
:100610008073D9F360E0CE010E94B60140E767E045
:10062000CE010E94070284FF08C0CE010E9475021D
:1006300080E0DF91CF910F91089581E0FACF20E023
:100640000C94FE02EF92FF920F931F93CF93DF93D0
:10065000CDB7DEB728970FB6F894DEBF0FBECDBF7B
:100660007C0109831A832B833C834D835E836F83D4
:100670007887FC012685AE014F5F5F4F6AE00E94DC
:10068000DF01F7012685AE014F5F5F4F60E1C701D3
:100690000E94DF01F701478161E1C7010E94070263
:1006A00028960FB6F894DEBF0FBECDBFDF91CF9175
:1006B0001F910F91FF90EF900895CF93DF93EC017E
:1006C0000E94C20180E50E949C0183E70E949C0178
:1006D000CE01DF91CF910C94C5010F931F93CF935F
:1006E0008C01C62F66E00E94C801887FC43058F490
:1006F000CC0FCF5F4C2F482B66E0C801CF911F91E4
:100700000F910C940702C7E0F5CFEF92FF920F9381
:100710001F93CF938C017B0166E00E94C801C82F14
:10072000C77D82E0E816F104E9F4C0628BE990E04D
:10073000A0E0B0E0F801808B918BA28BB38B4C2FA3
:1007400066E0C8010E94070266E0C8010E94C80175
:1007500091E08C1390E0892FCF911F910F91FF9022
:10076000EF90089585E590E0A0E0B0E0EA94EF28EE
:1007700009F7C86081E490E0A0E0B0E0DBCF1F9310
:10078000CF93DF93EC01888199812A813B81821785
:10079000930719F061E00E9463058A819B8128819B
:1007A00039812817390719F061E00E9463050E941A
:1007B0006A0160E0CE010E94B60161E0CE010E94B4
:1007C000A20165E070E080E090E00E94BC044CE093
:1007D00060E0CE010E9407024FE564E0CE010E9476
:1007E000070262E070E0CE010E948503882311F0C9
:1007F00081E08E8366E0CE010E94C801182F70E070
:1008000060E0CE010E948503CE010E945D0340E0BE
:100810006DE1CE010E94070240E06CE1CE010E9432
:100820000702188640E767E0CE010E9407026CE4E9
:10083000CE010E949002CE010E947202CE010E945F
:100840007502CE010E94CC0260E0CE010E94C80178
:10085000482F4E7F60E0CE010E940702115081E0D8
:100860001E3F08F080E0DF91CF911F910895CF9354
:10087000DF93EC010E94430482E291E09983888334
:10088000DF91CF9108952AE231E0FC01318320838A
:1008900073836283089508951F920F920FB60F928B
:1008A00011242F933F938F939F93AF93BF93809186
:1008B000C8019091C901A091CA01B091CB013091BA
:1008C000C70126E0230F2D3758F50296A11DB11D53
:1008D0002093C7018093C8019093C901A093CA01D6
:1008E000B093CB018091CC019091CD01A091CE012C
:1008F000B091CF010196A11DB11D8093CC019093C1
:10090000CD01A093CE01B093CF01BF91AF919F9144
:100910008F913F912F910F900FBE0F901F901895C0
:1009200029E8230F0396A11DB11DD2CF3FB7F8943C
:100930008091CC019091CD01A091CE01B091CF01D9
:1009400022B706B600FE05C02F3F19F00196A11D83
:10095000B11D3FBFBA2FA92F982F8827BC01CD0109
:10096000620F711D811D911D43E0660F771F881F67
:10097000991F4A95D1F708958F929F92AF92BF9297
:10098000CF92DF92EF92FF926B017C010E9496045E
:100990004B015C01C114D104E104F104E9F00E94AF
:1009A0009B080E949604681979098A099B09683E88
:1009B00073408105910570F321E0C21AD108E10866
:1009C000F10888EE880E83E0981EA11CB11CC114AA
:1009D000D104E104F10429F7FF90EF90DF90CF906C
:1009E000BF90AF909F908F9008958330910528F02D
:1009F000880F991F04970197F1F70895789483B7AA
:100A0000806483BF83B7886083BF83B7846083BFFC
:100A100087B7816087BF1EBC8EB582608EBD8EB5E4
:100A200081608EBD8FB581608FBD85B5846085BDC9
:100A300085B5806485BDEAE8F0E0808182608083CE
:100A4000808181608083EBE8F0E080818160808339
:100A5000329A319A3098379A1AB8089581508C306A
:100A600048F5E82FF0E0E95CFA4F0C94BE08510518
:100A700051055A05430547054A054D055A055A05CE
:100A800055055B055F058FB58F778FBD08958FB5D1
:100A90008F7DFBCF8FB5877FF8CF85B58F7D85BDE7
:100AA000089583B78F7D83BF089580918B008F77E2
:100AB00080938B00089580918B008F7DF9CF80917A
:100AC0008B00877FF5CFCF93DF9390E0FC01E95354
:100AD000FF4F249184509F4FFC0184918823C9F0DB
:100AE00090E0880F991FFC01EF5BFE4FA591B49138
:100AF000FC01EF5CFE4FC591D49161110DC09FB711
:100B0000F8948C91209582238C93888128232883C4
:100B10009FBFDF91CF910895623051F49FB7F89451
:100B20003C91822F809583238C93E8812E2BEFCFED
:100B30008FB7F894EC912E2B2C938FBFEACF1F9395
:100B4000CF93DF93282F30E0F901EE56FF4F8491C9
:100B5000F901E953FF4FD491F901E450FF4FC491DB
:100B6000CC23A9F0162F81110E942E05EC2FF0E066
:100B7000EE0FFF1FEF5CFE4FA591B4918FB7F89475
:100B8000EC91111108C0D095DE23DC938FBFDF916B
:100B9000CF911F910895DE2BF8CFFC01918D228D0E
:100BA000892F90E0805C9F4F821B91098F7399275A
:100BB0000895FC01918D828D981731F0828DE80F98
:100BC000F11D858D90E008958FEF9FEF0895FC0152
:100BD000918D828D981761F0A28DAE0FBF2FB11D40
:100BE0005D968C91928D9F5F9F73928F90E0089598
:100BF0008FEF9FEF08958AE597E0892B49F080E019
:100C000090E0892B29F00E945A0781110E94000070
:100C100081EF97E0892B49F080E090E0892B29F063
:100C20000E94F10781110C9400000895FC01A48D2D
:100C3000A80FB92FB11DA35ABF4F2C91848D90E0FE
:100C400001968F739927848FA689B7892C93A089E1
:100C5000B1898C9180648C93938D848D981306C098
:100C60000288F389E02D80818F7D80830895CF9362
:100C7000DF93EC01888D8823B9F0AA89BB89E889C4
:100C8000F9898C9185FD03C0808186FD0DC00FB66A
:100C900007FCF7CF8C9185FFF2CF808185FFEDCFE8
:100CA000CE010E941606E9CFDF91CF910895EF9211
:100CB000FF920F931F93CF93DF93EC0181E0888F16
:100CC0009B8D8C8D981316C0E889F989808185FFEA
:100CD00011C0EE89FF896083E889F9898081806489
:100CE000808381E090E0DF91CF911F910F91FF9081
:100CF000EF900895F62E0B8D10E00F5F1F4F0F73CE
:100D00001127E02E8C8D8E110CC00FB607FCFACF88
:100D1000E889F989808185FFF5CFCE010E9416060A
:100D2000F1CFEB8DEC0FFD2FF11DE35AFF4FF08259
:100D30000B8FEA89FB8980818062D2CFCF92DF92CC
:100D4000EF92FF921F93CF93DF93EC016A017B0137
:100D5000122F60E874E88EE190E0A70196010E94EE
:100D60009C082150310941095109569547953795FD
:100D70002795E889F98982E08083211580E1380789
:100D800098F0E889F989108260E472E48FE090E0DD
:100D9000A70196010E949C0821503109410951097F
:100DA0005695479537952795EC85FD853083EE85DB
:100DB000FF852083188EEC89FD891083EA89FB89E1
:100DC000808180618083EA89FB898081886080835B
:100DD000EA89FB89808180688083EA89FB89808138
:100DE0008F7D8083DF91CF911F91FF90EF90DF90F7
:100DF000CF9008951F920F920FB60F9211240BB649
:100E00000F922F938F939F93EF93FF93E091E001C5
:100E1000F091E1018081E091E601F091E70182FD2E
:100E20001DC090818091E9018F5F8F732091EA014D
:100E3000821741F0E091E901F0E0E053FE4F958F19
:100E40008093E901FF91EF919F918F912F910F90E6
:100E50000BBE0F900FBE0F901F9018958081F2CFA0
:100E60001F920F920FB60F9211240BB60F922F9371
:100E70003F934F935F936F937F938F939F93AF9322
:100E8000BF93EF93FF9380ED91E00E941606FF91D0
:100E9000EF91BF91AF919F918F917F916F915F91F2
:100EA0004F913F912F910F900BBE0F900FBE0F905F
:100EB0001F90189580ED91E00E94CD0521E0892BCF
:100EC00009F420E0822F0895E0EDF1E01382128210
:100ED00088EE93E0A0E0B0E084839583A683B78397
:100EE00082E391E09183808380E990E09587848715
:100EF00089E290E0978786878BE290E0918B808BE8
:100F00008AE290E0938B828B85E990E0958B848BCD
:100F10008CE290E0978B868B118E128E138E148E3E
:100F200008951F920F920FB60F9211240BB60F92D5
:100F30002F938F939F93EF93FF93E0917D02F09116
:100F40007E028081E0918302F091840282FD1DC0C7
:100F50009081809186028F5F8F7320918702821724
:100F600041F0E0918602F0E0E359FD4F958F8093C8
:100F70008602FF91EF919F918F912F910F900BBE61
:100F80000F900FBE0F901F9018958081F2CF1F9287
:100F90000F920FB60F9211240BB60F922F933F931F
:100FA0004F935F936F937F938F939F93AF93BF9371
:100FB000EF93FF938DE692E00E941606FF91EF916A
:100FC000BF91AF919F918F917F916F915F914F9161
:100FD0003F912F910F900BBE0F900FBE0F901F905F
:100FE00018958DE692E00E94CD0521E0892B09F449
:100FF00020E0822F0895EDE6F2E01382128288EE5F
:1010000093E0A0E0B0E084839583A683B78382E376
:1010100091E09183808388E990E09587848789E9CE
:1010200090E0978786878BE990E0918B808B8AE9A7
:1010300090E0938B828B8DE990E0958B848B8CE98B
:1010400090E0978B868B118E128E138E148E0895DE
:10105000AF92BF92CF92DF92EF92FF920F931F93C6
:10106000CF93DF936C017B018B01040F151FEB0104
:101070005E01AE18BF08C017D10759F06991D601BB
:10108000ED91FC910190F081E02DC6010995892B2D
:1010900079F7C501DF91CF911F910F91FF90EF90EC
:1010A000DF90CF90BF90AF900895FB01019000209A
:1010B000E9F73197AF01461B570BDC01ED91FC912D
:1010C0000280F381E02D09946115710511F00C94F3
:1010D000550890E080E0089565E171E00C945508B2
:1010E0000F931F93CF93DF938C01D0E0C0E0611585
:1010F000710519F00E945508EC01C8010E946C08A6
:101100008C0F9D1FDF91CF911F910F9108950E9429
:10111000EC0908950E94FE040E9489080E94EA00DA
:10112000CBEFD5E00E9445012097E1F30E94FB053B
:10113000F9CF0C9463090895A1E21A2EAA1BBB1BD8
:10114000FD010DC0AA1FBB1FEE1FFF1FA217B30793
:10115000E407F50720F0A21BB30BE40BF50B661FA9
:10116000771F881F991F1A9469F76095709580956D
:1011700090959B01AC01BD01CF010895EE0FFF1FBB
:101180000024001C0BBE0790F691E02D09940F93EC
:101190001F93CF93DF938230910510F482E090E0AB
:1011A000E0910C03F0910D0330E020E0B0E0A0E00E
:1011B000309799F42115310509F44AC0281B390BE1
:1011C00024303105D8F58A819B816115710589F13B
:1011D000FB0193838283FE0111C040815181028112
:1011E000138148175907E0F04817590799F41097E9
:1011F00061F012960C93129713961C933296CF01BE
:10120000DF91CF911F910F91089500930C031093DC
:101210000D03F4CF2115310551F04217530738F073
:10122000A901DB019A01BD01DF01F801C1CFEF0186
:10123000F9CF90930D0380930C03CDCFFE01E20F05
:10124000F31F819391932250310939832883D7CF9B
:1012500020910A0330910B03232B41F420910201CA
:101260003091030130930B0320930A032091000176
:10127000309101012115310541F42DB73EB7409160
:10128000040150910501241B350BE0910A03F091F4
:101290000B03E217F307A0F42E1B3F0B28173907A7
:1012A00078F0AC014E5F5F4F2417350748F04E0FC2
:1012B0005F1F50930B0340930A03819391939FCF39
:1012C000F0E0E0E09CCFCF93DF930097E9F0FC01E2
:1012D000329713821282A0910C03B0910D03ED019D
:1012E00030E020E01097A1F420813181820F931F1C
:1012F00020910A0330910B032817390709F061C0C8
:10130000F0930B03E0930A03DF91CF910895EA0174
:10131000CE17DF07E8F54A815B819E014115510533
:10132000B1F7E901FB83EA8349915991C40FD51FB5
:10133000EC17FD0761F4808191810296840F951F5F
:10134000E90199838883828193819B838A83F0E07A
:10135000E0E012968D919C9113970097B9F52D912D
:101360003C911197CD010296820F931F20910A03A1
:1013700030910B032817390739F6309751F5109241
:101380000D0310920C03B0930B03A0930A03BCCF80
:10139000D383C28340815181840F951FC817D90719
:1013A00061F44E5F5F4F88819981480F591F5183C7
:1013B00040838A819B81938382832115310509F0C3
:1013C000B0CFF0930D03E0930C039ECFFD01DC0141
:1013D000C0CF13821282D7CF81E090E0F8940C94B2
:1013E000F10910E0CCEAD0E004C0FE010E94BE0882
:0C13F0002196CD3AD107C9F7F894FFCF41
:1013FC0000000E03800053657269616C3120696EC8
:10140C006974204F4B0D0A0048656C6C6F0000002E
:10141C000000D900E00000000000870887080000E9
:0E142C00000057062808CD05E705D90537064C
:00000001FF
