:100000000C94AA000C94D4000C94D4000C94D4004A
:100010000C94D4000C94D4000C94D4000C94D40010
:100020000C94D4000C94D4000C94D4000C94D40000
:100030000C94D4000C94D4000C94D4000C94D400F0
:100040000C94E7030C94D4000C94D4000C94D400CA
:100050000C94D4000C94D4000C94D4000C94D400D0
:100060000C94D4000C94D4000C94D4000C94D400C0
:100070000C94D4000C94D4000C94D4000C94D400B0
:100080000C94D4000C94D4000C94D400000102030E
:1000900004050000000A0B0C000000000000010431
:1000A0000506000000000000000000000000000045
:1000B0000000000000000000000000000000000040
:1000C0000000000000000001020408102040800130
:1000D000020408102040800810010204081020408B
:1000E000800102010204081020408004804020109A
:1000F00008040201010204081020408005050505DE
:1001000005050505020202020202020207070404B5
:1001100004040404040407070303030303030303A1
:100120000701010101010101010606060606060696
:100130000600003B003800350032002300620065F5
:100140000000003A003700340031002200610064F2
:100150000000120111241FBECFEFD0E1DEBFCDBFE2
:1001600011E0A0E0B1E0E8E0FBE000E00BBF02C07E
:1001700007900D92A030B107D9F721E0A0E0B1E0DF
:1001800001C01D92A632B207E1F710E0CAEAD0E042
:1001900004C02197FE010E947905C93AD107C9F729
:1001A0000E9469050C9482050C9400000F931F9324
:1001B00084E091E00E946F0365E084E091E00E949A
:1001C000400270E060E084E091E00E94350362E06C
:1001D00084E091E00E941D0300E918E726E534E37E
:1001E00042E150E060E070E084E091E00E94D202E1
:1001F00084E091E00E947C0284E091E01F910F91E5
:100200000C944702E0E0F1E081E090E0918380838C
:1002100082E090E09383828344E0BF0184E091E038
:100220000C94CF0242E050E063E070E084E091E0A3
:100230000C942B02CF93CFB7F89480911C018111BD
:1002400023C0E4E0F1E08491EFECF0E09491E82F3A
:10025000F0E0EE0FFF1FEF5BFE4FA591B491EC9124
:10026000E92321F461E088E00E943A0561E088E03A
:100270000E94FE046C9A6E9A61E089E00E94FE047E
:1002800061E08AE00E94FE0480911C018F5F8093F0
:100290001C01CFBFCF9108958FB90000779BFECF8F
:1002A0008FB10895CF93DF93EC016D988DB1837F6B
:1002B0008DB98DB18C7F8DB9709A8A810E943A0573
:1002C0008C899D89DF91CF910C949004FC01208151
:1002D0003181828193812817390719F0822F0C947C
:1002E0003A05089560E00C94520161E00C945201CB
:1002F0001F93CF93DF93EC01162F0E947201812F81
:100300008F710E944C018FEF0E944C01182FCE017B
:100310000E947501812FDF91CF911F910895CF9297
:10032000DF92EF92FF920F931F93CF93DF937C01A5
:10033000C62F6A01122F0E9472018C2F8F7180626A
:100340000E944C01082FE601115020F089910E9473
:100350004C01FACFC7010E947501802FDF91CF9128
:100360001F910F91FF90EF90DF90CF9008950F9322
:100370001F93CF93DF938C01C62FD42F0E9472015D
:100380008C2F8F7180620E944C01C82F8D2F0E948C
:100390004C01C8010E9475018C2FDF91CF911F91F4
:1003A0000F910895BF92CF92DF92EF92FF920F9339
:1003B0001F93CF93DF938C01B62EC72EF22EFC0134
:1003C000C781DC2F4C1708F4D42FF8018085CD1B92
:1003D0008111C0E0C8010E9472018F2D0E944C0162
:1003E000D82EEB2CFC2CD15030F0F70181917F01FD
:1003F0000E944C01F8CFC15020F080E00E944C01D7
:10040000FACFC8010E9475018D2DDF91CF911F9108
:100410000F91FF90EF90DF90CF90BF9008951F93C2
:10042000CF93DF93EC01162F0E947201812F0E945F
:100430004C01182FCE010E947501812FDF91CF91C1
:100440001F91089562EE0C940F0261EE0C940F025E
:100450006FEF0C940F02FC0171836083538342831E
:10046000168280E28783108685E0868785E090E0AB
:10047000A0E0B0E0848B958BA68BB78B1186089596
:10048000462F6D3708F04DE765E00C94B701CF9328
:10049000DF93EC0160E00E946601888999890E94DF
:1004A00090046DE1CE010E94780181FF07C0888928
:1004B00099890E949004CE010E94250260E0CE013D
:1004C0000E947801482F4E7F60E0CE010E94B70164
:1004D00062E0CE010E947801ECE8F0E0E49141E0B6
:1004E00050E001C0440FEA95EAF7482B62E0CE01E4
:1004F000DF91CF910C94B701CF93DF93EC0160E0D3
:100500000E94780181FD0EC0482F426060E0CE015C
:100510000E94B70165E070E080E090E0DF91CF914C
:100520000C945704DF91CF9108950F93CF93DF93ED
:10053000EC0121110DC020EACE010E94D20100235E
:1005400049F061E0CE01DF91CF910F910C946601EB
:1005500020EBF2CFDF91CF910F9108950F93CF93BE
:10056000DF93EC0101E00E949502CE010E94280277
:100570008073D9F360E0CE010E94660140E767E036
:10058000CE010E94B70184FF08C0CE010E9425025F
:1005900080E0DF91CF910F91089581E0FACF20E0C4
:1005A0000C94AE02EF92FF920F931F93CF93DF93C1
:1005B000CDB7DEB728970FB6F894DEBF0FBECDBF1C
:1005C0007C0109831A832B833C834D835E836F8375
:1005D0007887FC012685AE014F5F5F4F6AE00E947D
:1005E0008F01F7012685AE014F5F5F4F60E1C701C4
:1005F0000E948F01F701478161E1C7010E94B701A5
:1006000028960FB6F894DEBF0FBECDBFDF91CF9115
:100610001F910F91FF90EF900895CF93DF93EC011E
:100620000E94720180E50E944C0183E70E944C0108
:10063000CE01DF91CF910C9475010F931F93CF934F
:100640008C01C62F66E00E947801887FC43058F480
:10065000CC0FCF5F4C2F482B66E0C801CF911F9184
:100660000F910C94B701C7E0F5CFEF92FF920F9373
:100670001F93CF938C017B0166E00E947801C82F05
:10068000C77D82E0E816F104E9F4C0628BE990E0EE
:10069000A0E0B0E0F801808B918BA28BB38B4C2F44
:1006A00066E0C8010E94B70166E0C8010E947801B7
:1006B00091E08C1390E0892FCF911F910F91FF90C3
:1006C000EF90089585E590E0A0E0B0E0EA94EF288F
:1006D00009F7C86081E490E0A0E0B0E0DBCF1F93B1
:1006E000CF93DF93EC01888199812A813B81821726
:1006F000930719F061E00E94FE048A819B812881A2
:1007000039812817390719F061E00E94FE040E9420
:100710001A0160E0CE010E94660161E0CE010E94F4
:10072000520165E070E080E090E00E9457044CE0E8
:1007300060E0CE010E94B7014FE564E0CE010E9467
:10074000B70162E070E0CE010E943503882311F00A
:1007500081E08E8366E0CE010E947801182F70E060
:1007600060E0CE010E943503CE010E940D0340E0FF
:100770006DE1CE010E94B70140E06CE1CE010E9424
:10078000B701188640E767E0CE010E94B7016CE42C
:10079000CE010E944002CE010E942202CE010E94A0
:1007A0002502CE010E947C0260E0CE010E94780109
:1007B000482F4E7F60E0CE010E94B701115081E0CA
:1007C0001E3F08F080E0DF91CF911F9108951F92A6
:1007D0000F920FB60F9211242F933F938F939F93F5
:1007E000AF93BF9380911E0190911F01A0912001B2
:1007F000B091210130911D0126E0230F2D3758F5CE
:100800000296A11DB11D20931D0180931E0190939E
:100810001F01A0932001B0932101809122019091AA
:100820002301A0912401B09125010196A11DB11DC4
:100830008093220190932301A0932401B09325017A
:10084000BF91AF919F918F913F912F910F900FBECC
:100850000F901F90189529E8230F0396A11DB11D35
:10086000D2CF3FB7F8948091220190912301A091BB
:100870002401B091250122B706B600FE05C02F3F26
:1008800019F00196A11DB11D3FBFBA2FA92F982FB6
:100890008827BC01CD01620F711D811D911D43E0B0
:1008A000660F771F881F991F4A95D1F708958F9279
:1008B0009F92AF92BF92CF92DF92EF92FF926B0125
:1008C0007C010E9431044B015C01C114D104E1049C
:1008D000F104E9F00E9478050E9431046819790951
:1008E0008A099B09683E73408105910570F321E0F8
:1008F000C21AD108E108F10888EE880E83E0981E3C
:10090000A11CB11CC114D104E104F10429F7FF902A
:10091000EF90DF90CF90BF90AF909F908F90089511
:100920008330910528F0880F991F04970197F1F7FC
:100930000895789483B7806483BF83B7886083BF4A
:1009400083B7846083BF87B7816087BF1EBC8EB5C5
:1009500082608EBD8EB581608EBD8FB581608FBD8A
:1009600085B5846085BD85B5806485BDEAE8F0E025
:10097000808182608083808181608083EBE8F0E009
:10098000808181608083329A319A3098379A1AB880
:10099000089581508C3048F5E82FF0E0EE52FB4F7F
:1009A0000C947905EC04EC04F504DE04E204E5049F
:1009B000E804F504F504F004F604FA048FB58F7723
:1009C0008FBD08958FB58F7DFBCF8FB5877FF8CF13
:1009D00085B58F7D85BD089583B78F7D83BF0895CD
:1009E00080918B008F7780938B00089580918B008E
:1009F0008F7DF9CF80918B00877FF5CFCF93DF93E9
:100A000090E0FC01E953FF4F249184509F4FFC017B
:100A100084918823C9F090E0880F991FFC01EF5B57
:100A2000FE4FA591B491FC01EF5CFE4FC591D491AE
:100A300061110DC09FB7F8948C91209582238C93FF
:100A40008881282328839FBFDF91CF91089562304A
:100A500051F49FB7F8943C91822F809583238C9317
:100A6000E8812E2BEFCF8FB7F894EC912E2B2C939F
:100A70008FBFEACF1F93CF93DF93282F30E0F90188
:100A8000EE56FF4F8491F901E953FF4FD491F901DC
:100A9000E450FF4FC491CC23A9F0162F81110E947E
:100AA000C904EC2FF0E0EE0FFF1FEF5CFE4FA591A5
:100AB000B4918FB7F894EC91111108C0D095DE2352
:100AC000DC938FBFDF91CF911F910895DE2BF8CF7C
:100AD00008950E9499040E9468050E94D600C0E013
:100AE000D0E00E9402012097E1F30E940000F9CFBC
:100AF0000895EE0FFF1F0024001C0BBE0790F69117
:080B0000E02D0994F894FFCFE9
:0200000002C03C
:00000001FF