:100000000C9447000C9471000C9471000C947100D6
:100010000C9471000C9471000C9471000C9471009C
:100020000C9471000C9471000C9471000C9471008C
:100030000C9471000C9471000C9471000C9471007C
:100040000C94AD020C9471000C9471000C9471002E
:100050000C9471000C9471000C9471000C9471005C
:100060000C9471000C9471000C9471000C9471004C
:100070000C9471000C9471000C94AF010C94E50188
:100080000C9471000C9471000C94710019021124ED
:100090001FBECFEFD0E1DEBFCDBF11E0A0E0B1E0E9
:1000A000E8EAF6E000E00BBF02C007900D92A03234
:1000B000B107D9F721E0A0E2B1E001C01D92A63C52
:1000C000B207E1F710E0C7E4D0E004C02197FE01D9
:1000D0000E944903C634D107C9F70E949E020C94BE
:1000E00052030C94000026E040E855E260E070E026
:1000F00080E291E00C94530160E071E080E291E0D5
:100100000C948602FC01918D228D892F90E0805CF9
:100110009F4F821B91098F7399270895FC01918D40
:10012000828D981731F0828DE80FF11D858D90E05A
:1001300008958FEF9FEF0895FC01918D828D9817A0
:1001400061F0A28DAE0FBF2FB11D5D968C91928D87
:100150009F5F9F73928F90E008958FEF9FEF0895B8
:1001600080E090E0892B49F080E090E0892B29F035
:100170000E94000081110E9400008FE092E0892B14
:1001800049F080E090E0892B29F00E940F02811154
:100190000C9400000895FC01A48DA80FB92FB11D87
:1001A000A35ABF4F2C91848D90E001968F739927AD
:1001B000848FA689B7892C93A089B1898C9180649A
:1001C0008C93938D848D981306C00288F389E02D5B
:1001D00080818F7D80830895CF93DF93EC01888D9C
:1001E0008823B9F0AA89BB89E889F9898C9185FDB2
:1001F00003C0808186FD0DC00FB607FCF7CF8C9140
:1002000085FFF2CF808185FFEDCFCE010E94CB002C
:10021000E9CFDF91CF910895EF92FF920F931F9353
:10022000CF93DF93EC0181E0888F9B8D8C8D9813A9
:1002300016C0E889F989808185FF11C0EE89FF89A0
:100240006083E889F98980818064808381E090E01F
:10025000DF91CF911F910F91FF90EF900895F62EAF
:100260000B8D10E00F5F1F4F0F731127E02E8C8D49
:100270008E110CC00FB607FCFACFE889F98980818E
:1002800085FFF5CFCE010E94CB00F1CFEB8DEC0FB7
:10029000FD2FF11DE35AFF4FF0820B8FEA89FB8996
:1002A00080818062D2CFCF92DF92EF92FF921F9334
:1002B000CF93DF93EC016A017B01122F60E874E8B1
:1002C0008EE190E0A70196010E9427032150310999
:1002D000410951095695479537952795E889F98938
:1002E00082E08083211580E1380798F0E889F98958
:1002F000108260E472E48FE090E0A70196010E9412
:1003000027032150310941095109569547953795E1
:100310002795EC85FD853083EE85FF852083188E3B
:10032000EC89FD891083EA89FB8980818061808363
:10033000EA89FB89808188608083EA89FB898081E2
:1003400080688083EA89FB8980818F7D8083DF914B
:10035000CF911F91FF90EF90DF90CF9008951F9263
:100360000F920FB60F9211240BB60F922F938F930B
:100370009F93EF93FF93E0913001F09131018081E1
:10038000E0913601F091370182FD1DC0908180918E
:1003900039018F5F8F7320913A01821741F0E0910C
:1003A0003901F0E0E05EFE4F958F80933901FF91B7
:1003B000EF919F918F912F910F900BBE0F900FBED9
:1003C0000F901F9018958081F2CF1F920F920FB659
:1003D0000F9211240BB60F922F933F934F935F937D
:1003E0006F937F938F939F93AF93BF93EF93FF93FD
:1003F00080E291E00E94CB00FF91EF91BF91AF911D
:100400009F918F917F916F915F914F913F912F912C
:100410000F900BBE0F900FBE0F901F90189580E2AB
:1004200091E00E94820021E0892B09F420E0822FD4
:100430000895E0E2F1E01382128288EE93E0A0E0FA
:10044000B0E084839583A683B78380E191E09183B4
:10045000808388E990E09587848789E990E0978791
:1004600086878BE990E0918B808B8AE990E0938B73
:10047000828B8DE990E0958B848B8CE990E0978B53
:10048000868B118E128E138E148E0895AF92BF92AA
:10049000CF92DF92EF92FF920F931F93CF93DF9350
:1004A0006C017B018B01040F151FEB015E01AE187F
:1004B000BF08C017D10759F06991D601ED91FC91A1
:1004C0000190F081E02DC6010995892B79F7C501CE
:1004D000DF91CF911F910F91FF90EF90DF90CF9020
:1004E000BF90AF900895FB0101900020E9F731978C
:1004F000AF01461B570BDC01ED91FC910280F381AB
:10050000E02D09946CE171E00C9473020F931F933A
:10051000CF93DF938C01D0E0C0E06115710519F035
:100520000E947302EC01C8010E9482028C0F9D1F81
:10053000DF91CF911F910F91089508950E94F702C6
:100540000E949D020E947300C0EBD0E00E947C00DC
:100550002097E1F30E94B000F9CF1F920F920FB6DF
:100560000F9211242F933F938F939F93AF93BF9339
:100570008091BE019091BF01A091C001B091C101D5
:100580003091BD0126E0230F2D3758F50296A11DAD
:10059000B11D2093BD018093BE019093BF01A09334
:1005A000C001B093C1018091C2019091C301A0919B
:1005B000C401B091C5010196A11DB11D8093C20176
:1005C0009093C301A093C401B093C501BF91AF91B3
:1005D0009F918F913F912F910F900FBE0F901F9081
:1005E000189529E8230F0396A11DB11DD2CF789449
:1005F00083B7806483BF83B7886083BF83B7846019
:1006000083BF87B7816087BF1EBC8EB582608EBDF9
:100610008EB581608EBD8FB581608FBD85B58460DC
:1006200085BD85B5806485BDEAE8F0E080818260A3
:100630008083808181608083EBE8F0E0808181604D
:100640008083329A319A3098379A1AB80895A1E285
:100650001A2EAA1BBB1BFD010DC0AA1FBB1FEE1F3C
:10066000FF1FA217B307E407F50720F0A21BB30B87
:10067000E40BF50B661F771F881F991F1A9469F703
:1006800060957095809590959B01AC01BD01CF015F
:100690000895EE0FFF1F0024001C0BBE0790F6917B
:0806A000E02D0994F894FFCF4E
:1006A80068656C6C6F20776F726C640000000000E6
:1006B8000C01460282009C008E00EC000D0A00002E
:00000001FF
