:100000000C949F000C94C9000C94C9000C94C90076
:100010000C94C9000C94C9000C94C9000C94C9003C
:100020000C94C9000C94C9000C94C9000C94C9002C
:100030000C94C9000C94C9000C94C9000C94C9001C
:100040000C94E9050C94C9000C94B3050C94890533
:100050000C94C9000C94C9000C94C9000C94C900FC
:100060000C94C9000C94C9000C94C9000C94C900EC
:100070000C94C9000C94C9000C94C9000C94C900DC
:100080000C94C9000C9433060C94C90000003B008A
:1000900038003500320023006200650005050505C3
:1000A0000505050502020202020202020707040416
:1000B0000404040404040707030303030303030302
:1000C00007010101010101010106060606060606F7
:1000D000060102040810204080010204081020409C
:1000E000800810010204081020408001020102046F
:1000F0000810204080048040201008040201010202
:100100000408102040800000000A0B0C00000000D2
:1001100000000104050600000000000000000000CF
:1001200000000000000000000000000000000000CF
:100130000000000000000000000000005307112430
:100140001FBECFEFD0E1DEBFCDBF12E0A0E0B1E037
:10015000E4EBF8E100E00BBF02C007900D92A4357C
:10016000B107D9F723E0A4E5B2E001C01D92AA3E91
:10017000B207E1F710E0CFE9D0E004C02197FE011B
:100180000E944F0CCE39D107C9F70E948C070C94FE
:10019000580C0C9400002091400381E0213208F0BB
:1001A00044C080911C038111FCCF80913F0392E0F9
:1001B00090931C0391E090931B039FEF90931A037D
:1001C0001092190320931803AFE1B3E0E8EFF2E0D7
:1001D00090E0291331C01092F7029091F702880F36
:1001E000892B8093F7028091F602813049F51092B5
:1001F000F6028091F702809373008091740083FD72
:10020000F8CF85EC8093740080911C038230E1F379
:1002100080911A038F3FB1F080911A038032A1F0D0
:1002200080911A03803391F084E010921E031092A3
:10023000400310921D0308953D9131939F5FC9CFF4
:1002400085EEE0CF80E0F1CF82E0EFCF83E0EDCF2D
:100250008091D4029091D502891B990B089590E06A
:10026000FC01EA5FFE4F2491FC01EF52FF4F3491F5
:1002700084569F4FFC018491882341F12223C1F0D1
:1002800021502C30A8F4E22FF0E0E75BFE4F0C94F5
:100290004F0C710171015801550167016A016D012F
:1002A0005801580175017B017F019FB59F779FBD64
:1002B000E82FF0E0EE0FFF1FE457FF4FA591B49138
:1002C0008FB7F894EC913E2B3C938FBF08959FB568
:1002D0009F7DEDCF9FB5977FEACF95B59F7D95BD6B
:1002E000E7CF93B79F7D93BFE3CF90918B009F772C
:1002F00090938B00DDCF90918B009F7DF9CF9091F3
:100300008B00977FF5CFAF92BF92CF92DF92EF92A3
:10031000FF920F931F93CF93DF936C017B018B01AF
:10032000040F151FEB015E01AE18BF08C017D107FF
:1003300059F06991D601ED91FC910190F081E02D89
:10034000C6010995892B79F7C501DF91CF911F91DE
:100350000F91FF90EF90DF90CF90BF90AF900895F6
:10036000FC01918D828D981761F0A28DAE0FBF2F89
:10037000B11D5D968C91928D9F5F9F73928F90E0DF
:1003800008958FEF9FEF0895FC01918D828D98174E
:1003900031F0828DE80FF11D858D90E008958FEF8B
:1003A0009FEF0895FC01918D228D892F90E0805C54
:1003B0009F4F821B91098F739927089581E493E0E1
:1003C0000E94D20121E0892B09F420E0822F0895B8
:1003D000FC01A48DA80FB92FB11DA35ABF4F2C91BA
:1003E000848D90E001968F739927848FA689B789B1
:1003F0002C93A089B1898C9180648C93938D848D8A
:10040000981306C00288F389E02D80818F7D808358
:100410000895EF92FF920F931F93CF93DF93EC0118
:1004200081E0888F9B8D8C8D981316C0E889F9899F
:10043000808185FF11C0EE89FF896083E889F98991
:1004400080818064808381E090E0DF91CF911F9173
:100450000F91FF90EF900895F62E0B8D10E00F5F37
:100460001F4F0F731127E02E8C8D8E110CC00FB60D
:1004700007FCFACFE889F989808185FFF5CFCE01A5
:100480000E94E801F1CFEB8DEC0FFD2FF11DE35A37
:10049000FF4FF0820B8FEA89FB8980818062D2CF87
:1004A000CF93DF93EC01888D8823B9F0AA89BB89AB
:1004B000E889F9898C9185FD03C0808186FD0DC096
:1004C0000FB607FCF7CF8C9185FFF2CF808185FFB7
:1004D000EDCFCE010E94E801E9CFDF91CF910895E1
:1004E00080E090E0892B29F00E94DE0181110E94BA
:1004F000000080E090E0892B49F080E090E0892BBB
:1005000029F00E94000081110C94000008953FB76B
:10051000F89480919C0290919D02A0919E02B091CE
:100520009F0222B706B600FE05C02F3F19F00196C4
:10053000A11DB11D3FBFBA2FA92F982F8827BC013D
:10054000CD01620F711D811D911D43E0660F771F64
:10055000881F991F4A95D1F708958F929F92AF9265
:10056000BF92CF92DF92EF92FF924B015C010E940B
:1005700087026B017C010E9487026C197D098E093C
:100580009F09683E734081059105A8F321E0821A16
:100590009108A108B10888EEC80E83E0D81EE11CBE
:1005A000F11C81149104A104B10429F7FF90EF908C
:1005B000DF90CF90BF90AF909F908F90089585ED82
:1005C000809374008091740084FDFCCF10921C0312
:1005D0000895613298F420911C03243089F46093CB
:1005E0007402282FA4E5B2E0FC018E2F821B86172F
:1005F00010F080E0089581918D93F7CF81E0089508
:1006000082E008950895E091D5028091D402E81720
:1006100030F4F0E0EA52FD4F808190E008958FEFD2
:100620009FEF08959091D5028091D4022FEF3FEF74
:10063000981748F4E92FF0E0EA52FD4F208130E0AE
:100640009F5F9093D502C9010895CF92DF92EF92F8
:10065000FF920F931F93CF93DF937C01CB018A010D
:1006600020911D03222389F0EB016B01C40ED51EDE
:10067000CC15DD0569F06991D701ED91FC910190F0
:10068000F081E02DC7010995F3CF642F0E94E902A4
:10069000C801DF91CF911F910F91FF90EF90DF90F4
:1006A000CF900895CF93DF931F92CDB7DEB76983C4
:1006B00020911D032223F9F020914003203258F0AD
:1006C00021E030E0FC013383228390E080E00F9052
:1006D000DF91CF91089580911E03E82FF0E0E15E55
:1006E000FC4F998190838F5F80931E03809340031A
:1006F00081E090E0ECCF61E0CE0101960E94E9023A
:10070000F7CFCF93C62F91E090931D0393E590937D
:100710003F0310921E0310924003682F8EED93E06A
:100720000E9452036C2F8EED93E00E945203CF91F2
:100730000C94CB00FC0101900020E9F73197AF0148
:10074000481B590BBC0181E493E00C9483018F9208
:100750009F92AF92BF920F931F93CF93DF93CDB72A
:10076000DEB7A1970FB6F894DEBF0FBECDBF19A2BA
:10077000423008F44AE08E010F5D1F4F842E912C09
:10078000B12CA12CA50194010E942D0CE62FB901DA
:10079000CA01EA30F4F4E05DD801EE938D01232B19
:1007A000242B252B79F790E080E0109719F0CD01EC
:1007B0000E949A03A1960FB6F894DEBF0FBECDBF7C
:1007C000DF91CF911F910F91BF90AF909F908F902D
:1007D0000895E95CE1CFCF93DF930E949A03EC0187
:1007E00080E291E00E949A038C0F9D1FDF91CF91D0
:1007F000089590911C039111FCCF282F91E09093C4
:100800001C0390931B033FEF30931A0310921903BC
:10081000380F309318039093F7029091F702966A7D
:100820009093F7029091F602913019F51092F6022A
:100830009091F702909373009091740093FDF8CF1C
:1008400095EC9093740090911C039130E1F390919A
:100850001903981710F420911903A8EFB2E0E6ED00
:10086000F2E080E0821307C01092D5028093D40298
:10087000089595EEE6CF9D9191938F5FF3CFCF933F
:10088000C1E0C0931D0393E590933F0310921E03B4
:1008900010924003682F8EED93E00E9452030E9455
:1008A000CB00C0931D0310921E031092400381E001
:1008B00090E00E94F9039091D4028091D50298179C
:1008C000F1F38EED93E00E941203C82F0E94CB003B
:1008D0008C2FCF910895CF93C82F81E30E943F04BE
:1008E000682F607F6C2B686081E3CF910C9481034B
:1008F000CF93DF93C1E0C0931D0393E590933F0333
:1009000010921E0310924003682F8EED93E00E9418
:1009100052030E94CB00C0931D0310921E0310923D
:10092000400382E090E00E94F9039091D40280910C
:10093000D5029817F1F38EED93E00E941203C82FB1
:100940008EED93E00E941203D82F0E94CB0080E02E
:100950009D2F8C2BDF91CF9108954F925F926F92D4
:100960007F928F929F92AF92BF92CF92DF92EF923F
:10097000FF920F931F93CF936B017C01742EAC01F8
:100980009B010E94280C882399F083E291E0CF918B
:100990001F910F91FF90EF90DF90CF90BF90AF909D
:1009A0009F908F907F906F905F904F900C949A03E0
:1009B00046015701E894B7F82FEF3FEF4FE75FE7A5
:1009C000C501B4010E94280C81110DC02FEF3FEF2B
:1009D0004FE75FE7C501B4010E945E0A18161CF4D8
:1009E00087E291E0D4CF2FEF3FEF4FE75FE4C701FD
:1009F000B6010E94B60B18161CF48BE291E0C7CF2B
:100A00002FEF3FEF4FE75FECC701B6010E945E0A90
:100A100087FDF3CF20E030E0A901C701B6010E94B5
:100A20005E0A10E000E087FF0AC06DE281E493E017
:100A30000E9409028C01F7FAF094F7F8F094C0E0F4
:100A400060E070E080E09FE37C1641F020E030E061
:100A500040E251E40E94630ACF5FF6CFA7019601FE
:100A60000E94F2092B013C010E94D50A4B015C0156
:100A70004AE00E94A7037C01E00EF11ECC23C1F1E5
:100A8000C501B4010E94040B9B01AC01C301B2017A
:100A90000E94F1094B015C016EE281E493E00E9447
:100AA0000902E80EF91EC15018F120E030E040E2E2
:100AB00051E4C501B4010E94BB0B2B013C010E9413
:100AC000D50A4B01B12CA12C4AE0C501B4010E940A
:100AD000A703E80EF91EC501B4010E94040B9B0197
:100AE000AC01C301B2010E94F1094B015C01DBCFF3
:100AF000C701CF911F910F91FF90EF90DF90CF90A2
:100B0000BF90AF909F908F907F906F905F904F902D
:100B100008951F920F920FB60F9211240BB60F92E9
:100B20002F933F934F935F936F937F938F939F93F5
:100B3000AF93BF93EF93FF9381E493E00E94E801AA
:100B4000FF91EF91BF91AF919F918F917F916F91A5
:100B50005F914F913F912F910F900BBE0F900FBE61
:100B60000F901F9018951F920F920FB60F9211249D
:100B70000BB60F922F938F939F93EF93FF93E09178
:100B80005103F09152038081E0915703F091580393
:100B900082FD1DC0908180915A038F5F8F732091D9
:100BA0005B03821741F0E0915A03F0E0EF5BFC4FEA
:100BB000958F80935A03FF91EF919F918F912F9181
:100BC0000F900BBE0F900FBE0F901F901895808155
:100BD000F2CF1F920F920FB60F9211242F933F93D3
:100BE0008F939F93AF93BF938091980290919902B6
:100BF000A0919A02B0919B023091970226E0230FB8
:100C00002D3758F50296A11DB11D209397028093B0
:100C1000980290939902A0939A02B0939B028091BC
:100C20009C0290919D02A0919E02B0919F0201961C
:100C3000A11DB11D80939C0290939D02A0939E02E2
:100C4000B0939F02BF91AF919F918F913F912F9150
:100C50000F900FBE0F901F90189529E8230F039651
:100C6000A11DB11DD2CF1F920F920FB60F9211246A
:100C70000BB60F922F933F934F935F936F937F9396
:100C80008F939F93AF93BF93EF93FF9380917100E6
:100C9000887F803609F44DC008F040C0883209F4DE
:100CA000A7C028F5803109F49BC0C8F4882309F453
:100CB000F7C0883009F494C0FF91EF91BF91AF91D4
:100CC0009F918F917F916F915F914F913F912F9164
:100CD0000F900BBE0F900FBE0F901F90189588318C
:100CE00009F486C0803241F780931A0314C080341F
:100CF00009F49BC040F48033B9F38833E9F680935C
:100D00001A0385ECAEC0803509F483C0883509F438
:100D100094C0883489F60E94DF02CECF883909F466
:100D20008AC038F5883729F050F4883611F08037BA
:100D300019F683E080931C031092960255C0883800
:100D400009F479C0803919F0803809F0B5CF809165
:100D50009602803208F06FC0E091960281E08E0F1B
:100D60008093960280917300F0E0EA58FD4F8083F3
:100D70003BC0803B39F0D0F4803A09F477C0883A20
:100D800009F09ACF84E080931C03109275021092B0
:100D90007402F0E0E0E009958091740281110FC0C7
:100DA00081E0809374021092540209C0803C09F4DF
:100DB000A8CF883C09F4A5CF883B09F07DCFE0910E
:100DC000750281E08E0F80937502F0E0EC5AFD4FC2
:100DD000808180937300909175028091740229C084
:100DE0008091F7028093730085EC8093740064CF48
:100DF0009091190380911803981758F5E091190301
:100E000081E08E0F80931903F0E0E850FD4F808160
:100E1000E9CFE091190381E08E0F8093190380914F
:100E20007300F0E0E850FD4F8083909119038091AA
:100E300018039817C8F285E8D8CFE091190381E02C
:100E40008E0F8093190380917300F0E0E850FD4FFE
:100E5000808380911B0381115ECF81E08093F60235
:100E600084EA8093740010921C0326CF85EC809353
:100E7000740010921C0380919602803230F4E0914D
:100E80009602F0E0EA58FD4F10826091960270E001
:100E900086E792E0F0E0E0E00995109296020CCF30
:100EA00010921A0338CFE1E4F3E01382128288EE45
:100EB00093E0A0E0B0E084839583A683B78324E029
:100EC00031E03183208320E930E03587248729E22F
:100ED00030E0378726872BE230E0318B208B2AE207
:100EE00030E0338B228B25E930E0358B248B2CE2EC
:100EF00030E0378B268B118E128E138E148EEEED12
:100F0000F3E01382128284839583A683B78384E1FE
:100F100091E0918380830895789483B7806483BF40
:100F200083B7886083BF83B7846083BF87B78160DE
:100F300087BF1EBC8EB582608EBD8EB581608EBDB2
:100F40008FB581608FBD85B5846085BD85B58064B2
:100F500085BD80918A00826080938A0080918A009A
:100F6000816080938A0080918B00816080938B00E8
:100F7000329A319A3098379A1AB8E0915103F09129
:100F8000520382E08083E0914D03F0914E03108282
:100F9000E0914F03F091500387E68083109259034C
:100FA000E0915503F091560386E08083E09153036E
:100FB000F0915403808180618083E0915303F0912C
:100FC0005403808188608083E0915303F09154033F
:100FD000808180688083E0915303F0915403808185
:100FE0008F7D80838FE291E00E94EB031092B80224
:100FF0001092B9021092BA021092BB021092BC0277
:101000001092BD021092BE021092BF021092C00256
:101010001092C1021092C2021092C3021092D50225
:101020001092D40210921E031092400310921C03DF
:10103000C1E0C0931B031092F60283E10E942F01CE
:1010400082E10E942F01809171008E7F8093710058
:10105000809171008D7F8093710080E28093700099
:1010600085E480937400C0931D0383E580933F0360
:1010700010921E031092400360E08EED93E00E94F8
:1010800052030E94CB0081E090E00E94F9038EEDB4
:1010900093E00E941203C82F0E94CB00C53E11F1BD
:1010A00082E491E00E94EB0364EF71E080E090E065
:1010B0000E94AD0283E090E00E946B0487E791E01C
:1010C0000E949A0381E30E943F048370823009F4F6
:1010D00070C0833009F447C0813009F06DC085EAE3
:1010E00091E043C068E08DE20E94810390E080E0DF
:1010F0000E946B046AE08CE20E94810360E08DE153
:101100000E94810360E081E20E94810360E082E24C
:101110000E94810360E083E20E94810360E084E238
:101120000E94810360E085E20E94810360E086E224
:101130000E94810360E088E20E94810360E089E20E
:101140000E94810387E20E943F04682F687887E24B
:101150000E9481038AE20E943F04682F687F8AE22E
:101160000E948103A7CF84E991E00E94EB0385EB05
:1011700091E00E949A038CE20E943F04E82FEF70F6
:10118000E1508DE292E0EF30E0F4F0E0E653F74F0B
:101190000C944F0CEE09EB09E809E509E209DF09B7
:1011A000DC09D909D609D309D009CD09CA09C7096B
:1011B000DF088DE991E0D9CF8DEA91E0D6CF8AECB6
:1011C00091E00E94EB0382E30E947804BC01990F36
:1011D000880B990B0E94060B6093A0027093A102EA
:1011E0008093A2029093A30284E30E947804BC013E
:1011F000990F880B990B0E94060B6093A4027093C1
:10120000A5028093A6029093A70286E30E94780429
:10121000BC01990F880B990B0E94060B6093A802E2
:101220007093A9028093AA029093AB0282E30E947A
:101230007804BC01990F880B990B0E94060B6093F0
:10124000A0027093A1028093A2029093A30284E370
:101250000E947804BC01990F880B990B0E94060B21
:101260006093A4027093A5028093A6029093A702B4
:1012700086E30E947804BC01990F880B990B0E94A9
:10128000060B6B017C01C092A802D092A902E092E9
:10129000AA02F092AB022FE632E143E85BE36091F1
:1012A000A0027091A1028091A2029091A3020E94DB
:1012B000BB0B2AE038EE4CE151E40E94BB0B2B0142
:1012C0003C014092AC025092AD026092AE0270922C
:1012D000AF022FE632E143E85BE36091A402709134
:1012E000A5028091A6029091A7020E94BB0B2AE062
:1012F00038EE4CE151E40E94BB0B4B015C01809243
:10130000B0029092B102A092B202B092B3022FE664
:1013100032E143E85BE3C701B6010E94BB0B2AE060
:1013200038EE4CE151E40E94BB0B6B017C01C09292
:10133000B402D092B502E092B602F092B70285E311
:1013400092E00E949A0342E0C301B2010E94AD0400
:101350008FE392E00E949A0342E0C501B4010E942B
:10136000AD0489E492E00E949A0342E0C701B6010D
:101370000E94AD0480E291E00E949A0368EE73E05F
:1013800080E090E00E94AD020E9470021CCF82EDCE
:1013900091E017CF8AED91E014CF81EE91E011CF6B
:1013A0008BEC91E00ECF88EE91E00BCF8FEE91E0C9
:1013B00008CF8FEF91E005CF85EF91E002CF8DEF61
:1013C00091E0FFCE85E092E0FCCE8DE092E0F9CE98
:1013D00085E192E0F6CE8DE192E0F3CE85E292E0F7
:1013E000F0CE5058BB27AA270E94090A0C947C0B08
:1013F0000E946E0B38F00E94750B20F039F49F3F6D
:1014000019F426F40C946B0B0EF4E095E7FB0C94A6
:10141000650BE92F0E948D0B58F3BA17620773070B
:101420008407950720F079F4A6F50C94AF0B0EF421
:10143000E0950B2EBA2FA02D0B01B90190010C01E4
:10144000CA01A0011124FF27591B99F0593F50F4FC
:10145000503E68F11A16F040A22F232F342F442754
:10146000585FF3CF469537952795A795F04053954C
:10147000C9F77EF41F16BA0B620B730B840BBAF01C
:101480009150A1F0FF0FBB1F661F771F881FC2F787
:101490000EC0BA0F621F731F841F48F4879577959B
:1014A0006795B795F7959E3F08F0B0CF9395880F55
:1014B00008F09927EE0F9795879508950E94410BA4
:1014C00008F481E008950E94770A0C947C0B0E9436
:1014D000750B58F00E946E0B40F029F45F3F29F025
:1014E0000C94650B51110C94B00B0C946B0B0E9477
:1014F0008D0B68F39923B1F3552391F3951B550B8D
:10150000BB27AA2762177307840738F09F5F5F4FD6
:10151000220F331F441FAA1FA9F335D00E2E3AF015
:10152000E0E832D091505040E695001CCAF72BD02D
:10153000FE2F29D0660F771F881FBB1F261737077E
:101540004807AB07B0E809F0BB0B802DBF01FF27B0
:1015500093585F4F3AF09E3F510578F00C94650B1D
:101560000C94B00B5F3FE4F3983ED4F386957795E7
:101570006795B795F7959F5FC9F7880F911D969569
:10158000879597F90895E1E0660F771F881FBB1FC5
:10159000621773078407BA0720F0621B730B840B72
:1015A000BA0BEE1F88F7E09508950E94950B88F01E
:1015B0009F5798F0B92F9927B751B0F0E1F0660F17
:1015C000771F881F991F1AF0BA95C9F714C0B13058
:1015D00091F00E94AF0BB1E008950C94AF0B672F10
:1015E000782F8827B85F39F0B93FCCF38695779587
:1015F0006795B395D9F73EF4909580957095619570
:101600007F4F8F4F9F4F0895E89409C097FB3EF49A
:1016100090958095709561957F4F8F4F9F4F99233F
:10162000A9F0F92F96E9BB279395F69587957795BD
:101630006795B795F111F8CFFAF4BB0F11F460FF7D
:101640001BC06F5F7F4F8F4F9F4F16C0882311F0D5
:1016500096E911C0772321F09EE8872F762F05C0E9
:10166000662371F096E8862F70E060E02AF09A9584
:10167000660F771F881FDAF7880F9695879597F979
:101680000895990F0008550FAA0BE0E8FEEF161613
:101690001706E807F907C0F012161306E407F50766
:1016A00098F0621B730B840B950B39F40A2661F0DA
:1016B000232B242B252B21F408950A2609F4A1407D
:1016C000A6958FEF811D811D089597F99F6780E88A
:1016D00070E060E008959FEF80EC089500240A9484
:1016E0001616170618060906089500240A941216FD
:1016F0001306140605060895092E0394000C11F430
:10170000882352F0BB0F40F4BF2B11F460FF04C0DC
:101710006F5F7F4F8F4F9F4F089557FD9058440F35
:10172000551F59F05F3F71F04795880F97FB991F40
:1017300061F09F3F79F087950895121613061406FD
:10174000551FF2CF4695F1DF08C01616170618068A
:10175000991FF1CF86957105610508940895E89465
:10176000BB2766277727CB0197F908950E94410B85
:1017700008F48FEF08950E94CE0B0C947C0B0E940E
:101780006E0B38F00E94750B20F0952311F00C942D
:10179000650B0C946B0B11240C94B00B0E948D0BF9
:1017A00070F3959FC1F3950F50E0551F629FF001B4
:1017B000729FBB27F00DB11D639FAA27F00DB11DCD
:1017C000AA1F649F6627B00DA11D661F829F222756
:1017D000B00DA11D621F739FB00DA11D621F839FDD
:1017E000A00D611D221F749F3327A00D611D231FB3
:1017F000849F600D211D822F762F6A2F11249F5701
:1018000050409AF0F1F088234AF0EE0FFF1FBB1F03
:10181000661F771F881F91505040A9F79E3F5105C2
:1018200080F00C94650B0C94B00B5F3FE4F3983E92
:10183000D4F3869577956795B795F795E7959F5F6C
:10184000C1F7FE2B880F911D9695879597F90895FE
:101850000E94410B880B990B0895A1E21A2EAA1B36
:10186000BB1BFD010DC0AA1FBB1FEE1FFF1FA21750
:10187000B307E407F50720F0A21BB30BE40BF50B4D
:10188000661F771F881F991F1A9469F760957095D6
:10189000809590959B01AC01BD01CF010895EE0F9D
:1018A000FF1F0024001C0BBE0790F691E02D099449
:0418B000F894FFCFDA
:1018B4000000000009028301D201B001C4015002FA
:1018C400000000005203250328011203030302034E
:1018D4000D0A006E616E00696E66006F76660049DF
:1018E4006E697469616C697A65204144584C33347B
:1018F4003500436F756C64206E6F742066696E6486
:1019040020612076616C6964204144584C3334353D
:101914002073656E736F722C20636865636B207728
:101924006972696E67210053656C65637465642030
:101934006D6561737572656D656E742072616E6735
:10194400653A20002B2F2D2031362067002B2F2DB8
:1019540020382067002B2F2D20342067002B2F2DBB
:10196400203220670053656C65637465642064618C
:10197400746120726174653A20003332303020483B
:101984007A003136303020487A0038303020487AB6
:101994000034303020487A0031303020487A003525
:1019A4003020487A0031322E3520487A00362E32E3
:1019B4003520487A00332E313320487A00312E35D1
:1019C4003620487A00302E373820487A00302E33BB
:1019D4003920487A00302E323020487A00302E31B7
:1019E4003020487A0020586E6F726D203D20002010
:1019F400596E6F726D203D2000205A6E6F726D20FB
:041A04003D20000081
:0200000002C03C
:00000001FF