:100000000C940E010C9438010C9438010C943801B6
:100010000C9438010C9438010C9438010C9438017C
:100020000C9438010C9438010C9438010C9438016C
:100030000C9438010C9438010C9438010C9438015C
:100040000C940C0C0C9438010C94D60B0C94AC0B47
:100050000C9438010C9438010C9438010C9438013C
:100060000C9438010C9438010C9438010C9438012C
:100070000C9438010C9438010C9438010C9438011C
:100080000C9438010C94560C0C94380107634236DA
:10009000B79BD8A71A39685618AEBAAB558C1D3C19
:1000A000B7CC5763BD6DEDFD753EF6177231BF00DD
:1000B0000000803F08000000BE922449123EABAA17
:1000C000AA2ABECDCCCC4C3E00000080BEABAAAA72
:1000D000AA3E00000000BF000000803F00000000BA
:1000E00000084178D3BB4387D1133D190E3CC3BDF3
:1000F0004282AD2B3E68EC8276BED98FE1A93E4CA0
:1001000080EFFFBE01C4FF7F3F0000000000000041
:100110003900360033003000210020006300000069
:100120003A00370034003100220061006400000012
:100130003B003800350032002300620065000505F1
:100140000505050505050202020202020202070773
:10015000040404040404040407070303030303035F
:10016000030307010101010101010106060606065C
:10017000060606010204081020408001020408104F
:100180002040800810010204081020408001020174
:10019000020408102040800480402010080402015E
:1001A00001020408102040800000000A0B0C00002F
:1001B000000000000104050600000000000000002F
:1001C000000000000000000000000000000000002F
:1001D000000000000000000000000000000001021C
:1001E000030405436F756C64206E6F742066696E3E
:1001F0006420612076616C696420424D5032383051
:100200002073656E736F722C20636865636B207753
:100210006972696E67210000760DE21211241FBE1B
:10022000CFEFD0E1DEBFCDBF23E0A0E0B2E001C060
:100230001D92A33EB207E1F712E0A0E0B1E0E2EACE
:10024000F3E300E00BBF02C007900D92A030B107AE
:10025000D9F711E0CDE0D1E004C02197FE010E9462
:10026000E216CC30D107C9F70E94F50D0C94C419E1
:100270000C9400009091EE029111FCCF91E09093CC
:10028000EE029093ED022FEF2093EC021092EB021E
:10029000260F2093EA029093E9029091E902880FD9
:1002A000892B8093E9028091E8028130F9F4109261
:1002B000E8028091E902809373008091740083FDCD
:1002C000F8CF85EC809374008091EE028130E1F3E9
:1002D0008091EB02861710F46091EB02A8ECB2E07B
:1002E000E8EAF2E080E0861303C0089585EEEACFE5
:1002F0009D9191938F5FF7CF91E09093A7028093A8
:10030000A6021092A5021092A40208958091A20262
:100310009091A302891B990B08958DB99EB90895F8
:10032000AF92BF92CF92DF92EF92FF920F931F9303
:10033000CF93DF936C017B018B01040F151FEB0141
:100340005E01AE18BF08C017D10759F06991D601F8
:10035000ED91FC910190F081E02DC6010995892B6A
:1003600079F7C501DF91CF911F910F91FF90EF9029
:10037000DF90CF90BF90AF900895FC01918D828D5A
:10038000981761F0A28DAE0FBF2FB11D5D968C91B5
:10039000928D9F5F9F73928F90E008958FEF9FEFF4
:1003A0000895FC01918D828D981731F0828DE80FB0
:1003B000F11D858D90E008958FEF9FEF0895FC016A
:1003C000918D228D892F90E0805C9F4F821B910937
:1003D0008F73992708958FEE92E00E94DF0121E04C
:1003E000892B09F420E0822F0895FC01A48DA80F29
:1003F000B92FB11DA35ABF4F2C91848D90E0019667
:100400008F739927848FA689B7892C93A089B18986
:100410008C9180648C93938D848D981306C0028890
:10042000F389E02D80818F7D80830895EF92FF9284
:100430000F931F93CF93DF93EC0181E0888F9B8D07
:100440008C8D981316C0E889F989808185FF11C0C9
:10045000EE89FF896083E889F989808180648083DF
:1004600081E090E0DF91CF911F910F91FF90EF908D
:100470000895F62E0B8D10E00F5F1F4F0F7311279D
:10048000E02E8C8D8E110CC00FB607FCFACFE889D8
:10049000F989808185FFF5CFCE010E94F501F1CF6A
:1004A000EB8DEC0FFD2FF11DE35AFF4FF0820B8F08
:1004B000EA89FB8980818062D2CFCF93DF93EC0100
:1004C000888D8823B9F0AA89BB89E889F9898C913C
:1004D00085FD03C0808186FD0DC00FB607FCF7CFF8
:1004E0008C9185FFF2CF808185FFEDCFCE010E94F8
:1004F000F501E9CFDF91CF91089580E090E0892B5D
:1005000029F00E94EB0181110E94000080E090E040
:10051000892B49F080E090E0892B29F00E940000AF
:1005200081110C940000089581508C3048F5E82F1B
:10053000F0E0E356FD4F0C94E216B702B702C0029A
:10054000A902AD02B002B302C002C002BB02C102E6
:10055000C5028FB58F778FBD08958FB58F7DFBCF87
:100560008FB5877FF8CF85B58F7D85BD089583B71B
:100570008F7D83BF089580918B008F7780938B0050
:10058000089580918B008F7DF9CF80918B00877FBC
:10059000F5CF1F93CF93DF93282F30E0F901E85573
:1005A000FE4F8491F901ED58FE4FD491F901E25CC0
:1005B000FE4FC491CC23A9F0162F81110E94940202
:1005C000EC2FF0E0EE0FFF1FE25DFE4FA591B4911E
:1005D0008FB7F894EC91111108C0D095DE23DC930D
:1005E0008FBFDF91CF911F910895DE2BF8CF20911F
:1005F0008C0330918D0340918E0350918F0324170B
:10060000350721F0682F822F0C94C9020895CF93EB
:10061000DF9390E0FC01ED58FE4F2491825C9E4FE9
:10062000FC0184918823D1F090E0880F991FFC0190
:10063000E25EFE4FA591B491FC01E25DFE4FC591D3
:10064000D49161110EC09FB7F8948C91E22FE09580
:100650008E238C932881E223E8839FBFDF91CF9183
:1006600008958FB7F894EC91E22BEC938FBFF6CFFF
:100670008330910528F0880F991F04970197F1F7AF
:100680000895CF93DF936D989DB1937F9DB99DB1F0
:100690009C7F9DB9709ACCE8D3E0682F8A810E9434
:1006A000C9028C899D89DF91CF910C9438033FB7A3
:1006B000F8948091690290916A02A0916B02B091C6
:1006C0006C0222B706B600FE05C02F3F19F0019656
:1006D000A11DB11D3FBFBA2FA92F982F8827BC019C
:1006E000CD01620F711D811D911D43E0660F771FC3
:1006F000881F991F4A95D1F708958F929F92AF92C4
:10070000BF92CF92DF92EF92FF924B015C010E9469
:1007100057036B017C010E9457036C197D098E09F8
:100720009F09683E734081059105A8F321E0821A74
:100730009108A108B10888EEC80E83E0D81EE11C1C
:10074000F11C81149104A104B10429F7FF90EF90EA
:10075000DF90CF90BF90AF909F908F9008950895B5
:10076000089508958FB90000779BFECF8FB108954B
:10077000CF93DF93C82FD62F80E00E9441038C2FA8
:1007800080620E94B203C82F8D2F0E94B20381E0C5
:100790000E9441038C2FDF91CF910895CF93C82FF2
:1007A00080E00E9441038C2F0E94B2038FEF0E94D1
:1007B000B203C82F81E00E9441038C2FCF9108958E
:1007C00080E00E94CE0381FD0BC0682F626080E054
:1007D0000E94B80365E070E080E090E00C947D0337
:1007E00008950F931F93CF938C0186E00E94CE0350
:1007F000C82FC77D85E590E0A0E0B0E0023011058C
:1008000029F4C0628BE990E0A0E0B0E080939C0303
:1008100090939D03A0939E03B0939F036C2F86E05B
:100820000E94B80386E00E94CE0391E0C81390E0D6
:10083000892FCF911F910F910895CF93C82F80E0FA
:100840000E9441038C2F0E94B203C82F81E00E94B6
:1008500041038C2FCF910895EF92FF920F931F9336
:10086000CF93DF93C82F7B01142F80E00E944103B8
:100870008C2F80620E94B203082FE701115020F0F4
:1008800089910E94B203FACF81E00E944103802F38
:10089000DF91CF911F910F91FF90EF900895AF924C
:1008A000BF92CF92DF92EF92FF920F931F93CF935D
:1008B000DF93EC01862F9C899F3F61F4DF91CF91FC
:1008C0001F910F91FF90EF90DF90CF90BF90AF906E
:1008D0000C94B203B62ED12C07E010E0EE24E39482
:1008E000F12CDD0C60E08C890E94C902B701002E5A
:1008F00001C0660F0A94EAF76B218A890E94C90237
:1009000061E08C890E94C9022B8930E0F901E85529
:10091000FE4F8491F901ED58FE4FC490F901E25C5D
:10092000FE4FA490AA2081F081110E949402EA2D2A
:10093000F0E0EE0FFF1FE25FFE4FA591B491EC9146
:10094000CE2211F06894D0F80150110908F0C9CFF7
:100950008D2DDF91CF911F910F91FF90EF90DF9040
:10096000CF90BF90AF900895CF93CFB7F894809178
:100970006302811123C0E6E4F1E08491EBE7F1E04A
:100980009491E82FF0E0EE0FFF1FE25EFE4FA5917D
:10099000B491EC91E92321F461E088E00E94C9025E
:1009A00061E088E00E9407036C9A6E9A61E089E03A
:1009B0000E94070361E08AE00E94070380916302BE
:1009C0008F5F80936302CFBFCF91089585ED8093B1
:1009D00074008091740084FDFCCF1092EE020895A3
:1009E000613298F42091EE02243089F46093400241
:1009F000282FA0E2B2E0FC018E2F821B861710F098
:100A000080E0089581918D93F7CF81E0089582E091
:100A100008951092EE0281E08093ED021092E802B8
:100A200061E083E10E94C90261E082E10E94C902A3
:100A3000E1E7F0E080818E7F808380818D7F8083FD
:100A400080E28093700085E4809374000895089597
:100A5000E091A3028091A202E81730F4F0E0E8559B
:100A6000FD4F808190E008958FEF9FEF0895909162
:100A7000A3028091A2022FEF3FEF981748F4E92FCD
:100A8000F0E0E855FD4F208130E09F5F9093A30296
:100A9000C9010895CF92DF92EF92FF920F931F93B7
:100AA000CF93DF937C01CB018A012091A7022223FF
:100AB00089F0EB016B01C40ED51ECC15DD0569F084
:100AC0006991D701ED91FC910190F081E02DC70172
:100AD0000995F3CF642F0E94F004C801DF91CF91F4
:100AE0001F910F91FF90EF90DF90CF900895CF93DB
:100AF000DF931F92CDB7DEB769832091A70222232F
:100B0000F9F02091A402203258F021E030E0FC01FD
:100B10003383228390E080E00F90DF91CF9108959E
:100B20008091A502E82FF0E0E050FE4F998190837C
:100B30008F5F8093A5028093A40281E090E0ECCFC8
:100B400061E0CE0101960E94F004F7CF2091A4024B
:100B500081E0213208F044C08091EE028111FCCF87
:100B60008091A60292E09093EE0291E09093ED02C4
:100B70009FEF9093EC021092EB022093EA02A0E028
:100B8000B2E0E8ECF2E090E0291331C01092E90203
:100B90009091E902880F892B8093E9028091E80205
:100BA000813049F51092E8028091E9028093730048
:100BB0008091740083FDF8CF85EC80937400809160
:100BC000EE028230E1F38091EC028F3FB1F0809130
:100BD000EC028032A1F08091EC02803391F084E04D
:100BE0001092A5021092A4021092A70208953D91BE
:100BF00031939F5FC9CF85EEE0CF80E0F1CF82E0F7
:100C0000EFCF83E0EDCFCF93DF93D82FC62F83E5CF
:100C10000E947C016D2F84EA93E00E9477056C2F7F
:100C200084EA93E00E94770584EA93E0DF91CF9114
:100C30000C94A605CF93DF93C82FD62F8091C103C4
:100C40008F3F21F58091B8030E947C018091B00311
:100C50009091B103DC01ED91FC910190F081E02DC8
:100C60006C2F09958091B0039091B103DC01ED9157
:100C7000FC910190F081E02D6D2F09958091B003DA
:100C80009091B103DF91CF910C94A6058091C4039C
:100C90008F3F21F481E590E00E948D0160E080911A
:100CA000C1030E94C9026C2F6F7780EB93E00E9412
:100CB0004F046D2F80EB93E00E944F0461E0809120
:100CC000C103DF91CF910C94C902682F83E50E9484
:100CD0003A011092A3028093A2020895CF93C82FE5
:100CE00083E50E947C016C2F84EA93E00E947705E3
:100CF00084EA93E00E94A60583E50E947C0181E0DE
:100D000090E00E9465069091A2028091A30298173C
:100D1000F1F384EA93E00E943705C82F84EA93E058
:100D20000E94A6058C2FCF910895CF93C82F81E301
:100D30000E946E06682F607F6C2B686081E3CF9104
:100D40000C940306CF93DF93C82F83E50E947C01A8
:100D50006C2F84EA93E00E94770584EA93E00E9476
:100D6000A60583E50E947C0182E090E00E94650672
:100D70009091A2028091A3029817F1F384EA93E084
:100D80000E943705C82F84EA93E00E943705D82FC8
:100D900084EA93E00E94A60580E09D2F8C2BDF91D2
:100DA000CF910895862F642F0E943A011092A302DA
:100DB0008093A2020895CF93DF93C82F8091C1033F
:100DC0008F3F09F040C08091B8030E947C01809160
:100DD000B0039091B103DC01ED91FC910190F081A1
:100DE000E02D6C2F09958091B0039091B1030E9482
:100DF000A60542E06091B8038091B0039091B103E1
:100E00000E94D2068091B0039091B103DC01ED9174
:100E1000FC910680F781E02D0995C82F8091B003E1
:100E20009091B103DC01ED91FC910680F781E02DFA
:100E3000099520E03C2FE901C82BD92B9C2F8D2F41
:100E4000DF91CF9108958091C4038F3F21F481E514
:100E500090E00E948D0160E08091C1030E94C90270
:100E60006C2F80EB93E00E944F0460E080EB93E0F6
:100E70000E944F04C82F60E080EB93E00E944F0473
:100E8000DC2FC82F61E08091C1030E94C902D6CF38
:100E90008F929F92AF92BF92CF92DF92EF92FF928A
:100EA000CF93DF93EC01F62E89898F3F09F05DC067
:100EB00088850E947C0188819981DC01ED91FC91FB
:100EC0000190F081E02D6F2D0995888199810E9414
:100ED000A60543E06885888199810E94D2068881B1
:100EE0009981DC01ED91FC910680F781E02D099557
:100EF0004C01990FAA08BB08BA2CA92C982C88245D
:100F000088819981DC01ED91FC910680F781E02DCB
:100F10000995092E000CAA0BBB0B882A992AAA2A2C
:100F2000BB2ABA2CA92C982C882488819981DC01B1
:100F3000ED91FC910680F781E02D0995092E000CBA
:100F4000AA0BBB0B6C017D01C828D928EA28FB2815
:100F5000C701B601DF91CF91FF90EF90DF90CF9066
:100F6000BF90AF909F908F9008958C898F3F21F410
:100F700081E590E00E948D0160E089890E94C902AC
:100F80006F2DCE010E944F0460E0CE010E944F04FD
:100F900090E0B0E0A0E0CC24D82EE92EFA2E60E05C
:100FA000CE010E944F04C82AFE2CED2CDC2CCC2450
:100FB00060E0CE010E944F04C82A61E089890E9446
:100FC000C902C6CF8F929F92AF92BF92CF92DF920B
:100FD000EF92FF920F931F93CF93DF93EC016AEF91
:100FE0000E9448070D891E8930E020E0C72ED82EC8
:100FF000E92EFF24E7FCFA94C01AD10AE20AF30AA8
:1010000057E095958795779567955A95D1F7000F95
:10101000111F221F331F4B015C01801A910AA20A83
:10102000B30AA5019401AF89B88D0E94F6164B0151
:101030005C01FBE0B594A79497948794FA95D1F757
:10104000A7019601C701B6010E94B0169B01AC0131
:10105000ACE05595479537952795AA95D1F7A98D79
:10106000BA8D0E94F6169B01AC01BEE055954795DE
:1010700037952795BA95D1F7280D391D4A1D5B1D67
:101080002D873E874F87588BA5E0B0E00E94EB1676
:1010900060587F4F8F4F9F4F672F782F892F992749
:1010A00087FD9A950E94E41320E030E048EC52E47A
:1010B0000E946A13DF91CF911F910F91FF90EF90E3
:1010C000DF90CF90BF90AF909F908F9008952F9218
:1010D0003F924F925F926F927F928F929F92AF92C8
:1010E000BF92CF92DF92EF92FF920F931F93CF9315
:1010F000DF93CDB7DEB76D970FB6F894DEBF0FBEA6
:10110000CDBF9D8F8C8F0E94E20767EF8C8D9D8DE8
:101110000E944807688F798F8A8F9B8FEC8DFD8D99
:1011200085859685A785B0896C017D01FF0CCC086B
:10113000DC2C76019C01AD016C2D7C2D8C2D9C2D21
:10114000345F414051096109710981099109298779
:101150003A874B875C873B014C0159016A017B014F
:101160008C010E94FE16322E232E4A8B5B8B6C8BD9
:101170007D8B8E8B9F8BAC8DBD8D5E963C915E97EB
:101180005D962C91932F990F990B492F592F692F09
:10119000792F892F0E94FE160CE00E942D18522EE6
:1011A00039834D875E876F87788B898B492EEC8DCD
:1011B000FD8D30A1278D932F990F990BA32CB22C65
:1011C000CA88DB88EC88FD880E891F89492F592F32
:1011D000692F792F892F0E94FE1608E00E94461879
:1011E000A52CB980CD84DE84EF84F8880989142D7C
:1011F0000E94631870588F4F9F4FAC8DBD8D5B96CA
:10120000ED91FC915F01D12CC12CE12CF12C8701D7
:10121000E983BA82CB82DC82ED82FE820F8318875B
:10122000C12CD12CE12CF12C00E010E00E94FE1624
:1012300001E20E9446182983532E4D875E876F87EF
:10124000788B898B492EA0E00E94751809F43DC166
:10125000AC8DBD8D96963C91969795962C91932F3B
:10126000990F990BA32CB22CCA88DB88EC88FD88D7
:101270000E891F89492F592F692F792F892F0E9495
:10128000FE1619014A8B5B8B6C8B7D8B8E8B9F8B33
:10129000EC8DFD8D34A123A1932F990F990BA98477
:1012A000BA84CB84DC8473018401492F592F692FC0
:1012B000792F892F0E94FE1601E10E942D185101FD
:1012C000CA88DB88EC88FD880E891F890E94631814
:1012D00059016A017B01282E192F488D598D6A8D7D
:1012E0007B8D84E075956795579547958A95D1F7DD
:1012F00080E090E0A0E1B0E0841B950BA60BB70B5B
:101300003C014D01990C6608762C43019C01AD010E
:10131000662D762D862D962D0FE10E942D18722EAA
:10132000832E942E652EB62FA72F382E9987EC8DFD
:10133000FD8D32A121A1932F990F990B492F592F80
:10134000692F792F892F03E20E942D18022D0E9408
:10135000631859016A017B018C01272D382D492D15
:10136000562D6B2F7A2F832D99850E946C18E5E3FB
:10137000AE2EFCE0BF2EC12CD12CE12CF12C00E0D4
:1013800010E00E94FE16A980B52CCD84DE84EF8487
:10139000F8880989142D0E94581729873A874B87A6
:1013A0005C8769837D878E879F870DE00E94461842
:1013B000922E832E742E652E562E472E382E292ED1
:1013C000AC8DBD8D9C963C919C979B962C91932FB8
:1013D000990F990BA92CB82CC72CD62CE52CF42CE2
:1013E000032D122D492F592F692F792F892F0E94F4
:1013F000FE160E94FE1609E10E944618A984BA84CE
:10140000CB84DC84E980FD840E851F850E946318EF
:1014100019012A013B014C01EC8DFD8D32A521A55E
:10142000932F990F990B492F592F692F792F892FB6
:101430000E94FE1603E10E94461859016A017B01D1
:101440008C019101A201B301C4010E94631808E05C
:101450000E94461859016A017B01E82F192FAC8DB3
:10146000BD8D98963C91989797962C91932F990FB4
:10147000990B492F592F692F792F892F04E00E944A
:101480002D180E2F0E9463180E94DC1320E030E01C
:1014900040E85BE30E94BE146D960FB6F894DEBF81
:1014A0000FBECDBFDF91CF911F910F91FF90EF90B5
:1014B000DF90CF90BF90AF909F908F907F906F9074
:1014C0005F904F903F902F90089560E070E0CB01C7
:1014D000E3CFFC0101900020E9F73197AF01481BF1
:1014E000590BBC018FEE92E00C949001CF93DF93E7
:1014F0000E94690AEC0182E691E00E94690A8C0F61
:101500009D1FDF91CF9108950C942C190C942C19E8
:10151000CF93DF93EB01FB01349620E2DF011D92B4
:101520002A95E9F744E250E060E070E0488359838F
:101530006A837B83FC0143815481052E000C660B7A
:10154000770B4C835D836E837F8346E050E060E0E1
:1015500070E0488759876A877B872FB7F894409156
:1015600065025091660260916702709168022FBF18
:10157000488B598B6A8B7B8B858196810E9467088B
:1015800020E030E048EC52E40E946A136C8B7D8BC3
:101590008E8B9F8B81E0DF91CF910895CF93DF9366
:1015A000EB01FB01349620E2DF011D922A95E9F759
:1015B00044E250E060E070E0488359836A837B83B3
:1015C000FC0143815481052E000C660B770B4C8384
:1015D0005D836E837F834DE050E060E070E048877C
:1015E00059876A877B872FB7F8944091650250919D
:1015F000660260916702709168022FBF488B598B19
:101600006A8B7B8B858196810E94E2076C8B7D8B38
:101610008E8B9F8B81E0DF91CF9108950F931F9365
:10162000CF93DF938C01EB0188E2FB0111928A9545
:10163000E9F74BE050E065E671E0CE010E94B51994
:101640001B8681E090E0A0E0B0E08C879D87AE87AC
:10165000BF87F80183819481092E000CAA0BBB0B74
:10166000888B998BAA8BBB8B86E090E0A0E0B0E0E2
:101670008C8B9D8BAE8BBF8B1CA21DA21EA21FA2AA
:1016800080E090E0A6E9B3E4888F998FAA8FBB8FA2
:1016900080E090E8A9E8B4E48C8F9D8FAE8FBF8F77
:1016A00086EA9BE9A4E4BCE388A399A3AAA3BBA30D
:1016B000DF91CF911F910F9108950F931F93CF93B7
:1016C000DF938C01EB0188E2FB0111928A95E9F727
:1016D0004BE050E065E671E0CE010E94B5191B8633
:1016E00081E090E0A0E0B0E08C879D87AE87BF8767
:1016F000F80183819481092E000CAA0BBB0B888B07
:10170000998BAA8BBB8B8DE090E0A0E0B0E08C8B36
:101710009D8BAE8BBF8B1CA21DA21EA21FA280E0C0
:1017200090E0A0E2B2EC888F998FAA8FBB8F80E007
:1017300090E0AAEAB2E48C8F9D8FAE8FBF8F8AE0D3
:1017400097EDA3E2BCE388A399A3AAA3BBA3DF916F
:10175000CF911F910F9108951F920F920FB60F9284
:1017600011240BB60F922F933F934F935F936F9378
:101770007F938F939F93AF93BF93EF93FF938FEEDE
:1017800092E00E94F501FF91EF91BF91AF919F917F
:101790008F917F916F915F914F913F912F910F901A
:1017A0000BBE0F900FBE0F901F9018951F920F92B7
:1017B0000FB60F9211240BB60F922F938F939F9316
:1017C000EF93FF93E091FF02F09100038081E0919D
:1017D0000503F091060382FD1DC0908180910803EE
:1017E0008F5F8F7320910903821741F0E091080306
:1017F000F0E0E151FD4F958F80930803FF91EF9149
:101800009F918F912F910F900BBE0F900FBE0F9055
:101810001F9018958081F2CF1F920F920FB60F92F2
:1018200011242F933F938F939F93AF93BF938091F6
:10183000650290916602A0916702B09168023091B2
:10184000640226E0230F2D3758F50296A11DB11D25
:10185000209364028093650290936602A0936702CE
:10186000B09368028091690290916A02A0916B0224
:10187000B0916C020196A11DB11D809369029093F5
:101880006A02A0936B02B0936C02BF91AF919F91DB
:101890008F913F912F910F900FBE0F901F90189531
:1018A00029E8230F0396A11DB11DD2CF1F920F92DD
:1018B0000FB60F9211240BB60F922F933F934F93B5
:1018C0005F936F937F938F939F93AF93BF93EF93A8
:1018D000FF9380917100887F803609F44DC008F035
:1018E00040C0883209F4A7C028F5803109F49BC0B4
:1018F000C8F4882309F4F7C0883009F494C0FF9134
:10190000EF91BF91AF919F918F917F916F915F9177
:101910004F913F912F910F900BBE0F900FBE0F90E4
:101920001F901895883109F486C0803241F7809362
:10193000EC0214C0803409F49BC040F48033B9F346
:101940008833E9F68093EC0285ECAEC0803509F46B
:1019500083C0883509F494C0883489F60E94E6046F
:10196000CECF883909F48AC038F5883729F050F489
:10197000883611F0803719F683E08093EE021092DA
:10198000620255C0883809F479C0803919F080386E
:1019900009F0B5CF80916202803208F06FC0E0910B
:1019A000620281E08E0F8093620280917300F0E00A
:1019B000EE5BFD4F80833BC0803B39F0D0F4803A32
:1019C00009F477C0883A09F09ACF84E08093EE0258
:1019D0001092410210924002F0E0E0E009958091FF
:1019E000400281110FC081E08093400210922002DA
:1019F00009C0803C09F4A8CF883C09F4A5CF883BF6
:101A000009F07DCFE091410281E08E0F8093410289
:101A1000F0E0E05EFD4F8081809373009091410281
:101A20008091400229C08091E9028093730085EC87
:101A30008093740064CF9091EB028091EA02981732
:101A400058F5E091EB0281E08E0F8093EB02F0E01D
:101A5000E853FD4F8081E9CFE091EB0281E08E0FEA
:101A60008093EB0280917300F0E0E853FD4F808398
:101A70009091EB028091EA029817C8F285E8D8CFDE
:101A8000E091EB0281E08E0F8093EB028091730076
:101A9000F0E0E853FD4F80838091ED0281115ECF2D
:101AA00081E08093E80284EA809374001092EE0251
:101AB00026CF85EC809374001092EE028091620232
:101AC000803230F4E0916202F0E0EE5BFD4F108274
:101AD0006091620270E082E492E0F0E0E0E009955B
:101AE000109262020CCF1092EC0238CFCF93DF93AA
:101AF000EFEEF2E01382128288EE93E0A0E0B0E015
:101B000084839583A683B7832AE231E031832083DF
:101B100020E930E03587248729E230E037872687BF
:101B20002BE230E0318B208B2AE230E0338B228BAA
:101B300025E930E0358B248B2CE230E0378B268B87
:101B4000118E128E138E148EE4EAF3E01382128249
:101B500084839583A683B7838AE391E0918380830E
:101B6000C0EBD3E08FEF898B8A8B8B8B8C8BF983C7
:101B7000E88387E090E00E949018FC0188E591E0FE
:101B80009183808388E191E094838383D683C583A6
:101B9000FD83EC8387E090E00E949018FC018AE4CA
:101BA00091E09183808314821382D683C583FF835F
:101BB000EE83ECE8F3E083E090E09183808382E0C1
:101BC00090E093838283168280E28783108685E08B
:101BD000868785E090E0A0E0B0E0848B958BA68BB3
:101BE000B78B1186DF91CF910895CF93DF93CDB757
:101BF000DEB7E5970FB6F894DEBF0FBECDBF789481
:101C000083B7806483BF83B7886083BF83B78460F2
:101C100083BF87B7816087BF1EBC8EB582608EBDD3
:101C20008EB581608EBD8FB581608FBD85B58460B6
:101C300085BD85B5806485BD80918A008260809372
:101C40008A0080918A00816080938A0080918B0055
:101C5000816080938B00329A319A3098379A1AB803
:101C6000E091FF02F091000382E08083E091FB02AB
:101C7000F091FC021082E091FD02F091FE0287E6F5
:101C8000808310920703E0910303F091040386E040
:101C90008083E0910103F091020380818061808361
:101CA000E0910103F0910203808188608083E091DC
:101CB0000103F0910203808180688083E091010339
:101CC000F091020380818F7D808380918C039091BD
:101CD0008D0320918E0330918F038217930719F0A3
:101CE00061E00E94070380918E0390918F03209101
:101CF0008C0330918D032817390719F061E00E9499
:101D000007030E94B40480E00E94F70281E00E9471
:101D1000410365E070E080E090E00E947D036CE0AC
:101D200080E00E94B8036FE584E00E94B80382E07F
:101D300090E00E94F103882319F081E080939203E0
:101D400086E00E94CE0390E080E00E94F10380E0F4
:101D50000E94410380E50E94B20383E70E94B20320
:101D600081E00E94410360E08DE10E94B80360E0E1
:101D70008CE10E94B8031092940360E787E00E9410
:101D8000B8036CE485E00E94B80382EE0E941D0453
:101D900081EE0E941D040E94E00380E00E94CE03B9
:101DA000682F6E7F80E00E94B80381E18AA38DEDE9
:101DB0008BA38CEC8CA38BEB8DA38AEA8EA31FA242
:101DC00018A619A640919A03BE016E5D7F4F8AE066
:101DD0000E942C0440919A03BE016E5D7F4F80E10A
:101DE0000E942C046091930381E10E94B8036CE38C
:101DF00085E00E94B80386E00E94CE03682F6760EA
:101E000086E00E94B80382E090E00E94F1030E9405
:101E1000E00380E00E94F70280919C0390919D0373
:101E20000E9438038DE10E94CE0381FF09C080919A
:101E30009C0390919D030E94380381EE0E941D0433
:101E400080E00E94CE03682F6E7F80E00E94B8037E
:101E500082E00E94CE03EDEDF1E0E49161E070E0FC
:101E600001C0660FEA95EAF7682B82E00E94B8038A
:101E700096E7F92EF092B8038091C1038F3F09F0E5
:101E800051C11092A3021092A2021092A5021092C8
:101E9000A4020E9409058091C1038F3F09F05FC130
:101EA0008091B8030E947C018091B0039091B103AE
:101EB000DC01ED91FC910190F081E02D60ED099540
:101EC0008091B0039091B1030E94A60541E060911A
:101ED000B8038091B0039091B1030E94D206809123
:101EE000B0039091B103DC01ED91FC910680F78184
:101EF000E02D0995182F183509F04FC188E80E9488
:101F0000DB069093C6038093C5038AE80E94DB0634
:101F10009093C8038093C7038CE80E94DB069093DC
:101F2000CA038093C9038EE80E94DB069093CC031A
:101F30008093CB0380E90E94DB069093CE038093CD
:101F4000CD0382E90E94DB069093D0038093CF03F8
:101F500084E90E94DB069093D2038093D10386E943
:101F60000E94DB069093D4038093D30388E90E94F8
:101F7000DB069093D6038093D5038AE90E94DB06A3
:101F80009093D8038093D7038CE90E94DB0690934B
:101F9000DA038093D9038EE90E94DB069093DC0379
:101FA0008093DB038DEE8093DE036091DD03607C24
:101FB0006093DD0367FB662760F985EF0E941A06D0
:101FC0008091DE03682F6770B0E26B9FB00111242F
:101FD000282F2695269526952770E4E02E9F9001C0
:101FE0001124622B8295869586958370682B84EFE9
:101FF0000E941A0664E670E080E090E00E947D0393
:102000001092860210928702109288021092890222
:1020100010928A0210928B0210928C0210928D0202
:1020200010928E0210928F021092900210929102E2
:102030001092A3021092A2021092A5021092A40282
:102040000E94090583E50E947C0160E084EA93E038
:102050000E94770584EA93E00E94A60581E090E063
:102060000E94650684EA93E00E943705182F84EAEF
:1020700093E00E94A605153E09F0A8C068E08DE235
:102080000E94030690E080E00E9495066AE08CE2E0
:102090000E94030660E08DE10E94030660E081E299
:1020A0000E94030660E082E20E94030660E083E291
:1020B0000E94030660E084E20E94030660E085E27D
:1020C0000E94030660E086E20E94030660E088E268
:1020D0000E94030660E089E20E94030687E20E94F4
:1020E0006E06682F687887E20E9403068AE20E94E3
:1020F0006E06682F687F8AE20E94030683E090E004
:102100000E94950681E30E946E068370823009F476
:1021100086C0833009F461C0813009F083C08DE747
:1021200091E05DC061E00E94C90261E08091C1035D
:102130000E9407038091C4038F3F19F40E94B404E6
:10214000AACE61E00E94070361E08091C2030E9471
:10215000070360E08091C3030E9407039CCE809137
:10216000C4038F3F21F481E590E00E948D0160E07F
:102170008091C1030E94C90260ED80EB93E00E9450
:102180004F0460E080EB93E00E944F04182F61E061
:102190008091C1030E94C902AECE03EE11E0F801A6
:1021A0006491662341F08FEE92E00E9416020F5F69
:1021B0001F4F892BA1F782E691E00E94690A60ED2A
:1021C00077E080E090E00E947D0354CE64EF71E000
:1021D00080E090E00E947D0391CF8CE691E00E9428
:1021E000760A8CE20E946E06E82FEF70E15080EFD5
:1021F00091E0EF30E0F4F0E0E050FF4E0C94E21696
:10220000B412B112AE12AB12A812A512A2129F12F2
:102210009C1299129612931290128D12151185E745
:1022200091E0DDCF85E891E0DACF8DE891E00E9482
:10223000760A80EB93E00E94E2076AA77BA78CA74F
:102240009DA780EB93E00E9467086EA77FA788ABED
:1022500099AB80EB93E00E94670820E030E048EC07
:1022600052E40E946A1320E030E54DE754E40E94F6
:102270006A1321E03EED42E45EE30E942B159B01D0
:10228000AC0160E070E080E89FE30E94FD1220E076
:102290003AE24DE257E40E94BE146AAB7BAB8CABD2
:1022A0009DAB82E30E94A206BC01990F880B990B9B
:1022B0000E94E41360936E0270936F028093700229
:1022C0009093710284E30E94A206BC01990F880BCF
:1022D000990B0E94E41360937202709373028093CF
:1022E00074029093750286E30E94A206BC01990FC6
:1022F000880B990B0E94E413609376027093770227
:10230000809378029093790282E30E94A206BC0136
:10231000990F880B990B0E94E41360936E027093DF
:102320006F02809370029093710284E30E94A20670
:10233000BC01990F880B990B0E94E4136093720201
:1023400070937302809374029093750286E30E94E7
:10235000A206BC01990F880B990B0E94E4136B0134
:102360007C01C0927602D0927702E0927802F092DD
:1023700079022FE632E143E85BE360916E027091EF
:102380006F0280917002909171020E94BE142AE047
:1023900038EE4CE151E40E94BE142B013C01409206
:1023A0007A0250927B0260927C0270927D022FE64C
:1023B00032E143E85BE360917202709173028091B5
:1023C0007402909175020E94BE142AE038EE4CE12E
:1023D00051E40E94BE144B015C0180927E029092F7
:1023E0007F02A0928002B09281022FE632E143E8A0
:1023F0005BE3C701B6010E94BE142AE038EE4CE14F
:1024000051E40E94BE146B017C01C0928202D09202
:102410008302E0928402F092850288EF91E00E94AC
:10242000690A20916D0230E050E040E019A28E016F
:102430000F5D1F4FCA01B9012AE030E040E050E0D3
:102440000E94C016605DD8016E938D012115310583
:102450004105510579F7109719F0CD010E94690ADD
:1024600082E691E00E94690A8AA59BA5ACA5BDA55C
:102470008093000190930101A0930201B0930301A6
:102480008EA59FA5A8A9B9A98093040190930501E1
:10249000A0930601B09307018AA99BA9ACA9BDA985
:1024A0008093080190930901A0930A01B0930B0156
:1024B00040920C0150920D0160920E0170920F013A
:1024C0008092100190921101A0921201B09213011A
:1024D000C0921401D0921501E0921601F0921701FA
:1024E00010919303012F113208F000E280919403C0
:1024F000101B811110E080E00E94410380EA0E94DD
:10250000B20380E0E82E81E0F82E015080F1D7017F
:102510008D917D010E94B203F8CF85E991E087CECD
:102520008DE991E084CE84EA91E081CE8EE891E05D
:102530007ECE8BEA91E07BCE82EB91E078CE82EC8E
:1025400091E075CE88EB91E072CE80EC91E06FCE99
:1025500088EC91E06CCE80ED91E069CE88ED91E061
:1025600066CE80EE91E063CE88EE91E060CE1150B1
:1025700020F080E00E94B203FACF81E00E94410384
:1025800081E00E94F7028FEF0E941D048073D9F34F
:1025900080E00E94F70260E787E00E94B80384FFB2
:1025A00003C081EE0E941D0480916D028F5F8093B5
:1025B0006D0268EE73E080E090E00E947D030E946F
:1025C0007D0237CE8091B4039091B503009739F026
:1025D000DC01ED91FC910280F381E02D0995809161
:1025E000B6039091B703009739F0DC01ED91FC91AF
:1025F0000280F381E02D099408955058BB27AA2743
:102600000E9415130C9484140E94761438F00E94D2
:102610007D1420F039F49F3F19F426F40C946314D0
:102620000EF4E095E7FB0C945D14E92F0E949514DD
:1026300058F3BA17620773078407950720F079F4F7
:10264000A6F50C94B7140EF4E0950B2EBA2FA02D1E
:102650000B01B90190010C01CA01A0011124FF274F
:10266000591B99F0593F50F4503E68F11A16F0404A
:10267000A22F232F342F4427585FF3CF4695379549
:102680002795A795F0405395C9F77EF41F16BA0B0E
:10269000620B730B840BBAF09150A1F0FF0FBB1FBC
:1026A000661F771F881FC2F70EC0BA0F621F731F05
:1026B000841F48F4879577956795B795F7959E3F62
:1026C00008F0B0CF9395880F08F09927EE0F9795F3
:1026D000879508950E947E130C9484140E947D14A3
:1026E00058F00E94761440F029F45F3F29F00C94D2
:1026F0005D1451110C94B8140C9463140E94951439
:1027000068F39923B1F3552391F3951B550BBB2720
:10271000AA2762177307840738F09F5F5F4F220F65
:10272000331F441FAA1FA9F335D00E2E3AF0E0E85C
:1027300032D091505040E695001CCAF72BD0FE2FA6
:1027400029D0660F771F881FBB1F2617370748073A
:10275000AB07B0E809F0BB0B802DBF01FF279358F2
:102760005F4F3AF09E3F510578F00C945D140C9445
:10277000B8145F3FE4F3983ED4F386957795679558
:10278000B795F7959F5FC9F7880F911D9695879527
:1027900097F90895E1E0660F771F881FBB1F621746
:1027A00073078407BA0720F0621B730B840BBA0B04
:1027B000EE1F88F7E095089597FB16F40E946614C3
:1027C0000C942014E89409C097FB3EF490958095F2
:1027D000709561957F4F8F4F9F4F9923A9F0F92FE7
:1027E00096E9BB279395F695879577956795B79565
:1027F000F111F8CFFAF4BB0F11F460FF1BC06F5F4B
:102800007F4F8F4F9F4F16C0882311F096E911C05C
:10281000772321F09EE8872F762F05C0662371F07D
:1028200096E8862F70E060E02AF09A95660F771F91
:10283000881FDAF7880F9695879597F90895E89499
:10284000F92F96EBFF2381F0121613061406440BA2
:102850009395F69587957795679557954040FF2313
:10286000B9F71BC099270895882351F49850D2F7DF
:10287000872B762F652F542F432F322F20E0B1F373
:10288000121613061406440B88233AF09A95440F47
:10289000551F661F771F881FCAF755234AF4440F38
:1028A000551F11F460FF04C06F5F7F4F8F4F9F4F24
:1028B000880F9695879597F9089597F99F6780E80F
:1028C00070E060E008959FEF80EC0895909580950A
:1028D0007095609550954095309521953F4F4F4F9D
:1028E0005F4F6F4F7F4F8F4F9F4F089500240A9483
:1028F0001616170618060906089500240A941216DB
:102900001306140605060895092E0394000C11F40D
:10291000882352F0BB0F40F4BF2B11F460FF04C0BA
:102920006F5F7F4F8F4F9F4F089557FD9058440F13
:10293000551F59F05F3F71F04795880F97FB991F1E
:1029400061F09F3F79F087950895121613061406DB
:10295000551FF2CF4695F1DF08C016161706180668
:10296000991FF1CF86957105610508940895E89443
:10297000BB2766277727CB0197F908950E94D114CA
:102980000C9484140E94761438F00E947D1420F078
:10299000952311F00C945D140C94631411240C9481
:1029A000B8140E94951470F3959FC1F3950F50E0F1
:1029B000551F629FF001729FBB27F00DB11D639FF1
:1029C000AA27F00DB11DAA1F649F6627B00DA11D97
:1029D000661F829F2227B00DA11D621F739FB00D3D
:1029E000A11D621F839FA00D611D221F749F3327AD
:1029F000A00D611D231F849F600D211D822F762F46
:102A00006A2F11249F5750409AF0F1F088234AF022
:102A1000EE0FFF1FBB1F661F771F881F915050408E
:102A2000A9F79E3F510580F00C945D140C94B814E6
:102A30005F3FE4F3983ED4F3869577956795B79515
:102A4000F795E7959F5FC1F7FE2B880F911D96952F
:102A5000879597F90895FA01EE0FFF1F309621052B
:102A60003105A1F16115710561F48038BFE39B0761
:102A700049F168949038810561F08038BFEF9B0779
:102A800041F099234AF5FF3FE1053105210519F190
:102A9000E8940894E795D901AA2329F4AB2FBE2F17
:102AA000F85FD0F310C0FF5F70F4A695E0F7F73938
:102AB00050F019F0FF3A38F49F779F930DD00F90A4
:102AC00007FC9058089546F00C94631460E070E0A1
:102AD00080E89FE308954FE79F775F934F933F937D
:102AE0002F930E9426162F913F914F915F910E9444
:102AF000BE140C94831529F416F00C945D140C94F8
:102B0000B7140C9463140E949D14A8F39638A0F790
:102B100007F80F92E8942BE33AEA48EB5FE70E944C
:102B2000D4140F920F920F924DB75EB70F920E947E
:102B30006E16ECE8F0E00E94B5154F915F91EF91B1
:102B4000FF91E595EE1FFF1F49F0FE57E06844270F
:102B5000EE0F441FFA95E1F74195550B0E94E815D9
:102B60000F9007FE0C94DC150895DF93CF931F930D
:102B70000F93FF92EF92DF927B018C01689406C065
:102B8000DA2EEF010E94D114FE01E894A59125915F
:102B9000359145915591A6F3EF010E941513FE0161
:102BA0009701A801DA9469F7DF90EF90FF900F91F9
:102BB0001F91CF91DF9108959B01AC0160E070E01F
:102BC00080E89FE30C946A130C945D140C94A21695
:102BD0000E949D14D8F39923C9F3940F511DA3F3B8
:102BE0009150504094F059F0882332F0660F771FCF
:102BF000881F91505040C1F79E3F51052CF7880F18
:102C0000911D9695879597F908955F3FACF0983E92
:102C10009CF0BB27869577956795B79508F4B160CA
:102C20009395C1F7BB0F58F711F460FFE8CF6F5FC2
:102C30007F4F8F4F9F4FE3CF0C94B81416F00C9436
:102C4000A2160C94631468940C945D140E949D1455
:102C5000A8F39923C1F3AEF3DF93CF931F930F93A0
:102C6000FF92C92FDD2788232AF02197660F771F4F
:102C7000881FDAF720E030E040E85FEB9FE3883917
:102C800020F0803E38F021968F770E94FE12E4EB10
:102C9000F0E004C00E94FE12E1EEF0E00E94B515E3
:102CA0008B01BE01EC01FB2E6F5771097595771FE3
:102CB000880B990B0E94E41328E132E741E35FE3BC
:102CC0000E94D114AF2D9801AE01FF900F911F917A
:102CD000CF91DF910E9415130C948414FA01DC014A
:102CE000AA0FBB1F9B01AC01BF5728F42227332733
:102CF0004427507820C0B75190F4AB2F002446955C
:102D000037952795011CA395D2F3002071F0220F6F
:102D1000331F441FB395DAF30ED00C94FD126130CB
:102D20007105A0E88A07B94630F49B01AC0166271B
:102D3000772788279078309621F02083318342834B
:102D4000538308959F3F31F0915020F487957795F4
:102D50006795B795880F911D9695879597F9089572
:102D6000DB018F939F930E94EB16BF91AF91A29FBF
:102D7000800D911DA39F900DB29F900D1124089579
:102D8000A1E21A2EAA1BBB1BFD010DC0AA1FBB1F6F
:102D9000EE1FFF1FA217B307E407F50720F0A21BE1
:102DA000B30BE40BF50B661F771F881F991F1A944E
:102DB00069F760957095809590959B01AC01BD0178
:102DC000CF010895EE0FFF1F0024001C0BBE0790DB
:102DD000F691E02D09940E948118A59F900DB49F53
:102DE000900DA49F800D911D11240895B7FF0C94A0
:102DF000EB160E94EB16821B930B0895DF93CF9383
:102E00001F930F939A9DF02D219FF00D8B9DF00D38
:102E10008A9DE02DF10D039FF00D029FE00DF11D45
:102E20004E9DE00DF11D5E9DF00D4F9DF00D7F93C9
:102E30006F93BF92AF925F934F93D5010E94811819
:102E40008B01AC01D7010E948118EB01E80FF91F3B
:102E5000D6010E944D172F913F91D6010E948118F3
:102E6000C60FD71FE81FF91FAF91BF910E944D17E2
:102E70002F913F910E948118C60FD71FE81FF91F9D
:102E8000D6010E948118E60FF71F9801BE01CF01FD
:102E90000F911F91CF91DF9108950E948118460FE5
:102EA000571FC81FD91F08F431960895689401C0B0
:102EB000E894F92FF12B12F00C948A17A0E0B0E0FF
:102EC000E4E6F7E10C94FC17092E059422F40E9425
:102ED000E617112392F4F0E80F26FFEFE094F09448
:102EE00000951095B094C094D094A194BF0ACF0AD5
:102EF000DF0AEF0AFF0A0F0B1F0B0E94951707FC52
:102F00000E94E617CDB7DEB7ECE00C941818689471
:102F100001C0E8948F929F92CF93DF930E94951700
:102F2000DF91CF919F908F90089588249924F40188
:102F3000E401B0E49F93AA279A158B049C04ED0545
:102F4000FE05CF05D007A10798F4AD2FDC2FCF2FBA
:102F5000FE2FE92D982C892E982F872F762F652FFD
:102F6000542F432F322F2227B85031F7BF9127C05B
:102F70001B2EBF91BB27220F331F441F551F661FF7
:102F8000771F881F991F881C991CEE1FFF1FCC1FDD
:102F9000DD1FAA1FBB1F8A149B04EC05FD05CE058F
:102FA000DF05A007B10748F08A189B08EC09FD0966
:102FB000CE09DF09A00BB10B21601A94E1F62EF4C3
:102FC0009401AF01BE01CD01000C0895609570958C
:102FD0008095909530954095509521953F4F4F4F56
:102FE0005F4F6F4F7F4F8F4F9F4F08952F923F92AC
:102FF0004F925F926F927F928F929F92AF92BF9209
:10300000CF92DF92EF92FF920F931F93CF93DF93B4
:10301000CDB7DEB7CA1BDB0B0FB6F894DEBF0FBE11
:10302000CDBF09942A88398848885F846E847D845E
:103030008C849B84AA84B984C884DF80EE80FD8060
:103040000C811B81AA81B981CE0FD11D0FB6F894D6
:10305000DEBF0FBECDBFED010895002E083090F009
:10306000982F872F762F652F542F432F322F22270B
:103070000850F4CF220F331F441F551F661F771FC0
:10308000881F991F0A95B2F7002D089597FD109497
:10309000002E083098F00850232F342F452F562F3C
:1030A000672F782F892F912DF4CF159497958795B9
:1030B0007795679557954795379527950A95AAF778
:1030C0001124002D08952A0D3B1D4C1D5D1D6E1D04
:1030D0007F1D801F911F08952A193B094C095D0926
:1030E0006E097F09800B910B08950024A7FD0094C1
:1030F0002A173005400550056005700580059005CC
:103100000895A29FB001B39FC001A39F700D811DC0
:103110001124911DB29F700D811D1124911D0895E0
:103120000F931F93CF93DF938230910510F482E0C9
:1031300090E0E091E103F091E20330E020E0B0E0C4
:10314000A0E0309799F42115310509F44AC0281BF5
:10315000390B24303105D8F58A819B8161157105C1
:1031600089F1FB0193838283FE0111C0408151816B
:103170000281138148175907E0F04817590799F45D
:10318000109761F012960C93129713961C93329637
:10319000CF01DF91CF911F910F9108950093E1032B
:1031A0001093E203F4CF2115310551F04217530774
:1031B00038F0A901DB019A01BD01DF01F801C1CF9F
:1031C000EF01F9CF9093E2038093E103CDCFFE01AD
:1031D000E20FF31F819391932250310939832883A1
:1031E000D7CF2091DF033091E003232B41F42091CE
:1031F0002201309123013093E0032093DF032091DB
:103200002001309121012115310541F42DB73EB740
:103210004091240150912501241B350BE091DF03DF
:10322000F091E003E217F307A0F42E1B3F0B2817E1
:10323000390778F0AC014E5F5F4F2417350748F02F
:103240004E0F5F1F5093E0034093DF0381939193F0
:103250009FCFF0E0E0E09CCFCF93DF930097E9F0C1
:10326000FC01329713821282A091E103B091E20334
:10327000ED0130E020E01097A1F420813181820F30
:10328000931F2091DF033091E0032817390709F0DD
:1032900061C0F093E003E093DF03DF91CF910895E5
:1032A000EA01CE17DF07E8F54A815B819E014115EF
:1032B0005105B1F7E901FB83EA8349915991C40FA4
:1032C000D51FEC17FD0761F4808191810296840F70
:1032D000951FE90199838883828193819B838A83E7
:1032E000F0E0E0E012968D919C9113970097B9F56C
:1032F0002D913C911197CD010296820F931F209141
:10330000DF033091E0032817390739F6309751F57C
:103310001092E2031092E103B093E003A093DF0365
:10332000BCCFD383C28340815181840F951FC817BE
:10333000D90761F44E5F5F4F88819981480F591F0B
:10334000518340838A819B81938382832115310538
:1033500009F0B0CFF093E203E093E1039ECFFD01CB
:10336000DC01C0CF13821282D7CFFB01DC014150B8
:10337000504048F001900D920020C9F701C01D9205
:1033800041505040E0F7089511E0CDE0D1E004C095
:10339000FE010E94E2162196CE30D107C9F7F894BB
:0233A000FFCF5D
:1033A200E17A0C41C3F51841EC51B83FCDCCCC3F8A
:1033B200295C0842D7A3B840F628DC40B81E054174
:1033C2000000E30380000000000016029001DF010C
:1033D200BD01D1015D020000000077054A058601AA
:1033E20037052805270500000000AF03840AB10352
:1033F200880A0E0B00000000AF03860AB103CE0A52
:103402005D0B0D0A00424D50323830002B2F2D201B
:1034120031362067002B2F2D20382067002B2F2DCF
:1034220020342067002B2F2D2032206700333230CA
:103432003020487A003136303020487A0038303037
:1034420020487A0034303020487A00313030204829
:103452007A00353020487A0031322E3520487A0001
:10346200362E323520487A00332E313320487A0006
:10347200312E353620487A00302E373820487A00EF
:10348200302E333920487A00302E323020487A00EC
:10349200302E313020487A0053656E743A20000095
:00000001FF
