:100000000C9422010C944C010C944C010C944C0166
:100010000C944C010C944C010C944C010C944C012C
:100020000C944C010C944C010C944C010C944C011C
:100030000C944C010C944C010C944C010C944C010C
:100040000C94BA0B0C944C010C94840B0C945A0B2A
:100050000C944C010C944C010C944C010C944C01EC
:100060000C944C010C944C010C944C010C944C01DC
:100070000C944C010C944C010C944C010C944C01CC
:100080000C944C010C94040C0C944C010763423604
:10009000B79BD8A71A39685618AEBAAB558C1D3C19
:1000A000B7CC5763BD6DEDFD753EF6177231BF00DD
:1000B0000000803F08000000BE922449123EABAA17
:1000C000AA2ABECDCCCC4C3E00000080BEABAAAA72
:1000D000AA3E00000000BF000000803F00000000BA
:1000E00000084178D3BB4387D1133D190E3CC3BDF3
:1000F0004282AD2B3E68EC8276BED98FE1A93E4CA0
:1001000080EFFFBE01C4FF7F3F0000000000000041
:100110003900360033003000210020006300000069
:100120003B0038003500320023006200650000000B
:10013000000A0B0C0000000000000104050600008E
:1001400000000000000000000000000000000000AF
:10015000000000000000000000000000000000009F
:1001600000000000003A0037003400310022006136
:1001700000640001020408102040800102040810FD
:100180002040800810010204081020408001020174
:10019000020408102040800480402010080402015E
:1001A0000102040810204080050505050505050528
:1001B0000202020202020202070704040404040409
:1001C00004040707030303030303030307010101F7
:1001D00001010101010606060606060606436F75C3
:1001E0006C64206E6F742066696E64206120766195
:1001F0006C696420424D503238302073656E736FE5
:10020000722C20636865636B20776972696E672161
:1002100000424D5032383000416C74697475646529
:10022000203D20005072657373757265203D20007B
:1002300054656D7065726174757265203D200000B3
:10024000240DC40F11241FBECFEFD0E1DEBFCDBF00
:1002500011E0A0E0B1E0EAE2FEE200E00BBF02C084
:1002600007900D92A436B107D9F722E0A4E6B1E0D9
:1002700001C01D92AA3FB207E1F711E0C1E2D1E04F
:1002800004C02197FE010E942614C032D107C9F78D
:100290000E948A0D0C9408170C9400008DB99EB929
:1002A0000895AF92BF92CF92DF92EF92FF920F9399
:1002B0001F93CF93DF936C017B018B01040F151FFC
:1002C000EB015E01AE18BF08C017D10759F0699164
:1002D000D601ED91FC910190F081E02DC6010995C8
:1002E000892B79F7C501DF91CF911F910F91FF9075
:1002F000EF90DF90CF90BF90AF900895FC01918D6B
:10030000828D981761F0A28DAE0FBF2FB11D5D9643
:100310008C91928D9F5F9F73928F90E008958FEFE5
:100320009FEF0895FC01918D828D981731F0828D99
:10033000E80FF11D858D90E008958FEF9FEF0895F0
:10034000FC01918D228D892F90E0805C9F4F821B54
:1003500091098F73992708958EE192E00E94A00180
:1003600021E0892B09F420E0822F0895FC01A48D5F
:10037000A80FB92FB11DA35ABF4F2C91848D90E0C7
:1003800001968F739927848FA689B7892C93A089AA
:10039000B1898C9180648C93938D848D981306C061
:1003A0000288F389E02D80818F7D80830895EF920C
:1003B000FF920F931F93CF93DF93EC0181E0888F1F
:1003C0009B8D8C8D981316C0E889F989808185FFF3
:1003D00011C0EE89FF896083E889F9898081806492
:1003E000808381E090E0DF91CF911F910F91FF908A
:1003F000EF900895F62E0B8D10E00F5F1F4F0F73D7
:100400001127E02E8C8D8E110CC00FB607FCFACF91
:10041000E889F989808185FFF5CFCE010E94B60178
:10042000F1CFEB8DEC0FFD2FF11DE35AFF4FF08262
:100430000B8FEA89FB8980818062D2CF0F931F9353
:10044000CF93DF938C01D0E0C0E0F801EC0FFD1FEB
:100450006491662341F08EE192E00E94D701892BDE
:1004600011F02196F2CFCE01DF91CF911F910F9124
:100470000895CF93DF93EC01888D8823B9F0AA8982
:10048000BB89E889F9898C9185FD03C0808186FD4F
:100490000DC00FB607FCF7CF8C9185FFF2CF80819E
:1004A00085FFEDCFCE010E94B601E9CFDF91CF915C
:1004B000089580E090E0892B29F00E94AC01811121
:1004C0000E94000080E090E0892B49F080E090E0FD
:1004D000892B29F00E94000081110C9400000895DE
:1004E00081508C3048F5E82FF0E0E758FD4F0C9430
:1004F0002614930293029C02850289028C028F02C9
:100500009C029C0297029D02A1028FB58F778FBD3E
:1005100008958FB58F7DFBCF8FB5877FF8CF85B5D9
:100520008F7D85BD089583B78F7D83BF08958091AA
:100530008B008F7780938B00089580918B008F7D47
:10054000F9CF80918B00877FF5CF1F93CF93DF93F7
:10055000282F30E0F901E25DFE4F8491F901ED585A
:10056000FE4FD491F901E855FE4FC491CC23A9F078
:10057000162F81110E947002EC2FF0E0EE0FFF1F8A
:10058000E25EFE4FA591B4918FB7F894EC911111F2
:1005900008C0D095DE23DC938FBFDF91CF911F91F0
:1005A0000895DE2BF8CFCF93DF9390E0FC01ED5858
:1005B000FE4F249188559E4FFC0184918823D1F0F1
:1005C00090E0880F991FFC01ED59FE4FA591B49161
:1005D000FC01E25EFE4FC591D49161110EC09FB740
:1005E000F8948C91E22FE0958E238C932881E2235E
:1005F000E8839FBFDF91CF9108958FB7F894EC9176
:10060000E22BEC938FBFF6CF3FB7F89480911002A6
:1006100090911102A0911202B091130222B706B676
:1006200000FE05C02F3F19F00196A11DB11D3FBF6F
:10063000BA2FA92F982F8827BC01CD01620F711DF9
:10064000811D911D43E0660F771F881F991F4A95F2
:10065000D1F708958F929F92AF92BF92CF92DF927F
:10066000EF92FF924B015C010E9404036B017C013D
:100670000E9404036C197D098E099F09683E73402E
:1006800081059105A8F321E0821A9108A108B1081B
:1006900088EEC80E83E0D81EE11CF11C8114910481
:1006A000A104B10429F7FF90EF90DF90CF90BF90A5
:1006B000AF909F908F90089585ED80937400809106
:1006C000740084FDFCCF109217020895613298F4F3
:1006D00020911702243089F46093C401282FA4EAE2
:1006E000B1E0FC018E2F821B861710F080E0089588
:1006F00081918D93F7CF81E0089582E00895089568
:10070000E091190280911802E81730F4F0E0EC57FC
:10071000FE4F808190E008958FEF9FEF08959091B4
:100720001902809118022FEF3FEF981748F4E92F34
:10073000F0E0EC57FE4F208130E09F5F909319026C
:10074000C90108958091180290911902891B990B93
:100750000895CF92DF92EF92FF920F931F93CF9362
:10076000DF937C01CB018A0120911D02222389F0B5
:10077000EB016B01C40ED51ECC15DD0569F0699146
:10078000D701ED91FC910190F081E02DC701099511
:10079000F3CF642F0E946603C801DF91CF911F91B0
:1007A0000F91FF90EF90DF90CF900895CF93DF935C
:1007B0001F92CDB7DEB7698320911D022223F9F085
:1007C00020911A02203258F021E030E0FC013383FE
:1007D000228390E080E00F90DF91CF910895809187
:1007E0001B02E82FF0E0EC59FE4F998190838F5F58
:1007F00080931B0280931A0281E090E0ECCF61E0CD
:10080000CE0101960E946603F7CF20911A0281E083
:10081000213208F044C0809117028111FCCF8091F1
:100820001C0292E09093170291E0909316029FEFC2
:100830009093E7011092090220930802A4E6B1E028
:10084000E8EEF1E090E0291331C010920A02909195
:100850000A02880F892B80930A0280911502813049
:1008600049F51092150280910A02809373008091DD
:10087000740083FDF8CF85EC80937400809117029B
:100880008230E1F38091E7018F3FB1F08091E70181
:100890008032A1F08091E701803391F084E01092E2
:1008A0001B0210921A0210921D0208953D9131937D
:1008B0009F5FC9CF85EEE0CF80E0F1CF82E0EFCF40
:1008C00083E0EDCF0895AF92BF92CF92DF92EF9287
:1008D000FF920F931F93CF93DF93FC0124892F3F47
:1008E00089F46FB90000779BFECFDFB08D2DDF91CB
:1008F000CF911F910F91FF90EF90DF90CF90BF901D
:10090000AF900895B62EEC01D12C07E010E0EE2454
:10091000E394F12CDD0C60E08C890E94A502B70104
:10092000002E01C0660F0A94EAF76B218A890E94A3
:10093000A50261E08C890E94A5022B8930E0F901B3
:10094000E25DFE4F8491F901ED58FE4FC490F9012C
:10095000E855FE4FA490AA2081F081110E947002F8
:10096000EA2DF0E0EE0FFF1FE25FFE4FA591B4917C
:10097000EC91CE2211F06894D0F80150110908F0E2
:10098000C9CFB4CF0895CF93DF93C82FD62F8091CE
:10099000D8028F3F59F58091C7029091C8022091EB
:1009A000CF0231E030931D0220931C0210921B02F3
:1009B00010921A02DC01ED91FC910190F081E02D82
:1009C0006C2F09958091C7029091C802DC01ED91CE
:1009D000FC910190F081E02D6D2F09958091C70267
:1009E0009091C802DF91CF910C9405048091DB02B5
:1009F0008F3F21F481E590E00E944E0160E08091FC
:100A0000D8020E94A5026C2F6F7787EC92E00E94BB
:100A100063046D2F87EC92E00E94630461E0809193
:100A2000D802DF91CF910C94A5020895FC010190AA
:100A30000020E9F73197AF01481B590BBC018EE14B
:100A400092E00C9451018F929F92AF92BF920F93BC
:100A50001F93CF93DF93CDB7DEB7A1970FB6F8946E
:100A6000DEBF0FBECDBF19A2423008F44AE08E01AE
:100A70000F5D1F4F842E912CB12CA12CA501940148
:100A80000E940414E62FB901CA01EA30F4F4E05DD3
:100A9000D801EE938D01232B242B252B79F790E0A1
:100AA00080E0109719F0CD010E941605A1960FB6AF
:100AB000F894DEBF0FBECDBFDF91CF911F910F9194
:100AC000BF90AF909F908F900895E95CE1CFCF9356
:100AD000DF930E941605EC0182E491E00E94160566
:100AE0008C0F9D1FDF91CF9108954F925F926F926F
:100AF0007F928F929F92AF92BF92CF92DF92EF92AE
:100B0000FF920F931F93CF936B017C01742EAC0166
:100B10009B010E94BA12882399F085E491E0CF915D
:100B20001F910F91FF90EF90DF90CF90BF90AF900B
:100B30009F908F907F906F905F904F900C941605D0
:100B400046015701E894B7F82FEF3FEF4FE75FE713
:100B5000C501B4010E94BA1281110DC02FEF3FEF01
:100B60004FE75FE7C501B4010E944C1018161CF452
:100B700089E491E0D4CF2FEF3FEF4FE75FE4C70167
:100B8000B6010E94F81118161CF48DE491E0C7CF4D
:100B90002FEF3FEF4FE75FECC701B6010E944C100B
:100BA00087FDF3CF20E030E0A901C701B6010E9424
:100BB0004C1010E000E087FF0AC06DE28EE192E089
:100BC0000E94D7018C01F7FAF094F7F8F094C0E096
:100BD00060E070E080E09FE37C1641F020E030E0D0
:100BE00040E251E40E945110CF5FF6CFA701960179
:100BF0000E94E00F2B013C010E94C3104B015C01DD
:100C00004AE00E9423057C01E00EF11ECC23C1F1D5
:100C1000C501B4010E94F8109B01AC01C301B201EF
:100C20000E94DF0F4B015C016EE28EE192E00E94B8
:100C3000D701E80EF91EC15018F120E030E040E283
:100C400051E4C501B4010E94FD112B013C010E9439
:100C5000C3104B01B12CA12C4AE0C501B4010E9484
:100C60002305E80EF91EC501B4010E94F8109B018E
:100C7000AC01C301B2010E94DF0F4B015C01DBCF6D
:100C8000C701CF911F910F91FF90EF90DF90CF9010
:100C9000BF90AF909F908F907F906F905F904F909C
:100CA0000895809117028111FCCF81E08093170293
:100CB000809316029FEF9093E70110920902940F20
:100CC0009093080280930A0280910A02660F682BB3
:100CD00060930A0280911502813019F51092150275
:100CE00080910A02809373008091740083FDF8CF95
:100CF00085EC80937400809117028130E1F380913C
:100D00000902841710F440910902A8EEB1E0E4E86A
:100D1000F1E080E0841307C010921902809318025A
:100D2000089585EEE6CF9D9191938F5FF3CFCF939A
:100D3000DF93C82F8091D8028F3F09F047C0809180
:100D4000C7029091C8022091CF0231E030931D027A
:100D500020931C0210921B0210921A02DC01ED91EA
:100D6000FC910190F081E02D6C2F09958091C702D4
:100D70009091C8020E94050442E06091CF028091E8
:100D8000C7029091C8020E9451068091C7029091BB
:100D9000C802DC01ED91FC910680F781E02D0995F8
:100DA000C82F8091C7029091C802DC01ED91FC919F
:100DB0000680F781E02D099520E03C2FE901C82B42
:100DC000D92B9C2F8D2FDF91CF9108958091DB023D
:100DD0008F3F21F481E590E00E944E0160E0809118
:100DE000D8020E94A5026C2F87EC92E00E94630457
:100DF00060E087EC92E00E946304C82F60E087EC1B
:100E000092E00E946304DC2FC82F61E08091D80239
:100E10000E94A502D6CF8F929F92AF92BF92CF929F
:100E2000DF92EF92FF92CF93DF93EC01F62E898948
:100E30008F3F09F063C088819981288531E0309324
:100E40001D0220931C0210921B0210921A02DC0158
:100E5000ED91FC910190F081E02D099588819981B7
:100E60000E94050443E06885888199810E945106AB
:100E700088819981DC01ED91FC910680F781E02D5C
:100E800009954C01990FAA08BB08BA2CA92C982CDB
:100E9000882488819981DC01ED91FC910680F7819D
:100EA000E02D0995092E000CAA0BBB0B882A992A64
:100EB000AA2ABB2ABA2CA92C982C8824888199812B
:100EC000DC01ED91FC910680F781E02D0995092E5A
:100ED000000CAA0BBB0B6C017D01C828D928EA289D
:100EE000FB28C701B601DF91CF91FF90EF90DF9013
:100EF000CF90BF90AF909F908F9008958C898F3F37
:100F000021F481E590E00E944E0160E089890E9411
:100F1000A5026F2DCE010E94630460E0CE010E9405
:100F2000630490E0B0E0A0E0CC24D82EE92EFA2EA5
:100F300060E0CE010E946304C82AFE2CED2CDC2C5C
:100F4000CC2460E0CE010E946304C82A61E0898954
:100F50000E94A502C6CF8F929F92AF92BF92CF926E
:100F6000DF92EF92FF920F931F93CF93DF93EC01E9
:100F70006AEF0E940B070D891E8930E020E0C72E22
:100F8000D82EE92EFF24E7FCFA94C01AD10AE20A0F
:100F9000F30A57E095958795779567955A95D1F718
:100FA000000F111F221F331F4B015C01801A910A91
:100FB000A20AB30AA5019401AF89B88D0E943A1420
:100FC0004B015C01FBE0B594A79497948794FA9544
:100FD000D1F7A7019601C701B6010E94F4139B0146
:100FE000AC01ACE05595479537952795AA95D1F773
:100FF000A98DBA8D0E943A149B01AC01BEE05595B3
:10100000479537952795BA95D1F7280D391D4A1D73
:101010005B1D2D873E874F87588BA5E0B0E00E946F
:101020002F1460587F4F8F4F9F4F672F782F892F36
:10103000992787FD9A950E94FA1020E030E048EC4D
:1010400052E40E945110DF91CF911F910F91FF90B8
:10105000EF90DF90CF90BF90AF909F908F900895CA
:101060002F923F924F925F926F927F928F929F92B8
:10107000AF92BF92CF92DF92EF92FF920F931F93A6
:10108000CF93DF93CDB7DEB76D970FB6F894DEBF81
:101090000FBECDBF9D8F8C8F0E94AB0767EF8C8DED
:1010A0009D8D0E940B07688F798F8A8F9B8FEC8DA7
:1010B000FD8D85859685A785B0896C017D01FF0C26
:1010C000CC08DC2C76019C01AD016C2D7C2D8C2D87
:1010D0009C2D345F414051096109710981099109D1
:1010E00029873A874B875C873B014C0159016A018C
:1010F0007B018C010E944214322E232E4A8B5B8B83
:101100006C8B7D8B8E8B9F8BAC8DBD8D5E963C9159
:101110005E975D962C91932F990F990B492F592F1C
:10112000692F792F892F0E9442140CE00E947115BB
:10113000522E39834D875E876F87788B898B492E36
:10114000EC8DFD8D30A1278D932F990F990BA32C3A
:10115000B22CCA88DB88EC88FD880E891F89492F4C
:10116000592F692F792F892F0E94421408E00E947D
:101170008A15A52CB980CD84DE84EF84F88809898E
:10118000142D0E94A71570588F4F9F4FAC8DBD8DA9
:101190005B96ED91FC915F01D12CC12CE12CF12CDF
:1011A0008701E983BA82CB82DC82ED82FE820F83E3
:1011B0001887C12CD12CE12CF12C00E010E00E940A
:1011C000421401E20E948A152983532E4D875E87BF
:1011D0006F87788B898B492EA0E00E94B91509F49E
:1011E0003DC1AC8DBD8D96963C91969795962C9170
:1011F000932F990F990BA32CB22CCA88DB88EC880B
:10120000FD880E891F89492F592F692F792F892F22
:101210000E94421419014A8B5B8B6C8B7D8B8E8BE9
:101220009F8BEC8DFD8D34A123A1932F990F990BEA
:10123000A984BA84CB84DC8473018401492F592F9B
:10124000692F792F892F0E94421401E10E947115A4
:101250005101CA88DB88EC88FD880E891F890E94AD
:10126000A71559016A017B01282E192F488D598D28
:101270006A8D7B8D84E075956795579547958A951E
:10128000D1F780E090E0A0E1B0E0841B950BA60BC5
:10129000B70B3C014D01990C6608762C43019C016B
:1012A000AD01662D762D862D962D0FE10E947115CC
:1012B000722E832E942E652EB62FA72F382E998747
:1012C000EC8DFD8D32A121A1932F990F990B492F00
:1012D000592F692F792F892F03E20E947115022D52
:1012E0000E94A71559016A017B018C01272D382D19
:1012F000492D562D6B2F7A2F832D99850E94B0157D
:10130000E5E3AE2EFCE0BF2EC12CD12CE12CF12C5C
:1013100000E010E00E944214A980B52CCD84DE8448
:10132000EF84F8880989142D0E949C1429873A8734
:101330004B875C8769837D878E879F870DE00E943E
:101340008A15922E832E742E652E562E472E382EF9
:10135000292EAC8DBD8D9C963C919C979B962C9193
:10136000932F990F990BA92CB82CC72CD62CE52CB0
:10137000F42C032D122D492F592F692F792F892FE6
:101380000E9442140E94421409E10E948A15A98415
:10139000BA84CB84DC84E980FD840E851F850E949D
:1013A000A71519012A013B014C01EC8DFD8D32A5D9
:1013B00021A5932F990F990B492F592F692F792F19
:1013C000892F0E94421403E10E948A1559016A0183
:1013D0007B018C019101A201B301C4010E94A715F8
:1013E00008E00E948A1559016A017B01E82F192F34
:1013F000AC8DBD8D98963C91989797962C91932F94
:10140000990F990B492F592F692F792F892F04E0B4
:101410000E9471150E2F0E94A7150E94F21020E065
:1014200030E040E85BE30E94FD116D960FB6F89442
:10143000DEBF0FBECDBFDF91CF911F910F91FF9007
:10144000EF90DF90CF90BF90AF909F908F907F9064
:101450006F905F904F903F902F90089560E070E004
:10146000CB01E3CF0C9470160C947016CF93DF93DE
:10147000EB01FB01349620E2DF011D922A95E9F78A
:1014800044E250E060E070E0488359836A837B83E4
:10149000FC0143815481052E000C660B770B4C83B5
:1014A0005D836E837F8346E050E060E070E04887B4
:1014B00059876A877B872FB7F89440910C02509127
:1014C0000D0260910E0270910F022FBF488B598B55
:1014D0006A8B7B8B858196810E94300820E030E00A
:1014E00048EC52E40E9451106C8B7D8B8E8B9F8B4D
:1014F00081E0DF91CF910895CF93DF93EB01FB0162
:10150000349620E2DF011D922A95E9F744E250E08B
:1015100060E070E0488359836A837B83FC014381E8
:101520005481052E000C660B770B4C835D836E8314
:101530007F834DE050E060E070E0488759876A871C
:101540007B872FB7F89440910C0250910D02609167
:101550000E0270910F022FBF488B598B6A8B7B8BC9
:10156000858196810E94AB076C8B7D8B8E8B9F8BC8
:1015700081E0DF91CF9108950F931F93CF93DF9375
:101580008C01EB0188E2FB0111928A95E9F74BE0AF
:1015900050E061E571E0CE010E94F9161B8681E002
:1015A00090E0A0E0B0E08C879D87AE87BF87F80110
:1015B00083819481092E000CAA0BBB0B888B998B1D
:1015C000AA8BBB8B86E090E0A0E0B0E08C8B9D8B7B
:1015D000AE8BBF8B1CA21DA21EA21FA280E090E0BA
:1015E000A6E9B3E4888F998FAA8FBB8F80E090E83B
:1015F000A9E8B4E48C8F9D8FAE8FBF8F86EA9BE9FC
:10160000A4E4BCE388A399A3AAA3BBA3DF91CF91D1
:101610001F910F9108950F931F93CF93DF938C0128
:10162000EB0188E2FB0111928A95E9F74BE050E06B
:1016300061E571E0CE010E94F9161B8681E090E021
:10164000A0E0B0E08C879D87AE87BF87F8018381DB
:101650009481092E000CAA0BBB0B888B998BAA8B4B
:10166000BB8B8DE090E0A0E0B0E08C8B9D8BAE8BCF
:10167000BF8B1CA21DA21EA21FA280E090E0A0E2D0
:10168000B2EC888F998FAA8FBB8F80E090E0AAEA96
:10169000B2E48C8F9D8FAE8FBF8F8AE097EDA3E26F
:1016A000BCE388A399A3AAA3BBA3DF91CF911F9109
:1016B0000F9108951F920F920FB60F9211240BB63F
:1016C0000F922F933F934F935F936F937F938F93DB
:1016D0009F93AF93BF93EF93FF938EE192E00E94AD
:1016E000B601FF91EF91BF91AF919F918F917F9143
:1016F0006F915F914F913F912F910F900BBE0F9083
:101700000FBE0F901F9018951F920F920FB60F9259
:1017100011240BB60F922F938F939F93EF93FF9308
:10172000E0912E02F0912F028081E0913402F0913D
:10173000350282FD1DC09081809137028F5F8F73CB
:1017400020913802821741F0E0913702F0E0E25E2A
:10175000FD4F958F80933702FF91EF919F918F916D
:101760002F910F900BBE0F900FBE0F901F901895EA
:101770008081F2CF1F920F920FB60F9211242F93F8
:101780003F938F939F93AF93BF9380910C0290915F
:101790000D02A0910E02B0910F0230910B0226E0D3
:1017A000230F2D3758F50296A11DB11D20930B0272
:1017B00080930C0290930D02A0930E02B0930F023F
:1017C0008091100290911102A0911202B091130227
:1017D0000196A11DB11D8093100290931102A09358
:1017E0001202B0931302BF91AF919F918F913F91DD
:1017F0002F910F900FBE0F901F90189529E8230F7F
:101800000396A11DB11DD2CF1F920F920FB60F925A
:1018100011240BB60F922F933F934F935F936F93C7
:101820007F938F939F93AF93BF93EF93FF93809199
:101830007100887F803609F44DC008F040C08832BE
:1018400009F4A7C028F5803109F49BC0C8F48823A7
:1018500009F4F7C0883009F494C0FF91EF91BF916B
:10186000AF919F918F917F916F915F914F913F9138
:101870002F910F900BBE0F900FBE0F901F901895D9
:10188000883109F486C0803241F78093E70114C0A3
:10189000803409F49BC040F48033B9F38833E9F60F
:1018A0008093E70185ECAEC0803509F483C08835AC
:1018B00009F494C0883489F60E945C03CECF88393D
:1018C00009F48AC038F5883729F050F4883611F0C9
:1018D000803719F683E0809317021092E60155C015
:1018E000883809F479C0803919F0803809F0B5CF0B
:1018F0008091E601803208F06FC0E091E60181E05E
:101900008E0F8093E60180917300F0E0EA53FE4F62
:1019100080833BC0803B39F0D0F4803A09F477C033
:10192000883A09F09ACF84E0809317021092C5019B
:101930001092C401F0E0E0E009958091C4018111AA
:101940000FC081E08093C4011092A40109C0803CC3
:1019500009F4A8CF883C09F4A5CF883B09F07DCFD6
:10196000E091C50181E08E0F8093C501F0E0EC5558
:10197000FE4F8081809373009091C5018091C401D6
:1019800029C080910A028093730085EC80937400D3
:1019900064CF9091090280910802981758F5E09160
:1019A000090281E08E0F80930902F0E0E851FE4FBA
:1019B0008081E9CFE091090281E08E0F80930902D6
:1019C00080917300F0E0E851FE4F8083909109020E
:1019D000809108029817C8F285E8D8CFE0910902F3
:1019E00081E08E0F8093090280917300F0E0E8514E
:1019F000FE4F80838091160281115ECF81E080933B
:101A0000150284EA809374001092170226CF85ECA9
:101A100080937400109217028091E601803230F4B6
:101A2000E091E601F0E0EA53FE4F10826091E6019A
:101A300070E086EC91E0F0E0E0E009951092E601BC
:101A40000CCF1092E70138CFCF93DF93EEE1F2E0B5
:101A50001382128288EE93E0A0E0B0E08483958345
:101A6000A683B7832AE031E03183208320E930E088
:101A70003587248729E230E0378726872BE230E05C
:101A8000318B208B2AE230E0338B228B25E930E04A
:101A9000358B248B2CE230E0378B268B118E128E07
:101AA000138E148EEBEBF2E0138212828483958303
:101AB000A683B7838AE191E091838083C7ECD2E06B
:101AC0008FEF898B8A8B8B8B8C8BF983E88387E0F4
:101AD00090E00E94D415FC0188E391E0918380831B
:101AE00088E191E094838383D683C583FD83EC836F
:101AF00087E090E00E94D415FC018AE291E0918396
:101B0000808314821382D683C583FF83EE83DF91A3
:101B1000CF910895789483B7806483BF83B788603A
:101B200083BF83B7846083BF87B7816087BF1EBCD4
:101B30008EB582608EBD8EB581608EBD8FB58160A1
:101B40008FBD85B5846085BD85B5806485BD809178
:101B50008A00826080938A0080918A0081608093ED
:101B60008A0080918B00816080938B00329A319A39
:101B70003098379A1AB8E0912E02F0912F0282E045
:101B80008083E0912A02F0912B021082E0912C02D6
:101B9000F0912D0287E6808310923602E0913202A6
:101BA000F091330286E08083E0913002F0913102BF
:101BB000808180618083E0913002F09131028081E8
:101BC00088608083E0913002F091310280818068EA
:101BD0008083E0913002F091310280818F7D80839B
:101BE00081E192E00E941E0282E491E00E941605CB
:101BF00096E7F92EC0EBD1E00BE711E020E2E22EF0
:101C000035E4D32EF092CF028091D8028F3F09F0B5
:101C10006FC0109219021092180210921B021092BB
:101C20001A021092170281E0809316021092150298
:101C300061E083E10E94A50261E082E10E94A502C9
:101C4000809171008E7F80937100809171008D7FF3
:101C500080937100E0927000D09274008091D8025D
:101C60008F3F09F08DC08091C7029091C8022091EA
:101C7000CF0231E030931D0220931C0210921B0210
:101C800010921A02DC01ED91FC910190F081E02D9F
:101C900060ED09958091C7029091C8020E940504E9
:101CA00041E06091CF028091C7029091C8020E94EA
:101CB00051068091C7029091C802DC01ED91FC9120
:101CC0000680F781E02D0995C82EB8E5CB1609F4FA
:101CD00075C08DED91E00E941E0282E491E00E94A9
:101CE000160560ED77E080E090E00E942A038ACF3D
:101CF00061E00E94A50261E08091D8020E94D302B7
:101D00008091DB028F3F71F5CFB6F8948091140279
:101D1000811121C0FE018491F8019491E82FF0E037
:101D2000EE0FFF1FED59FE4FA591B4918C919823B2
:101D300021F461E088E00E94A50261E088E00E9451
:101D4000D3026C9A6E9A61E089E00E94D30261E04E
:101D50008AE00E94D302809114028F5F8093140264
:101D6000CFBE7CCF61E00E94D30261E08091D902B6
:101D70000E94D30260E08091DA020E94D3026ECF0B
:101D80008091DB028F3F21F481E590E00E944E01BB
:101D900060E08091D8020E94A50260ED87EC92E09D
:101DA0000E94630460E087EC92E00E946304C82E06
:101DB00061E08091D8020E94A50287CF88E80E9446
:101DC00097069093DD028093DC028AE80E949706D2
:101DD0009093DF028093DE028CE80E949706909336
:101DE000E1028093E0028EE80E9497069093E3025E
:101DF0008093E20280E90E9497069093E502809327
:101E0000E40282E90E9497069093E7028093E6023B
:101E100084E90E9497069093E9028093E80286E99C
:101E20000E9497069093EB028093EA0288E90E9451
:101E300097069093ED028093EC028AE90E94970640
:101E40009093EF028093EE028CE90E9497069093A4
:101E5000F1028093F0028EE90E9497069093F302BC
:101E60008093F2028DEE8093F5026091F402607C23
:101E70006093F40267FB662760F985EF0E94C30454
:101E80008091F502682F6770E0E26E9FB001112427
:101E9000282F2695269526952770F4E02F9F9001F0
:101EA0001124622B8295869586958370682B84EF2A
:101EB0000E94C30464E670E080E090E00E942A0380
:101EC00087EC92E00E94AB072B013C0187EC92E08B
:101ED0000E9430084B015C0187EC92E00E943008C0
:101EE00020E030E048EC52E40E94511020E030E560
:101EF0004DE754E40E94511021E03EED42E45EE3E0
:101F00000E946A126B017C0180E392E00E941E0233
:101F100042E0C301B2010E94750588E591E00E948C
:101F2000670584E292E00E941E0242E0C501B4010E
:101F30000E9475058CE591E00E94670588E192E0BA
:101F40000E941E02A701960160E070E080E89FE316
:101F50000E94DF0F20E03AE24DE257E40E94FD11BB
:101F600042E00E94750580E691E00E94670582E4E8
:101F700091E00E94160560ED77E080E090E00E941D
:101F80002A030E9459029CCF8091CB029091CC02EF
:101F9000009739F0DC01ED91FC910280F381E02D96
:101FA00009958091CD029091CE02009739F0DC0125
:101FB000ED91FC910280F381E02D09940895505831
:101FC000BB27AA270E94F70F0C94BE110E94B011E4
:101FD00038F00E94B71120F039F49F3F19F426F42D
:101FE0000C949D110EF4E095E7FB0C949711E92FEA
:101FF0000E94CF1158F3BA17620773078407950739
:1020000020F079F4A6F50C94F1110EF4E0950B2E66
:10201000BA2FA02D0B01B90190010C01CA01A0013A
:102020001124FF27591B99F0593F50F4503E68F195
:102030001A16F040A22F232F342F4427585FF3CFD6
:10204000469537952795A795F0405395C9F77EF4A7
:102050001F16BA0B620B730B840BBAF09150A1F0F0
:10206000FF0FBB1F661F771F881FC2F70EC0BA0F76
:10207000621F731F841F48F4879577956795B795FE
:10208000F7959E3F08F0B0CF9395880F08F09927F9
:10209000EE0F9795879508950E94731108F481E0DB
:1020A00008950E9465100C94BE110E94B71158F05B
:1020B0000E94B01140F029F45F3F29F00C94971171
:1020C00051110C94F2110C949D110E94CF1168F3E0
:1020D0009923B1F3552391F3951B550BBB27AA27E1
:1020E00062177307840738F09F5F5F4F220F331F1B
:1020F000441FAA1FA9F335D00E2E3AF0E0E832D0E3
:1021000091505040E695001CCAF72BD0FE2F29D0E5
:10211000660F771F881FBB1F261737074807AB07B7
:10212000B0E809F0BB0B802DBF01FF2793585F4F2C
:102130003AF09E3F510578F00C9497110C94F211EF
:102140005F3FE4F3983ED4F3869577956795B7950E
:10215000F7959F5FC9F7880F911D9695879597F919
:102160000895E1E0660F771F881FBB1F6217730792
:102170008407BA0720F0621B730B840BBA0BEE1FA7
:1021800088F7E09508950E94D71188F09F5798F03E
:10219000B92F9927B751B0F0E1F0660F771F881F6C
:1021A000991F1AF0BA95C9F714C0B13091F00E9486
:1021B000F111B1E008950C94F111672F782F882761
:1021C000B85F39F0B93FCCF3869577956795B395AD
:1021D000D9F73EF490958095709561957F4F8F4F1C
:1021E0009F4F089597FB16F40E94A0110C9436118E
:1021F000E89409C097FB3EF49095809570956195A1
:102200007F4F8F4F9F4F9923A9F0F92F96E9BB2756
:102210009395F695879577956795B795F111F8CFD2
:10222000FAF4BB0F11F460FF1BC06F5F7F4F8F4F3D
:102230009F4F16C0882311F096E911C0772321F033
:102240009EE8872F762F05C0662371F096E8862FCB
:1022500070E060E02AF09A95660F771F881FDAF722
:10226000880F9695879597F90895E894F92F96EB3E
:10227000FF2381F0121613061406440B9395F6956E
:1022800087957795679557954040FF23B9F71BC011
:1022900099270895882351F49850D2F7872B762FE9
:1022A000652F542F432F322F20E0B1F3121613065F
:1022B0001406440B88233AF09A95440F551F661F65
:1022C000771F881FCAF755234AF4440F551F11F48E
:1022D00060FF04C06F5F7F4F8F4F9F4F880F9695B1
:1022E000879597F90895990F0008550FAA0BE0E814
:1022F000FEEF16161706E807F907C0F012161306C8
:10230000E407F50798F0621B730B840B950B39F407
:102310000A2661F0232B242B252B21F408950A266D
:1023200009F4A140A6958FEF811D811D089597F9AD
:102330009F6780E870E060E008959FEF80EC08956B
:102340009095809570956095509540953095219524
:102350003F4F4F4F5F4F6F4F7F4F8F4F9F4F0895AE
:1023600000240A9416161706180609060895002474
:102370000A9412161306140605060895092E0394EE
:10238000000C11F4882352F0BB0F40F4BF2B11F462
:1023900060FF04C06F5F7F4F8F4F9F4F089557FDC1
:1023A0009058440F551F59F05F3F71F04795880FC3
:1023B00097FB991F61F09F3F79F08795089512165A
:1023C00013061406551FF2CF4695F1DF08C0161606
:1023D00017061806991FF1CF8695710561050894B7
:1023E0000895E894BB2766277727CB0197F90895CE
:1023F0000E94731108F48FEF08950E9410120C943C
:10240000BE110E94B01138F00E94B71120F0952340
:1024100011F00C9497110C949D1111240C94F2114D
:102420000E94CF1170F3959FC1F3950F50E0551F97
:10243000629FF001729FBB27F00DB11D639FAA2719
:10244000F00DB11DAA1F649F6627B00DA11D661F68
:10245000829F2227B00DA11D621F739FB00DA11D89
:10246000621F839FA00D611D221F749F3327A00D43
:10247000611D231F849F600D211D822F762F6A2FDF
:1024800011249F5750409AF0F1F088234AF0EE0F44
:10249000FF1FBB1F661F771F881F91505040A9F771
:1024A0009E3F510580F00C9497110C94F2115F3F00
:1024B000E4F3983ED4F3869577956795B795F795AD
:1024C000E7959F5FC1F7FE2B880F911D9695879525
:1024D00097F90895FA01EE0FFF1F30962105310597
:1024E000A1F16115710561F48038BFE39B0749F1E3
:1024F00068949038810561F08038BFEF9B0741F008
:1025000099234AF5FF3FE1053105210519F1E894CA
:102510000894E795D901AA2329F4AB2FBE2FF85FC1
:10252000D0F310C0FF5F70F4A695E0F7F73950F0D4
:1025300019F0FF3A38F49F779F930DD00F9007FC66
:102540009058089546F00C949D1160E070E080E88A
:102550009FE308954FE79F775F934F933F932F93A8
:102560000E946A132F913F914F915F910E94FD113C
:102570000C94C7120E947311880B990B089529F4CB
:1025800016F00C9497110C94F1110C949D110E946B
:10259000D711A8F39638A0F707F80F92E8942BE329
:1025A0003AEA48EB5FE70E9413120F920F920F92E4
:1025B0004DB75EB70F920E94B213ECE8F0E00E94B4
:1025C000F9124F915F91EF91FF91E595EE1FFF1F7B
:1025D00049F0FE57E0684427EE0F441FFA95E1F7F3
:1025E0004195550B0E942C130F9007FE0C9420135D
:1025F0000895DF93CF931F930F93FF92EF92DF9293
:102600007B018C01689406C0DA2EEF010E94101243
:10261000FE01E894A5912591359145915591A6F338
:10262000EF010E94F70FFE019701A801DA9469F704
:10263000DF90EF90FF900F911F91CF91DF91089560
:102640009B01AC0160E070E080E89FE30C945110C6
:102650000C9497110C94E6130E94D711D8F3992388
:10266000C9F3940F511DA3F39150504094F059F0C9
:10267000882332F0660F771F881F91505040C1F7B2
:102680009E3F51052CF7880F911D9695879597F9D8
:1026900008955F3FACF0983E9CF0BB2786957795F8
:1026A0006795B79508F4B1609395C1F7BB0F58F7DC
:1026B00011F460FFE8CF6F5F7F4F8F4F9F4FE3CFE5
:1026C0000C94F21116F00C94E6130C949D1168947E
:1026D0000C9497110E94D711A8F39923C1F3AEF37C
:1026E000DF93CF931F930F93FF92C92FDD2788238A
:1026F0002AF02197660F771F881FDAF720E030E075
:1027000040E85FEB9FE3883920F0803E38F0219667
:102710008F770E94E00FE4EBF0E004C00E94E00F2E
:10272000E1EEF0E00E94F9128B01BE01EC01FB2EFC
:102730006F5771097595771F880B990B0E94FA10D6
:1027400028E132E741E35FE30E941012AF2D9801C8
:10275000AE01FF900F911F91CF91DF910E94F70F73
:102760000C94BE11FA01DC01AA0FBB1F9B01AC0146
:10277000BF5728F4222733274427507820C0B75169
:1027800090F4AB2F0024469537952795011CA3950F
:10279000D2F3002071F0220F331F441FB395DAF3F8
:1027A0000ED00C94DF0F61307105A0E88A07B9469E
:1027B00030F49B01AC016627772788279078309604
:1027C00021F0208331834283538308959F3F31F06A
:1027D000915020F4879577956795B795880F911D4F
:1027E0009695879597F90895DB018F939F930E94A3
:1027F0002F14BF91AF91A29F800D911DA39F900DAB
:10280000B29F900D11240895A1E21A2EAA1BBB1BA2
:10281000FD010DC0AA1FBB1FEE1FFF1FA217B307AC
:10282000E407F50720F0A21BB30BE40BF50B661FC2
:10283000771F881F991F1A9469F760957095809586
:1028400090959B01AC01BD01CF010895EE0FFF1FD4
:102850000024001C0BBE0790F691E02D09940E9405
:10286000C515A59F900DB49F900DA49F800D911D3F
:1028700011240895B7FF0C942F140E942F14821B6B
:10288000930B0895DF93CF931F930F939A9DF02D91
:10289000219FF00D8B9DF00D8A9DE02DF10D039F82
:1028A000F00D029FE00DF11D4E9DE00DF11D5E9DAE
:1028B000F00D4F9DF00D7F936F93BF92AF925F939A
:1028C0004F93D5010E94C5158B01AC01D7010E9421
:1028D000C515EB01E80FF91FD6010E9491142F9145
:1028E0003F91D6010E94C515C60FD71FE81FF91FDB
:1028F000AF91BF910E9491142F913F910E94C515F5
:10290000C60FD71FE81FF91FD6010E94C515E60F95
:10291000F71F9801BE01CF010F911F91CF91DF9159
:1029200008950E94C515460F571FC81FD91F08F4E8
:1029300031960895689401C0E894F92FF12B12F0B4
:102940000C94CE14A0E0B0E0E8EAF4E10C94401559
:10295000092E059422F40E942A15112392F4F0E81E
:102960000F26FFEFE094F09400951095B094C0947A
:10297000D094A194BF0ACF0ADF0AEF0AFF0A0F0B17
:102980001F0B0E94D91407FC0E942A15CDB7DEB791
:10299000ECE00C945C15689401C0E8948F929F92CF
:1029A000CF93DF930E94D914DF91CF919F908F90A6
:1029B000089588249924F401E401B0E49F93AA27A0
:1029C0009A158B049C04ED05FE05CF05D007A107E1
:1029D00098F4AD2FDC2FCF2FFE2FE92D982C892EC8
:1029E000982F872F762F652F542F432F322F222792
:1029F000B85031F7BF9127C01B2EBF91BB27220FC4
:102A0000331F441F551F661F771F881F991F881C7F
:102A1000991CEE1FFF1FCC1FDD1FAA1FBB1F8A14AE
:102A20009B04EC05FD05CE05DF05A007B10748F0C6
:102A30008A189B08EC09FD09CE09DF09A00BB10B30
:102A400021601A94E1F62EF49401AF01BE01CD018C
:102A5000000C0895609570958095909530954095FF
:102A6000509521953F4F4F4F5F4F6F4F7F4F8F4F87
:102A70009F4F08952F923F924F925F926F927F9255
:102A80008F929F92AF92BF92CF92DF92EF92FF927E
:102A90000F931F93CF93DF93CDB7DEB7CA1BDB0B2A
:102AA0000FB6F894DEBF0FBECDBF09942A883988CF
:102AB00048885F846E847D848C849B84AA84B984D6
:102AC000C884DF80EE80FD800C811B81AA81B981E2
:102AD000CE0FD11D0FB6F894DEBF0FBECDBFED01F6
:102AE0000895002E083090F0982F872F762F652FAD
:102AF000542F432F322F22270850F4CF220F331F99
:102B0000441F551F661F771F881F991F0A95B2F72C
:102B1000002D089597FD1094002E083098F008506D
:102B2000232F342F452F562F672F782F892F912D44
:102B3000F4CF159497958795779567955795479511
:102B4000379527950A95AAF71124002D08952A0D87
:102B50003B1D4C1D5D1D6E1D7F1D801F911F089527
:102B60002A193B094C095D096E097F09800B910BFD
:102B700008950024A7FD00942A173005400550054C
:102B800060057005800590050895A29FB001B39F70
:102B9000C001A39F700D811D1124911DB29F700D66
:102BA000811D1124911D08950F931F93CF93DF93DF
:102BB0008230910510F482E090E0E091F802F0910B
:102BC000F90230E020E0B0E0A0E0309799F4211560
:102BD000310509F44AC0281B390B24303105D8F5DA
:102BE0008A819B816115710589F1FB019383828341
:102BF000FE0111C04081518102811381481759079C
:102C0000E0F04817590799F4109761F012960C9369
:102C1000129713961C933296CF01DF91CF911F919B
:102C20000F9108950093F8021093F902F4CF211543
:102C3000310551F04217530738F0A901DB019A0121
:102C4000BD01DF01F801C1CFEF01F9CF9093F90287
:102C50008093F802CDCFFE01E20FF31F8193919391
:102C60002250310939832883D7CF2091F602309141
:102C7000F702232B41F4209102013091030130939C
:102C8000F7022093F60220910001309101012115F5
:102C9000310541F42DB73EB7409104015091050133
:102CA000241B350BE091F602F091F702E217F307CF
:102CB000A0F42E1B3F0B2817390778F0AC014E5FAC
:102CC0005F4F2417350748F04E0F5F1F5093F702F0
:102CD0004093F602819391939FCFF0E0E0E09CCF88
:102CE000CF93DF930097E9F0FC01329713821282B1
:102CF000A091F802B091F902ED0130E020E01097C8
:102D0000A1F420813181820F931F2091F60230912E
:102D1000F7022817390709F061C0F093F702E09332
:102D2000F602DF91CF910895EA01CE17DF07E8F5AB
:102D30004A815B819E0141155105B1F7E901FB8391
:102D4000EA8349915991C40FD51FEC17FD0761F42F
:102D5000808191810296840F951FE9019983888370
:102D6000828193819B838A83F0E0E0E012968D91CB
:102D70009C9113970097B9F52D913C911197CD0136
:102D80000296820F931F2091F6023091F7022817C6
:102D9000390739F6309751F51092F9021092F8027E
:102DA000B093F702A093F602BCCFD383C2834081D5
:102DB0005181840F951FC817D90761F44E5F5F4F8B
:102DC00088819981480F591F518340838A819B8153
:102DD000938382832115310509F0B0CFF093F90276
:102DE000E093F8029ECFFD01DC01C0CF1382128276
:102DF000D7CFFB01DC014150504048F001900D92CB
:102E00000020C9F701C01D9241505040E0F70895DD
:102E100011E0C1E2D1E004C0FE010E942614219617
:0A2E2000C232D107C9F7F894FFCFC2
:102E2A000000FA02800000000000D7015101A00151
:102E3A007E019201390200000000D603A903A20311
:102E4A008F0380037F03000000006204320A150525
:102E5A00360ABC0A000000006204340A15057C0A1E
:102E6A000B0B0D0A006E616E00696E66006F766666
:102E7A0000424D5032383000202A43002050610071
:042E8A00206D0000B7
:0200000002C03C
:00000001FF